:020000040800F2
:10000000500D0020D5010008CD0B0008070B00089B
:10001000CB0B00085D0600088D11000800000000F1
:100020000000000000000000000000004D0D00086E
:100030007B08000800000000490C0008050E0008BD
:10004000EF010008EF010008EF010008EF010008D0
:10005000EF010008EF0100087D0800081109000801
:1000600025090008390900084D0900085F06000845
:100070006106000875060008790600088D0600086C
:100080008F06000891060008EF010008EF01000844
:10009000EF010008EF010008EF0100086109000806
:1000A000EF0100086D0E0008EF010008590E00086E
:1000B000810E0008950E0008A90E00081D0B00080F
:1000C000090B0008450B0008310B0008EF01000880
:1000D000EF010008C50F0008D90F0008ED0F000858
:1000E00091080008EF010008EF010008EF01000887
:1000F0000D0F0008EF010008F90E0008EF010008DD
:10010000EF010008EF010008BD0E0008EF01000834
:100110009D0F0008B10F0008D10E0008E50E000881
:10012000A5060008A7060008A9060008AD060008F5
:1001300000F002F800F03EF80AA090E8000C8244BB
:100140008344AAF10107DA4501D100F033F8AFF298
:10015000090EBAE80F0013F0010F18BFFB1A43F0A5
:100160000103184798240000B8240000103A24BF67
:1001700078C878C1FAD8520724BF30C830C144BF0C
:1001800004680C607047000000230024002500264E
:10019000103A28BF78C1FBD8520728BF30C148BFEA
:1001A0000B6070471FB59DE8030000F051F91FBDBB
:1001B00010B510BD00F0D0F91146FFF7F3FF01F0C4
:1001C00085FE00F0EEF903B4FFF7F2FF03BC00F088
:1001D0001FFA00000948804709480047FEE7FEE78C
:1001E000FEE7FEE7FEE7FEE7FEE7FEE7FEE7FEE7E7
:1001F00004480549054A064B70470000090E0008EF
:100200003101000850070020500D00205009002047
:100210005009002070B5064600F0FEF8056806F1AA
:100220000B0020F00704B4429CBF002070BD2B4699
:100230006A68BAB11068A04210D304F1080188427C
:100240003CBF5068586007D351681019416011686D
:10025000091B016058601460101D70BD1346526880
:10026000002AE7D12146284600F0DEF80028DED13A
:1002700070BD53EA020C00F069802DE9F04B4FF09D
:100280000006002B1FBFB3FA83F503FA05F424FA26
:1002900005F65E4012BF1643B2FA82F502FA05F483
:1002A000C5F120051EBF22FA05FC44EA0C042035E6
:1002B00056EA044C4FEA144418BF641C4FF000087F
:1002C0004FF00009904271EB030C39D3002919BF9C
:1002D000B1FA81F701FA07F6B0FA80F700FA07F6EB
:1002E000C7F120071EBF20FA07FC46EA0C0620379C
:1002F000B6FBF4FCA7EB0507103F07F01F0BCBF193
:1003000020060CFA0BFB2CFA06F644BFB346002677
:10031000202FA4BF5E464FF0000B5BEA060C08BF1F
:100320004FF0010B19EB0B09ABFB027C48EB060805
:10033000C01B06FB02CC0BFB03CC71EB0C01C1E72D
:100340000B46024641464846BDE8F08B13B54FF0D8
:1003500000004FF00001AFF30080BDE81C40704783
:1003600010B5203AC0F00B80B1E81850203AA0E850
:100370001850B1E81850A0E81850BFF4F5AF5FEA84
:10038000027C24BFB1E81850A0E8185044BF18C937
:1003900018C0BDE810405FEA827C24BF51F8043BDE
:1003A00040F8043B08BF7047D20728BF31F8023B32
:1003B00048BF11F8012B28BF20F8023B48BF00F8C6
:1003C000012B70474FF0000200B513469446964645
:1003D000203922BFA0E80C50A0E80C50B1F1200158
:1003E000BFF4F7AF090728BFA0E80C5048BF0CC006
:1003F0005DF804EB890028BF40F8042B08BF704764
:1004000048BF20F8022B11F0804F18BF00F8012BD5
:10041000704770477047704700487047F8060020E3
:10042000704770477047704738B504460A46002049
:100430006946AFF30080002808BF38BD0246009926
:10044000204600F067F8012038BD012000F07CB89C
:10045000F8B5AFF30080054600200C46102000BF21
:100460000646A819A0420DD9324669460020AFF3CE
:100470000080070008BF00F067F80098A04218BF8E
:100480000546C419FFF7C8FF05600746F01D20F0B8
:1004900007004619284600F00AF8B44208BFF8BD24
:1004A000A21B31463868BDE8F84000F033B800219F
:1004B0000160C0E9011070471020704770B5044614
:1004C000051FFFF7A9FF0068002C14BF446870BD2A
:1004D000002C18BFAC423CBF20466468F8D30168CA
:1004E0000A18AA4218BF456003D12A68054611447C
:1004F000016028684119A1421CBF6C6070BD616831
:10050000696021680844286070BD00000048704799
:10051000F0060020034640688C46002818BF884239
:100520003CBF03464068F8D318681844884207D097
:100530000CF1030020F00700001D411A521A014679
:10054000081D0A60FFF7BABF10B500F039F8BDE822
:10055000104000F02FB870477546FFF7D7FFAE4642
:1005600005006946534620F00700854618B020B5BF
:10057000FFF73EFEBDE820404FF000064FF00007B9
:100580004FF000084FF0000B21F00701AC46ACE83B
:10059000C009ACE8C009ACE8C009ACE8C0098D46A8
:1005A000704710B50446AFF300802046BDE8104008
:1005B000FFF709BE002801D000F02AB870470000FC
:1005C00010B5012805D0002103A000F027F8012074
:1005D00010BD09A1F8E7000053494752544D454D5D
:1005E0003A204F7574206F662068656170206D65D4
:1005F0006D6F7279000000003A2048656170206DCF
:10060000656D6F727920636F7272757074656400C6
:1006100001491820ABBEFEE72600020070B5054672
:100620000C460A2000E06D1C00F011F835B1287866
:100630000028F8D102E0641C00F009F814B1207819
:100640000028F8D1BDE870400A20AFF3008008B55B
:1006500069468DF800000320ABBE08BDFEE7704779
:1006600003488068002801D001F013BB70470000E8
:10067000BC0500207047000003480068002801D036
:1006800001F007BB70470000BC05002070477047B1
:1006900003484068002801D001F0FBBA7047000011
:1006A000BC05002070477047704700000348C068D1
:1006B000002801D001F0EDBA70470000BC05002011
:1006C000C10002D50249086070470249486070477E
:1006D0000404024000000240C10002D50249086043
:1006E000704702494860704704040240000002401D
:1006F000002904D0016841F00101016070470168E0
:100700004FF6FE72114001607047000001684FF61D
:10071000FE72114001600021016041608160C16092
:100720003649364A0839904204D1486840F00F00F3
:1007300048607047314A1432904204D1486840F012
:10074000F000486070472D4A2832904204D1486832
:1007500040F4706048607047284A3C32904204D1AF
:10076000486840F4704048607047244A50329042D4
:1007700004D1486840F47020486070471F4A6432D2
:10078000904204D1486840F47000486070471B4AAA
:100790007832904204D1486840F0706048607047F9
:1007A000174A111F904204D1086840F00F000860FA
:1007B0007047134A1432904204D1086840F0F000A8
:1007C000086070470E4A2832904204D1086840F40D
:1007D0007060086070470A4A3C32904204D1086851
:1007E00040F4704008607047054A50329042FAD198
:1007F000086840F47020086070470000080002405C
:100800000804024002460020D10002D504490968CC
:1008100001E004490968114200D00120704700003E
:100820000004024000000240002A03D002680A438C
:100830000260704702688A430260704730B5026800
:1008400047F6F0739A430C6A8B682343D1E9044559
:100850002C4323438C692343CC6923434C6A2343B1
:100860008C6A234313430360CA6842600A6882604B
:100870004968C16030BD41607047704703480068F7
:10088000002801D000F0E9BC70470000D00500202E
:1008900010B54FF4806000F09DF81C4C18B1A06AB0
:1008A00008B100F0DAFC4FF4006000F093F818B1E2
:1008B000E06A08B100F0D1FC4FF4805000F08AF8F3
:1008C00018B1206B08B100F0C8FC4FF4005000F0E4
:1008D00081F818B1606B08B100F0BFFC4FF48040A4
:1008E00000F078F818B1A06B08B100F0B6FC4FF436
:1008F000004000F06FF8002806D0E06B002803D01D
:10090000BDE8104000F0A9BC10BD0000D0050020DB
:1009100003484068002801D000F09FBC70470000E9
:10092000D005002003488068002801D000F095BC65
:1009300070470000D00500200348C068002801D09F
:1009400000F08BBC70470000D00500200348006910
:10095000002801D000F081BC70470000D0050020C5
:1009600010B5202000F036F8164C18B1606908B1B7
:1009700000F073FC402000F02DF818B1A06908B118
:1009800000F06BFC802000F025F818B1E06908B198
:1009900000F063FC4FF4807000F01CF818B1206A7E
:1009A00008B100F05AFC4FF4007000F013F8002872
:1009B00006D0606A002803D0BDE8104000F04DBCAE
:1009C00010BD0000D00500200149086070470000FC
:1009D0001404014001460020054A12680A40044BF5
:1009E00014331B680B4202D0002A00D0012070474C
:1009F000000401402DE9F0410022CC7804F00F03FF
:100A0000E40601D58C7823430C784FF00F0714F0DF
:100A1000FF0F4FF0010C1CD005680CFA02F40E8891
:100A20002640A64211D1960007FA06F825EA0805E5
:100A300003FA06F848EA0505CE78282E02D0482E9B
:100A400002D002E0446100E00461521C082AE4D3B1
:100A500005600A88FF2A1ED94568002202F10806AF
:100A60000CFA06F40E882640A64210D1960007FA2A
:100A700006F825EA080503FA06F848EA0505CE78DF
:100A8000282E00D14461CE78482E00D10461521C3A
:100A9000082AE3D34560BDE8F0810000F0B5154CAD
:100AA000002801DAE36900E06368C0F30346420D01
:100AB000120185B2C0F301579540032F07D0C2023F
:100AC0000CD50322B240934343F0706209E023F057
:100AD0007062636823F07063636002E0AB4343F0CD
:100AE000706201B12A43002801DAE261F0BD626060
:100AF000F0BD0000000001400246002092680A425A
:100B000000D001207047FEE703480068002801D0AC
:100B100000F055BC704700003C000020034800680E
:100B2000002801D000F05ABC704700003C000020B3
:100B300003484068002801D000F041BC7047000025
:100B40003C00002003484068002801D000F046BC6B
:100B5000704700003C000020002904D0018841F4C7
:100B6000806101807047018821F4806101807047B5
:100B7000002904D0018841F4807101807047018808
:100B800021F4807101807047002904D0018841F46C
:100B9000007101807047018821F400710180704765
:100BA000818A008B0004014321F07F407047008A56
:100BB000C0B27047002A02D041F0010101E001F00B
:100BC000FE010182704701827047FEE77047000016
:100BD00070B50F23C27801260178002A1ED0144A6E
:100BE000126802F4E062C2F5E062120AC2F1040483
:100BF000D3404578A54082781A402A43120101F17A
:100C0000E02181F80024007800F01F018E404009A7
:100C1000800000F1E020C0F8006170BD01F01F000D
:100C200086404809800000F1E020C0F8806170BD76
:100C30000CED00E0024908430249086070470000DB
:100C40000000FA050CED00E070470000054A00299D
:100C500003D051690143516170475169814351612A
:100C60007047000000100240054A002903D0D169F6
:100C70000143D1617047D1698143D1617047000060
:100C800000100240054A002903D091690143916197
:100C900070479169814391617047000000100240E4
:100CA00010B5264A516801F00C01254B002927D0C8
:100CB000042927D0082927D00360516801F0F001EA
:100CC0000909204B5C5C0168E1404160546804F410
:100CD000E064240A1C5D21FA04F48460546804F47E
:100CE0006054E40A1B5DD940C160526802F440427E
:100CF000920B144B1B1F9A5CB1FBF2F1016110BD0A
:100D00000360DAE70360D8E7516801F470115368B3
:100D100003F48033022404EB914133B153689B0305
:100D200007D5094B59430160C7E7074B5943016099
:100D3000C3E7034B59430160BFE7000000100240C6
:100D400000127A000400002000093D00704700F006
:100D500001B800000CB500220192009227480168FA
:100D600041F4803101604FF4A063016801F4003167
:100D700000910199491C0191009911B90199994279
:100D8000F3D10168890302D50121009100E00092AE
:100D90000099012930D11A490A6842F010020A600C
:100DA0000A6822F007020A600A6842F002020A603A
:100DB0004168416041684160416841F4806141603F
:100DC000416821F47C114160416841F4A8114160FF
:100DD000016841F08071016001688901FCD54168BA
:100DE00021F003014160416841F002014160416826
:100DF000C1F381010229FAD10CBD000000100240AC
:100E00000020024001F066B910B50F48016841F0BA
:100E10000101016041680D4A1140416001680C4ABE
:100E200011400160016821F480210160416821F4D2
:100E3000FE0141604FF41F018160FFF788FF054903
:100E40004FF00060086010BD001002400000FFF885
:100E5000FFFFF6FE08ED00E003480068002801D01F
:100E600000F02EBC70470000100600200348006808
:100E7000002801D000F024BC7047000010060020BC
:100E800003484068002801D000F01ABC70470000F9
:100E90001006002003488068002801D000F010BC34
:100EA00070470000100600200348C068002801D0E9
:100EB00000F006BC704700001006002003480069DF
:100EC000002801D000F0FCBB704700001006002095
:100ED00003484069002801D000F0F2BB70470000D1
:100EE0001006002003488069002801D000F0E8BB0C
:100EF00070470000100600200348C069002801D098
:100F000000F0DEBB70470000100600200348C069F7
:100F1000002801D000F0D4BB70470000100600206C
:100F2000C94301827047808E7047008F7047808F61
:100F30007047B0F840007047808C70470246002030
:100F4000138A0B4092890A40002B02D0002A00D05D
:100F500001207047028C22F002020A43028470478B
:100F6000028C22F020024FF6FF7303EA01111143B5
:100F700001847047028C22F400724FF6FF7303EA7B
:100F80000121114301847047028C22F400524FF674
:100F9000FF7303EA01311143018470470348C068BD
:100FA000002801D000F0EEBD70470000BC05002015
:100FB00003480069002801D000F0E4BD704700003C
:100FC000BC05002003480068002801D000F0DABD0D
:100FD00070470000BC05002003484068002801D08D
:100FE00000F0D0BD70470000BC05002003488068B9
:100FF000002801D000F0C6BD70470000BC050020ED
:101000008A05C9430180704740F66A120A0A012125
:101010009140C94301807047002904D0818941F47F
:10102000005181817047818921F40051818170478D
:10103000002A03D0828A0A4382827047828A8A43C6
:10104000828270470246002012880A4200D00120A6
:10105000704770B5002440F66A12C1F3421301F0E4
:101060001F05012606FA05F2012B0CD0022B0DD02C
:10107000838A1340090A8E40008830400BB100B1CA
:101080000124204670BD83891340F3E7038A13408F
:10109000F0E710B540F66A13C1F3421301F01F04E4
:1010A0000121A140012B07D0022B07D014303AB107
:1010B00002680A43026010BD0C30F8E71030F6E712
:1010C00002688A43026010BD30B585B004460D4603
:1010D000208A4CF6FF710840E98801432182A089EB
:1010E0004EF6F3110840A9882A8911436A89024300
:1010F0001143A181A08A4FF6FF410840A98901430D
:10110000A1826846FFF7CCFD1D48844201D10398B7
:1011100000E00298A189090408D500EBC00101EBA9
:10112000001029684900B0FBF1F007E000EBC001B6
:1011300001EB001029688900B0FBF1F06422B0FBDC
:10114000F2F109010B096FF018056B4300EB830006
:10115000A3891D044FF0320307D503EBC000B0FB99
:10116000F2F000F00700084306E003EB0010B0FBCC
:10117000F2F000F00F000843208105B030BD000000
:10118000003801408088C0F308007047FEE77047D0
:1011900070B5044615460020E08020816081A08162
:1011A000002B02D0012B08D105E02846FFF732F8CA
:1011B0002060A58001E02160A5802068002800D083
:1011C000012070BD30B50346184600F01EF890426D
:1011D00003D2184600F019F8024600200EE01D89DF
:1011E0001C68645D0C541C89641CA4B21C819D881D
:1011F000AC4201D3641B1C81401C80B29042EED3F0
:10120000D888801AD880104630BDC088704770B525
:1012100003461846FFF7F9FF9C88201A85B29542CD
:1012200001D3154601E0501B988100200EE05E8935
:101230001C680A5CA2555A89521C94B25C819A8837
:10124000944201D3A21A5A81401C80B2A842EED324
:10125000D8882844D880284670BD10B50446206838
:10126000FFF7B2FB201D00F012F820B1E06810B1CA
:10127000BDE810400047201D00F009F8002805D106
:101280002069002802D0BDE81040004710BD8188C9
:101290000068FFF731BC0000F8B50446DDE90675CB
:1012A0001E46216001239340A380A571194A9142F3
:1012B00001D104201CE0184A914201D1082017E016
:1012C000164A914201D1102012E0154A914201D1F3
:1012D00020200DE0134A914201D1402008E0124A3B
:1012E000914201D1802003E0104A914200D188153B
:1012F0000DB140F001000121FFF7C4FC8DF8027030
:101300008DF80360A088ADF8000069462068FFF7FB
:1013100071FBF8BD00080140000C014000100140C5
:101320000014014000180140001C01400020014051
:1013300010B502780A70827B8A73D0E90423C1E970
:101340000423427B4A73027B0A7382688A6000220C
:1013500083188C185B786370521C052AF8DB10BD6B
:10136000F0B504460F461646B4F85802B04201D212
:101370000020F0BD002519E005EB450007EBC0019A
:10138000B4F85E0200EB400004EBC000FFF7D0FFB2
:10139000B4F85E02401C80B2A4F85E02B4F85A327F
:1013A000984202D3C01AA4F85E026D1CB542E3DB7A
:1013B000B4F85802801BA4F858020120F0BD01685F
:1013C0000A8842F400420A8001680A8822F4004236
:1013D0000A80092180F824107047000070B5044687
:1013E000002594F8A802401CC0B284F8A802502836
:1013F0000ED9092084F824002068018841F40041B6
:1014000001802068018821F40041018084F8A852FD
:101410002068FFF7C5FB594A0726811A90424FD032
:1014200016DC6FF4403140182CD001287DD1042007
:1014300084F8240094F89502012876D800212068C9
:10144000FFF78AFB2068BDE870400121FFF79CBBD5
:10145000A1F58021423923D0022966D194F8A00257
:1014600094F8941288425FD2052184F82410411C1C
:10147000204484F8A01290F889122068BDE87040DA
:10148000FFF7A1BB022084F8240084F8A05294F84E
:10149000A12294F888122068BDE87040FFF78ABB4B
:1014A000032084F8240094F8A002411C204484F80E
:1014B000A01290F889122068BDE87040FFF783BB46
:1014C000062084F824002068FFF771FB024694F898
:1014D000A002411C84F8A012D4F890120A5494F887
:1014E000950294F8A012421A012A13D0884243D1DF
:1014F00084F8246084F8A85294F8960228B1002059
:1015000000F06CF804F5267203C22046BDE8704076
:1015100000F036B800212068FFF71EFB2068BDE808
:1015200070400121FFF730BB00E025E094F8950200
:1015300060B1012084F8240084F8A05284F8A1024C
:101540002068BDE870400121FFF712BB84F82460D9
:1015500001212068FFF718FB84F8A85294F896023E
:1015600028B1002000F03AF804F5267203C22046A4
:10157000BDE8704000F004B870BD000040000300FA
:1015800010B5044694F82400082801D0072822D179
:10159000012204F5227104F12800FFF7E1FEB8B141
:1015A000012184F82410002084F8A00294F89422E9
:1015B00012B184F8A10201E084F8A112012120688F
:1015C000FFF7CAFA01212068FFF7D2FA012010BD07
:1015D000082084F82400002010BD00002DE9FF4100
:1015E000002804D00020014604B0BDE8F081154871
:1015F000446800231D464FF0E0218869CDE90203CD
:101600004A69521CDDE90210511A63EB00074FF4DE
:101610007A76A1FB060807FB06869C4601FB0C6157
:10162000FEF727FE4FF47A72A4FB026705FB0272F5
:10163000002304FB032280195141CDE90001DDE9BB
:101640000001D1E73400002010B54FF44070FFF7DF
:10165000F1FA1548006800F0E0FE0022134B00F09C
:1016600057FD00F0ADFEB0F1807F0CD220F07F413D
:101670004FF0E020491E41610D4AF0211170002118
:101680008161072101610B48FFF70AFB09480068E7
:1016900000F0C3FE0022084B00F03AFD00F090FE7F
:1016A0000649086010BD00001400002000408F4073
:1016B00023ED00E0A805002080842E4134000020A6
:1016C00010B504466079012823D0032831D00428BE
:1016D00034D0062832D002212068FFF721FC0421F3
:1016E0002068FFF71DFC08212068FFF719FC102176
:1016F0002068FFF715FC40212068FFF711FC8021CE
:101700002068FFF70DFC2068BDE810400121FFF7BD
:1017100007BC01212068FFF711FC002813D001212C
:101720002068FFF7FDFB206E00280CD0BDE81040BC
:1017300000472046BDE8104000F02EB82046BDE826
:10174000104000F001B810BD10B50446012120681A
:10175000FFF7F4FB002813D001212068FFF7E0FB1E
:101760002068FFF7E9FB47F23051884209D2D4E9FB
:1017700010014EF66022821841F10000C4E91020E9
:1017800010BDD4E910020349411842F1FF30C4E909
:10179000101010BDA015FFFF2DE9F04104460221F5
:1017A0002068FFF7CBFB4B4FBD1D2E1FE8B1206813
:1017B000FFF7B9FB3880317829B1288002212068F1
:1017C000FFF7C8FB0DE02988814202D8401A206546
:1017D00003E02289511A0844206500212068FFF7A0
:1017E000B9FB307890B10020307004212068FFF7F9
:1017F000A5FBF8B12068FFF798FB3880717839B104
:10180000688002212068FFF7ABFB0FE00120EBE7C7
:101810006988814202D8401A606503E02289511A22
:101820000844606500212068FFF79AFB707890B14A
:101830000020707008212068FFF780FBF8B1206855
:10184000FFF775FB3880B17839B1A8800221206894
:10185000FFF790FB0FE00120EBE7A988814202D857
:10186000401AA06503E02289511A0844A0650021AE
:101870002068FFF77FFBB07898B10020B07010218E
:101880002068FFF75BFB00281FD02068FFF751FBA3
:101890003880F17839B1E88002212068FFF774FBC5
:1018A0000FE00120EAE7E988814202D8401AE065AA
:1018B00003E02289511A0844E06500212068FFF7FF
:1018C00063FBF07818B10020F070BDE8F0810120D2
:1018D000FAE70000440000202DE9FF4FAFB00446B6
:1018E000DDE93C850E461F4600234FF400794A4649
:1018F000194604F12400FFF74BFC00287DD000239B
:101900004A46194604F13400FFF742FC002874D01F
:10191000062E04D8B8F1000F01D0012000E000200D
:1019200084F84400062E02D80DB1012000E000200A
:1019300084F84600142290492AA8FEF711FD2AA82F
:10194000751E50F825002060267138008A4F4FF030
:10195000030B04F1140904F11C0A4FF00108A7F16C
:1019600008077DD0032E46D8142119A8FEF72AFDBA
:10197000D7E91812F86D16AB07C3D7E91C13D7E9DE
:101980001A20CDE91413CDE9122014210DA8FEF779
:1019900019FDD7E91F12B86F0AAB07C307F1800022
:1019A000011D91E80E10CDE90612CDE9083CD0E901
:1019B0000512C069CDE903120590CDE900B812A85F
:1019C000182330F8152016A850F825104846FFF7C0
:1019D00063FCCDE900B806A8042330F815200AA856
:1019E00050F825105046FFF757FC03A8012150F886
:1019F0002500FFF753F803CF00E0B9E0CDE9280157
:101A000028A8304410F8010C8DF89C0007208DF8B0
:101A10009D0000278DF89E708DF89F8027A8FFF706
:101A2000D7F894F8440058B154A000681D901DA840
:101A3000304410F8010C8DF89C0027A8FFF7C8F877
:101A400014224D49983122A8FEF78AFC22A8012EC3
:101A500060D050F825000121FFF706F9319800E029
:101A600028E01E903F98ADF87C004098ADF87E00CD
:101A70003E98ADF88000ADF884700C20ADF882007F
:101A80001EA92068FFF720FB01212068FFF7C4FA98
:101A900094F8460040F2244640F22557C8B300228D
:101AA00039462068FFF7F5FA012231462068FFF732
:101AB000F0FA39E014223049143119A8FEF750FC2D
:101AC000D7E90D12386B16AB07C314222A493431FB
:101AD00011A8FEF745FCD7E91512386D0EAB07C308
:101AE000CDE900B816A8182330F8152019A850F829
:101AF00025104846FFF7D0FBCDE900B80EA8042317
:101B000030F8152011A850F825105046FFF7C4FBF7
:101B100071E704E001212298FFF7B4F89EE7012263
:101B200039462068FFF7B5FA94F8440028B100223E
:101B300040F226612068FFF7ACFA40212068FFF7E9
:101B40005FFA39462068FFF75BFA31462068FFF7F5
:101B500057FA94F8460010B1204600F0DBF894F8EC
:101B6000440010B1204600F047F9054840F82540F0
:101B700033B0BDE8F08F0000F02400080E110C3BDC
:101B8000BC050020F8B5044608212068FFF75AFA82
:101B900010B12068FFF7F6FA94F8460004F1340516
:101BA000E0B340F224412068FFF753FA40B34034D9
:101BB00054F8400C01888088E06FFEF78DFDA06F1F
:101BC000FEF77EFD0021606FFEF792FD606F403CE6
:101BD0004068C0F5967082B2501EB0F5957F04D86B
:101BE0002846D4F8B010FFF712FB4FF49671D4F8E2
:101BF000B400FEF740FE0121D4F8B400FEF778FDF2
:101C000094F84400002835D140F227752946206811
:101C1000FFF71FFA40F22666E8B916E0FFE740F248
:101C2000255631462068FFF714FA0028E8D03146DF
:101C30002068FFF7E9F92068FFF7A4FA0090012275
:101C400069462846FFF7E3FADAE731462068FFF7EE
:101C500000FA00280ED004F124000746FFF7D5FA59
:101C600048B1012269463846FFF7ACFA21689DF871
:101C700000008880F8BD002229462068FFF709FA95
:101C8000002231462068FFF704FA002084F845005E
:101C9000F8BD70B5044694F84400002839D0E06FD0
:101CA000FEF7B0FD012834D1D4F88000FEF714FD12
:101CB000E06FFEF705FD0021A06FFEF719FD04F1AE
:101CC00024000546FFF7A1FA00B32846FFF79DFA66
:101CD0004FF4967290420DD82846FFF796FAA16FFE
:101CE00048602846FFF791FA02462846616FFFF7E1
:101CF00069FA05E0A06F42602846616FFFF762FA5B
:101D0000A06FBDE870400121FEF7F2BC002084F80E
:101D1000450070BD70B598B0044600251495159522
:101D200016951795334800F164014EC9CDE910129C
:101D3000CDE912360C950D950E950F95D0E91E2321
:101D4000416F08AED0F880000EC60B900495059543
:101D50000695079527488030011D00690EC98DE85A
:101D60000E0003902079042804D201210846FEF7D2
:101D70006DFF03E001210220FEF768FF4FF4967625
:101D80003046FEF747FA4034206714F83C0C10A99F
:101D9000401E51F82010616708AA52F82020A2675F
:101DA0005DF82000E0670846FEF7B0FC54F8400CF0
:101DB000001D6064206FA064E56426656565802071
:101DC000A065E565256665664001A066E566606F0D
:101DD000403C04F18401FEF731FD012240212068DE
:101DE000FFF726F9D4F8B40018B00121BDE870401F
:101DF000FEF77EBC6825000830B58DB00446324839
:101E000000F134012EC9CDE90B35CDE9091200F1FD
:101E100044012EC9CDE90735CDE90512D0E91623D5
:101E2000416D01AD006E0EC504902079042804D2E6
:101E300001210846FEF70AFF03E001210220FEF718
:101E400005FF4FF49670FEF7E5F96067207909A960
:101E5000401E51F82010A16705AA52F82020E26721
:101E600001AA52F82000C4F880000846FEF74EFC94
:101E70002068001DA064606FE064102020650020D1
:101E80006065A0658021E16520666066A066E06609
:101E9000206704F14801A06FFEF7D0FC0122022167
:101EA000A06FFEF7C1FC01220821A06FFEF7BCFC69
:101EB000012280212068FFF7BBF8A06F0DB0002140
:101EC000BDE83040FEF714BC6825000886B000204D
:101ED000FFF7BAFB00240120CDE901040146009080
:101EE000039423464FF4E13204940748FFF7F4FCCF
:101EF00000F0A0F864230022044905A0009400F03B
:101F00000BF800F06FF8FCE7300600208F11000896
:101F100064656275670000002DE9F0430746DDF84F
:101F20001C90DFF8708098F800C0BCF11E0F2ED214
:101F300069B367B30020184C00EB400505EBC00502
:101F400004EB85052D691DB1401CC0B21E28F3D3DA
:101F5000002500EB400606EBC00604EB86047E5D20
:101F600066551EB16D1CEDB2102DF8D30025E5733A
:101F700021616261E36103EB0901A1612562656290
:101F8000A5620CF1010C88F800C0BDE8F0831E20AA
:101F9000FBE70000280000208000002010B51E286C
:101FA00001D3002010BD00210C4B00EB400404EBDA
:101FB000C000002203EB80004254491CC9B2102922
:101FC000FAD302614261C26182610262426282624C
:101FD00003490878401E0870012010BD80000020D1
:101FE0002800002070B50024104E04EB440000EBE4
:101FF000C40006EB8005A86A50B1D5E904108847F3
:10200000204600F04BF8E86910B92046FFF7C6FFFC
:10201000641CE4B21E2CE8D304492C3948690969D0
:102020008847BDE8704000F04DB8000080000020F7
:102030007047000010B50022164C0023002102EB6F
:10204000420000EBC20004EB80004354491CC9B2BB
:102050001029FAD3036143618361C3610362436260
:102060008362521CD2B21E2AE8D30A4869212C3856
:102070000170642141706C2181706521C170037110
:102080000549016143618361C36103624362836205
:1020900010BD00008000002031200008074A002108
:1020A0005160916000EB400101EBC001044800EB7E
:1020B0008100816A491E816270470000280000206B
:1020C00080000020024900204860886070470000BE
:1020D0002800002000210D4B01EB410000EBC10066
:1020E00003EB800002691AB1826932B1521E82612B
:1020F000491CC9B21E29EFD37047826A521C826202
:10210000C269002AF4D0521E8261F1E780000020EB
:102110002DE9C04130B4DFF8A0C23CEA111418BF69
:102120003CEA131400F0EC8081EA03051CEA111468
:1021300044EAD57418BF1CEA131500F0C780A4EB5D
:1021400005044FF0004545EAC12145EAC32341EAB1
:10215000505143EA525304F17F74994204F500341C
:102160004FEAC0204FEAC22208BF904200F09C8094
:102170004FEA13650FF24016765D4FEA134506FBF2
:1021800005F7C7F1807706FB07F74FEAD737A7FBBC
:1021900003687642C8F58038A7FB06CE38BFA8F1A1
:1021A000010807FB08E64FF0000EA6FB028CE6FBD9
:1021B00003CEDCF1000CCEF1004E38BFAEF1010EC3
:1021C000A6FB0C584FF000074FF00005E6FB0E870A
:1021D000A1FB08C6A0FB07CE16EB0E0645F10005D5
:1021E000E1FB076515F1E04E7EBFA4F580345FEAA0
:1021F00046066D4116F1800745F100054FEA1727A5
:102200004FEA066647EA0567A6F1DE46B6F1805F4B
:102210004FEA15251FD9384624F0010C05EBC4718F
:10222000BCF1FE6F01EB0C1102D8F0BCBDE80081DF
:1022300024425CBF01F5801E9EEAC47F02D4F0BC3C
:10224000BDE80081244238D4F0BCA1F1C041BDE812
:10225000004100F043B94FEAD22242EA43524FEA2A
:10226000D323A7FB02864FEAD02040EA415007FB68
:1022700003661EEA0E0F4FEAD12105FB026658BF26
:10228000A6EB0056B6EB00564FEA520E4EEAC37E5E
:1022900018EB0E0E56EB530EBDD518EB02085E413F
:1022A0007F1C55F10005B6E74FF480154FF000078D
:1022B0004FF000064FF00008ADE7F0BC4FF0000013
:1022C00001F1C04101F00041BDE8008111EA0C1F9D
:1022D0000CEA131500D00CE013EA0C1F00F0258067
:1022E0004FF00000F0BC81EA030101F00041BDE8BD
:1022F0000081F0BCBDE8004181EA030100F0EEB8C6
:10230000F0BCBDE8004170B500F09AF8097EFC3ED3
:1023100000F007B881EA03014FF0000001F000412E
:10232000704781EA030100F0D9B8F0BCBDE8004174
:102330004FF0000021497047FFFDFBF9F7F5F4F27B
:10234000F0EEEDEBE9E8E6E4E3E1E0DEDDDBDAD850
:10235000D7D5D4D3D1D0CFCDCCCBCAC8C7C6C5C4AE
:10236000C2C1C0BFBEBDBCBBBAB9B8B7B6B5B4B3C5
:10237000B2B1B0AFAEADACABAAA9A8A8A7A6A5A4B0
:10238000A3A3A2A1A09F9F9E9D9C9C9B9A99999874
:102390009797969595949393929191908F8F8E8E17
:1023A0008D8C8C8B8B8A89898888878786858584A4
:1023B00084838382828181800000FF070000F87F90
:1023C0004FEA1153A3F58063D3F11E03A8BFD3F1E5
:1023D000200C08DB4FF0004242EAC12252EA505280
:1023E00032FA03F0704709420BD4102BC4BF00200F
:1023F000704703F5787CBCF1FF3F05D04FF0FF300C
:1024000070474FF00000704770B500F019F800BF3A
:102410004992248000207047F0E7B0FA80F310FA68
:1024200003F10AD0C3F11D0303F580634FEA415065
:102430004FEA035202EBD12170474FF00000704782
:102440000EF1020E2EF0030E5EF8046B364205D438
:10245000012A43EB030515F5001F12D8012841EBB3
:10246000010C1CF5001F0CD80ED14FEAD17C15F5DC
:10247000001F0CEB4C0C0CF1020C08BF4CEBD37C96
:1024800004E04FF0080C01E04FEAD37C0CEB4C0564
:1024900026FA05F606F00706B6F1040C06D20EEB96
:1024A000860CBDE870404CF0010C6047DFE80CF092
:1024B000090B02024FF000414FF00000A1F500218E
:1024C00070BD19461046012851EB010418BFD4F520
:1024D000001484BF002001F0004170BD0808A0F581
:1024E00000114FEA310170472526273435000000DE
:1024F000003801400044004000480040004C0040CB
:10250000005000400008014000080140000C01405C
:102510000010014000100140090002000A000A00FA
:102520000C0000000008014000080140000C0140C0
:1025300000100140001401400A0003000B000B00D2
:1025400002000000000C0140001401400014014092
:102550000600050008000000000000000000000068
:10256000000C014000140140001401400700060067
:10257000090000000000000000000000040000004E
:1025800008000000300014000040000000000200BD
:102590000000040000000800000010004400024099
:1025A000800002401C00024058040240002000004D
:1025B00000000002200000000000021000100000D7
:1025C000000000011000000000000110580002404F
:1025D0006C00024030000240300402400000020063
:1025E00000002000000200000002001000000100B6
:1025F0000000100000010000000100101C2600086F
:1026000000000020540000006C0100087026000843
:1026100054000020FC0C0000880100080204060899
:102620000000000001020304010203040607080978
:10263000007E5603000000000000000001020304B9
:10264000060708090000000000000000000000006C
:10265000000000000000000000000000000000007A
:102660000000010101010000000000000000000066
:0400000508000131BD
:00000001FF
