:020000040800F2
:10000000307F0020210400086939000851390008B8
:100010006139000839180008D94A000800000000BA
:10002000000000000000000000000000370400088D
:1000300039040008000000003B040008C13B000830
:100040003F0400083F0400083F0400083F04000884
:100050003F0400083F0400083F0400083F04000874
:100060003F0400083F0400083F0400083F04000864
:100070003F0400083F0400083F0400083F04000854
:100080003F0400083F0400083F0400083F04000844
:100090003F0400083F0400083F0400083F04000834
:1000A0003F0400083F0400083F0400083F04000824
:1000B0003F0400083F0400083F0400083F04000814
:1000C0003F0400083F0400083F0400083F04000804
:1000D0003F0400083F0400083F0400083F040008F4
:1000E0003F0400083F040008000000003F0400082F
:1000F0003F0400083F0400083F0400083F040008D4
:100100003F0400083F0400083F0400083F040008C3
:100110003F0400083F0400083F0400083F040008B3
:100120003F0400083F0400083F0400083F040008A3
:100130003F0400083F0400083F0400083F04000893
:1001400000000000000000000000000000000000AF
:100150003F0400083F0400083F0400083F04000873
:100160003F0400083F0400083F0400083F04000863
:100170003F0400083F0400083F040008000000009E
:100180003F0400083F0400083F0400083F04000843
:100190003F0400083F0400083F0400083F04000833
:1001A0003F0400083F0400083F0400083F04000823
:1001B0003F0400083F0400083F0400083F04000813
:1001C0003F0400083F0400083F0400083F04000803
:1001D0003F040008713900083F0400083F0400088C
:1001E0003F0400083F0400083F0400083F040008E3
:1001F0003F0400083F0400083F0400083F040008D3
:100200003F0400083F0400083F0400083F040008C2
:100210003F0400083F0400083F0400083F040008B2
:100220003F0400083F0400083F04000800000000ED
:100230003F0400083F040008000000003F040008DD
:100240003F0400083F0400083F0400083F04000882
:100250003F0400083F0400083F0400083F04000872
:100260003F0400083F0400083F0400083F04000862
:100270003F0400083F0400083F040008000000009D
:100280003F0400083F0400083F040008000000008D
:10029000000000003F04000800F002F800F0B0F891
:1002A0000AA090E8000C82448344AAF10107DA45D1
:1002B00001D100F0A5F8AFF2090EBAE80F0013F073
:1002C000010F18BFFB1A43F001031847A882000072
:1002D000D88200000A4410F8014B14F00F0508BF43
:1002E00010F8015B240908BF10F8014B6D1E05D002
:1002F00010F8013B6D1E01F8013BF9D1641E03D0DB
:10030000641E01F8015BFBD19142E4D37047000009
:10031000103A24BF78C878C1FAD8520724BF30C831
:1003200030C144BF04680C60704700000023002403
:1003300000250026103A28BF78C1FBD8520728BFF5
:1003400030C148BF0B6070476E2900F0578270299A
:1003500000F09B83662907F0E885652907F0E585AD
:10036000672907F0E285612907F0E18503681B0A28
:1003700028BF41F08001692900F00482642900F05F
:100380000182752900F0FE816F2900F02983782908
:1003900000F06783E92900F0C382E42900F0C082FD
:1003A000F52900F0BD82EF2900F02683F82900F03E
:1003B00066830368DB0928BF41F08001632901F0EF
:1003C000BB80732901F0C080E32901F0CB80F329C1
:1003D00001F0D080002070471FB507F099FD01F0B3
:1003E0001FF904000020002107F07CFD401C606024
:1003F0000020002107F060FDE0601FBD10B510BDBA
:1004000001F0E0F81146FFF7E7FF05F031FA01F0DF
:10041000BDF903B4FFF7F2FF03BC01F003FA0000DB
:100420000A4880470A4880470A480047FEE7FEE737
:10043000FEE7FEE7FEE7FEE7FEE7FEE7FEE7FEE794
:1004400005480649064A074B70470000C93B0008AB
:10045000593900089902000830190020307F002027
:10046000305B0020305B002053EA020C00F0698012
:100470002DE9F04B4FF00006002B1FBFB3FA83F5B8
:1004800003FA05F424FA05F65E4012BF1643B2FAE9
:1004900082F502FA05F4C5F120051EBF22FA05FC1B
:1004A00044EA0C04203556EA044C4FEA144418BFC1
:1004B000641C4FF000084FF00009904271EB030CF0
:1004C00039D3002919BFB1FA81F701FA07F6B0FA5A
:1004D00080F700FA07F6C7F120071EBF20FA07FCD5
:1004E00046EA0C062037B6FBF4FCA7EB0507103FE5
:1004F00007F01F0BCBF120062CFA06F60CFA0BFBCB
:1005000044BFB3460026202FA4BF5E464FF0000B29
:100510005BEA060C08BF4FF0010B19EB0B0948EB27
:100520000608ABFB027C06FB02CC0BFB03CCC01B1A
:1005300071EB0C01C1E70B46024641464846BDE857
:10054000F08B13B5084318BF4FF0FF300146AFF3EF
:100550000080BDE81C4070477CB51D4616460C0067
:10056000009007D04142A14202D32044401E01E046
:100570004FF0FF30064B7B442A46694601903046D7
:1005800000F055F9002C02D0009A002111707CBDBA
:10059000DB02000010B5431C02E010F8011B71B132
:1005A0008107FAD14FF0013202C88C1A8C4314EA49
:1005B000C211F9D0C01A0A0603D0C01E10BDC01A5D
:1005C00010BD0A0401D0801E10BD0902FCD0401EDF
:1005D00010BD032A40F2308010F0030C00F01580AB
:1005E00011F8013BBCF1020F624498BF11F801CB36
:1005F00000F8013B38BF11F8013BA2F1040298BF9B
:1006000000F801CB38BF00F8013B11F0030300F004
:100610000B83083AC0F0088051F8043B083A51F8BF
:1006200004CBA0E80810F5E7121D5CBF51F8043BAD
:1006300040F8043BAFF30080D20724BF11F8013B20
:1006400011F801CB48BF11F8012B24BF00F8013B82
:1006500000F801CB48BF00F8012B704702F0FF0300
:1006600043EA032242EA024200F012BB4FF00002CA
:1006700000B5134694469646203922BFA0E80C5098
:10068000A0E80C50B1F12001BFF4F7AF090728BF73
:10069000A0E80C5048BF0CC05DF804EB890028BFEF
:1006A00040F8042B08BF704748BF20F8022B11F018
:1006B000804F18BF00F8012B704770477047704794
:1006C00070B5044685690068C10601D5302600E092
:1006D0002026C00707D070BDD4E9012130469047DD
:1006E000206A401C20626D1EF6D570BD70B50446B0
:1006F00085690078C00707D170BDD4E901212020A9
:100700009047206A401C20626D1EF6D570BD0968B6
:100710004A0501D540B27047C905FCD500B2704703
:1007200009684A0501D5C0B27047C905FCD580B239
:10073000704770B50C460546012A05D0287880061A
:1007400000D5EA69002302E0012305E05B1C934227
:1007500002D2E05C0028F9D1A869E618C01AA861A5
:10076000286A184428622846FFF7AAFF04E0D5E962
:10077000012114F8010B9047B442F8D32846FFF743
:10078000B5FF70BD2DE9F0410646002410687529BB
:10079000314616A510D0FFF7BAFF002802DA404212
:1007A00013A507E031688A0701D512A502E04907C1
:1007B00004D511A5012401E0FFF7B2FF00210A22B0
:1007C00006F1240709E0B0FBF2FCB0FBF2F302FBF8
:1007D0001C00303078541846491C0028F3D12346B9
:1007E0002A463046BDE8F04100F0B7BA00000000EC
:1007F0002D0000002B00000020000000116802689E
:10080000006A530501D508700AE0D30501D50880B8
:1008100006E0130603D5C217C1E9000200E0086034
:100820000120704701694A1C02610878704700B5D1
:100830008FB0CDE901310021059105497944CDE919
:1008400003101146684600F02BF90FB000BD000000
:10085000E5FFFFFFD1E900239A4202D2531C0B604F
:10086000107070472DE9FF5F15468A460446DFF891
:10087000AC80F8440027D8E900103E46CDE90010CE
:1008800010E03AF816106A4602A800F077FE411C04
:1008900007D02178890603D5E269391891420DD82D
:1008A0000744761C2078800602D5E069B84205DD51
:1008B000AE42E6DB3AF816000028E2D1A069C01B80
:1008C000A0612046FFF7FCFED8E90010CDE900103A
:1008D000002017E03AF818106A4602A800F04EFE11
:1008E000B0F1FF3F81460BD000250DF1080B05E06C
:1008F000D4E901211BF8050090476D1C4D45F7D345
:1009000008F10100B0428046E4DB206A38442062EE
:100910002046FFF7EBFEBDE8FF9F0000BE7600001B
:100920002DE9F0418046D21D22F007020025D2E9D0
:100930000002F52915A614D0011E72F1000106DA95
:100940000023D0EB030063EB020211A608E0D8F805
:1009500000108B0701D50FA602E0490701D50EA6AE
:1009600001251146002408F1240704E000F0B0F945
:1009700030323A55641C50EA0102F7D12B46324618
:1009800021464046BDE8F04100F0E7B90000000014
:100990002D0000002B0000002000000030B40021DA
:1009A00000F1240408E002F00705D208303542EADD
:1009B0004372DB086554491C52EA0305F3D104680D
:1009C000002310A2250708D504F020040C4304D00E
:1009D000C46901230CA2641EC46130BC00F0BDB91F
:1009E00010B5044621461068FFF79AFE02462046DD
:1009F000BDE810400023D1E7D21D22F00701D1E964
:100A00000023CBE70000000030000000F0B40D46EA
:100A10000188090502D5214C7C4402E01F4C7C442E
:100A20000E34002100F1240608E002F00F0712093D
:100A3000E75D42EA03721B097754491C52EA030737
:100A4000F3D102780023120704D5702D06D009B126
:100A5000022311342246F0BC00F07FB90123103488
:100A6000F8E770B504460D4621461068FFF758FEBA
:100A7000024629462046BDE870400023C6E7D21D45
:100A800022F00703D3E90023C0E70368126843F0AC
:100A9000200303600823C3610023B7E7207500002B
:100AA0002DE9F05F894604464FF0000ADFF874B183
:100AB000FB44C0F820A02046E1688847002874D095
:100AC000252806D0D4E901219047206A401C2062E5
:100AD000F1E700265F462046E16888472028054662
:100AE00007DB312D05D2781910F8200C08B1064328
:100AF000F1E7B00701D526F00406C4F81CA00027D2
:100B0000C4F818A02A2D09D0284607F0CDF938B32B
:100B100004EB8708303DC8F8185019E059F8041B59
:100B2000204604EB87029161E1688847012F054662
:100B300018D1E069002820DA26F020061DE0D8F858
:100B4000180000EB800005EB40003038C8F81800B2
:100B50002046E1688847054607F0A6F90028EED14F
:100B6000012F0AD02E2D08D12046E16888477F1C2E
:100B70000546022F46F02006C4DBA069002803DAF0
:100B8000404246F00106A061F00701D026F01006B1
:100B90006C2D0BD0682D09D04C2D39D06A2D35D055
:100BA000742D35D07A2D33D016E038E0E1682F4629
:100BB00020468847B842054609D16C2F26D04FF40D
:100BC0008060E168064320468847054604E06C2FB4
:100BD0001AD04FF4807006430DB3A5F141001928D7
:100BE00002D8203546F400664A462946204626604B
:100BF0004E46FFF7A9FB80B101280BD0F61D26F069
:100C0000070000F1080956E74020E4E78020D8E714
:100C10000020D6E706F104094DE7284652E7206A8E
:100C2000BDE8F09FB074000010B5203AC0F00B8012
:100C3000B1E81850A0E81850B1E81850A0E81850D2
:100C4000203ABFF4F5AF5FEA027C24BFB1E8185048
:100C5000A0E8185044BF18C918C0BDE810405FEAAA
:100C6000827C24BF51F8043B40F8043B08BF704726
:100C7000D20728BF31F8023B48BF11F8012B28BF2B
:100C800020F8023B48BF00F8012B70474FF00002EC
:100C90000429C0F0128010F0030C3FF4E9ACCCF151
:100CA000040CBCF1020F18BF00F8012BA8BF20F8FC
:100CB000022BA1EB0C01FFF7DBBC5FEAC17C24BF78
:100CC00000F8012B00F8012B48BF00F8012B7047FA
:100CD00030B5B0F10A0271F100034FEA900E4EEA0E
:100CE000817EB0EB0E0061EB91014FEA101E4EEADF
:100CF000017E10EB0E0041EB11114FEA102E4EEA6F
:100D0000016E10EB0E0041EB11214FEA104E4EEA3E
:100D1000014E10EB0E0041EB1141401841F1000172
:100D20004FEAD00040EA41704FEAD1014FEA810416
:100D300044EA907410EB800544EB01046D1944EB18
:100D40000404521BA3414FF0000348BF0A3200D5F0
:100D500030BD401C41F1000130BD2DE9F0470D468A
:100D600099469246044600F124080168880604D595
:100D7000E06921F01001216000E00120A84201DDBE
:100D8000471B00E00027A1697A1902EB0900081A45
:100D9000A0612078C00602D42046FFF791FC00260F
:100DA00008E0D4E901211AF806009047206A401CA7
:100DB000761C20624E45F4DB2078C0060AD520461A
:100DC000FFF77EFC06E0D4E9012130209047206A3D
:100DD000401C2062381EA7F10107F4DC07E0D4E9CB
:100DE000012118F805009047206A401C2062281E47
:100DF000A5F10105F3DC2046FFF778FC207800061A
:100E000002D50220BDE8F0870120FBE72DE9FF4F66
:100E10000C461E464FF0FF378BB0D2E90001DDF8DB
:100E200060800A908A46C1F30A5505B93D46002103
:100E300008464FF00000BAF1000F00F4400005DA58
:100E400000EB80004FF4400101EA50004FEA905956
:100E5000B9F1010F00DDB9460A9850EA4A000ED0F8
:100E600044F61050A5F2FF3545432F14B8F1000F9A
:100E70001ED07542291E1EDDC9F100021CE0B8F12A
:100E8000010F4FF0000001D0302103E0F24305E0F4
:100E90002154401CB042FBDB30460022002121548B
:100EA0000B99C1F80880C1E900200FB0BDE8F08FB0
:100EB000BD1B6D1CDEE74A4600DA694206A800F059
:100EC000F3FB06AB93E8070003AB83E8070050464B
:100ED0000A9906F008FC8DE80700A0F500501F38BD
:100EE00000900398002D0ADD42F21F014A46084493
:100EF000002303A90390684606F072FE09E0A0F5FE
:100F000000504A461F38002303A90390684606F0A4
:100F10007CFE8DE807000004000C03D04FF0FF308A
:100F2000410800E01046B8F1000F03D00022009203
:100F300015461EE0751E05D4FFF7CAFE3032625515
:100F40006D1EF9D5B3460122084302D000227F1C52
:100F500004E02078302801D100227F1E002A099762
:100F600084D01DE0112D07DAFFF7B2FE3032625552
:100F70006D1C50EA0102F5D1084302D00098C8B1B7
:100F80000EE00021681E05E0235C625C635422547D
:100F9000401E491C8142F7DBAB46A81B401E09904E
:100FA000002004F80B000B98099AC0F80880C0E9EB
:100FB000002B7AE711264FF0000857E72DE9F04F94
:100FC00088460446D21D22F0070191B0D1E9000104
:100FD000CDE90A0106F050FF02460B98C00F01D080
:100FE0002D2007E02068810701D52B2002E0202179
:100FF00001EAC000032A099001D0072A05DB034655
:101000004146204600F010FB0BE12078800601D518
:10101000E06900E00620B8F1650F814606D0B8F11E
:10102000660F18D0B8F1670F70D131E00020B9F128
:10103000110F009001DB112301E009F101030AAA5D
:1010400001A90CA8FFF7E2FEDDE90C70002609F10A
:101050000105834647E001204B4600904FF00047D2
:101060000AAA01A90CA8FFF7D1FEDDE90DB00C9981
:101070005D46002610B909F101000D18B9EB050015
:1010800003D4C0F1FF3609F10105A5EB09002BE0FF
:10109000B9F1010F01DA4FF001090020B9F1110F88
:1010A0000090484601DD112300E003460AAA01A989
:1010B0000CA8FFF7ABFEDDE90C704D460026834619
:1010C000207800070AD4AB4500DA5D4601A8012D5F
:1010D00004DD411911F8011C302907D04F4502DA0F
:1010E00017F1040F04DA012082460FE06D1EEEE7CF
:1010F000002F02DCED1B3E4403E0781CA84200DD1B
:101100007D1CB81B00F1010A4FF000472078000752
:1011100003D4AA4501DB4FF0FF3A0021B7F1004F9D
:101120000DF143088DF8431024D002202B23002F0B
:1011300001DA7F422D230A21021EA0F1010000DC0A
:101140005FB197FBF1FC97FBF1F201FB1C7C1746AA
:101150000CF1300C08F801CDEEE7A8F101000370A6
:101160002188090501D5452100E06521A0F101088C
:1011700000F8011C09980FA9A1EB0807FF1D00B199
:101180000120411901EBEA70A1693844081A401E98
:10119000A0612078C00602D42046FFF791FA099892
:1011A00028B1D4E901219047206A401C20622078B0
:1011B000C00622D52046FFF783FA1EE0002E04DB8E
:1011C000B34502DD01A8805D00E03020D4E90121B3
:1011D0009047206A401C2062761CAAF101005FEA59
:1011E000000A0AD100F01CFAC0680168405CD4E92A
:1011F00001219047206A401C2062281EA5F10105AC
:10120000DCDC07E0D4E9012118F8010B9047206AE3
:10121000401C2062381EA7F10107F3DC2046FFF7CF
:1012200065FA032011B041E62DE9F04F04460D4662
:10123000D21D22F0070089B0D0E900974846394610
:1012400006F01AFE0246F80F01D02D2307E02068B1
:10125000810701D52B2302E0202101EAC0038DF88C
:1012600020300BB1012000E00020032A824601D08B
:10127000072A04DB2946204600F0D6F93FE1207812
:10128000800601D40D2500E0E569C7F30A560D2D4F
:1012900049DA00214FEA175B08464FF00000002FA3
:1012A00000F4400007DA00EB80004FF4400100EB4F
:1012B000D07001EA60008115012901DD4FF0FF3196
:1012C00000224FEA850CBCF1180F06D31346ACF18F
:1012D00018004FF08052C24003E04FF4801323FA0D
:1012E0000CF30CF10C0CBCF1200F04D3ACF1200C6E
:1012F00009FA0CF001E007FA0CF000294FF0004861
:1013000001DD18B90FE00ED140450CD319EB0209ED
:101310005F4121B9404502D19F4329EA0209BBEB55
:10132000175F00D0761C2088000502D57B487844E2
:1013300002E07A487844193808AA302302F80A30C3
:10134000037C0AF10101002E0AF1020A53546A4695
:1013500002DC4FF0300101E04FF031014FF00108A5
:101360008DF8001002D0A6F2FF3603E059EA4701DB
:1013700000D06B4E002D02DC2178090704D54FF018
:1013800002082E218DF80110C44600210BE0C7F39E
:1013900003433F01C35C491C6D1E02F80830052958
:1013A00008F1010801DA002DF1DC00210CE000EB6E
:1013B0001973491C1B786D1E082902F808304FEA82
:1013C000091908F1010801DA002DF0DC21688B060B
:1013D00002D516E0A8F10108E04505DD02EB08039F
:1013E00013F8013C302BF5D0B8F1000F09DD02EB0A
:1013F000080313F8013C2E2B03D1090701D4A8F1EF
:101400000108002D05DD3E2102F808106D1E08F1CF
:101410000108407C002E02F8080008F1010804DAF7
:101420002D20764202F8080002E02B2002F8080086
:101430000A214FF47A70864208F101080BDB96FB13
:10144000F0F3303302F8083096FBF0F308F10108AE
:1014500000FB136601E0642E0CDB642096FBF0F3C6
:10146000303302F8083096FBF0F308F1010800FB76
:10147000136601E00A2E06DB96FBF1F0303002F82D
:10148000080008F1010896FBF1F001FB1060303014
:1014900002F80800A16908F1010808EB050202EB57
:1014A0000A00081AA0612078C00602D42046FFF77F
:1014B00007F9216A08AE01EB0A00206204E0D4E9D2
:1014C000012116F8010B9047BAF1010AF7D22078F2
:1014D000C00602D52046FFF7F3F86E4609E016F87D
:1014E000010B3E280FD0D4E901219047206A401C0F
:1014F0002062B8F10108F2D22046FFF7F7F809B0F0
:101500000320BDE8F08F206A2844206203E0D4E97C
:101510000121302090476D1EEBD3F8E7566C000098
:1015200002FCFFFF10B5436913B1AFF3008001E087
:10153000FFF7FFF8012010BD127800F124010A70B6
:1015400000224A700122EDE711684FF0FF32E9E70F
:1015500010B5436913B1AFF3008001E0FFF782F9E2
:10156000012010BD128800F1240182840022C2846F
:101570000122EDE711684FF0FF32E9E72DE9F04174
:1015800016460C46054600F043F8036893F801013F
:10159000012807D0FF2C12D8185D80B101202C70D3
:1015A000BDE8F081D3F807013246214603F2071364
:1015B000C7182846BC46BDE8F041002360474FF0FD
:1015C000FF30EDE7754600F0EBF8AE4605006946E2
:1015D000534620F00700854618B020B5FEF730FFCF
:1015E000BDE820404FF000064FF000074FF0000824
:1015F0004FF0000BAC46ACE8C009ACE8C009ACE861
:10160000C009ACE8C00921F007018D467047000011
:1016100010B500F005F8001D10BD00BFC96800003E
:1016200000487047001300202DE9F0411F46044692
:1016300003260168072A01F4006004DB08B116A53F
:1016400005E016A503E008B115A500E015A521F0F9
:1016500010002060A069C01EA0610FB1401EA061F3
:101660002046FFF72DF84FB1D4E9012138469047C5
:10167000206A401C2062C01C206206E0206AFAE753
:10168000D4E9012115F8010B9047761EF8D22046C7
:10169000FFF72CF8BDE8F0814E414E006E616E0000
:1016A000494E4600696E66002DE9F04781461646B0
:1016B0008AB0354878440DC88DE80D00324878442A
:1016C000801C03AC0DC884E80D0041F69B30084433
:1016D000372190FBF1F290FBF1F5A5F1800501FBBC
:1016E00012041B3C02D56442012000E00020DFF818
:1016F00098A080460027FA44AAF1BE0A0EE0E0074F
:101700000AD03246684607EB470101230AEB810104
:1017100006F07BFA8DE8070064107F1C002CEED1E8
:10172000194F7F44AE3F19E0E80715D007EB0410CE
:101730000DF1180A90E80E008AE80E00C068F04229
:1017400001D1981908903246012306A903A806F092
:101750005CFA03AB83E807006D10641C002DE3D135
:101760004FF0010332466946B8F1000F03A802D0DA
:1017700006F036FA01E006F048FAC9E90001C9F8B6
:1017800008200AB0BDE8F0876069000010B5044683
:10179000AFF300802046BDE81040FEF73ABE0000DF
:1017A00000487047E012002030B44FF0013C50F880
:1017B000042BCCFA52F451F8043BD51A20D1FCB9D1
:1017C00050F8042BCCFA52F451F8043BD51A17D137
:1017D000B4B950F8042BCCFA52F451F8043BD51AA2
:1017E0000ED16CB950F8042BCCFA52F451F8043BEA
:1017F000D51A05D1002CDAD030BC4FF0000070476C
:1018000029BAB1FA81F111F01801D1F12000844018
:10181000F2D1CA40CB4012F0FF0213F0FF0330BCFC
:10182000D01A704701491820ABBEFEE7260002001F
:10183000704700000000000070470000000000003A
:1018400080B54EF2180140F20002CEF20001C2F261
:1018500000024DF6836351F804CC1268C4F21B33C6
:10186000A2FB03239A0C002350434FF47A7200FB2F
:1018700002FE08680A689042FCD003449042A3EB41
:101880000203104698BF63447345F3D380BD000044
:101890002DE9F04F81B042F200420A23C5F6020260
:1018A000904208BF09230029009377D000F1264217
:1018B000009B02F1FF7200274FEAB2220126092A9B
:1018C00038BF1346002200932AE000BF6FF00304E4
:1018D000032304EA5804056803FA02F9044445EABC
:1018E0000905056007F01C050F2303FA05FC256AAE
:1018F00025EA0C052562C56825EA0905C560456825
:1019000025EA0E054560856825EA0903836031FAFA
:1019100006F306F1010607F1040702F102023DD0C9
:10192000A6F10108012303FA08FE1EEA010AEED01F
:1019300040F208434FEA9809C5F6000307F00C0B84
:1019400053F829500F2303FA0BFC009B05EA0C0502
:1019500003FA0BF39D42B9D104244FF0B045C5F60C
:101960000004E36F23EA0A03E367D4F8803023EA34
:101970000A03C4F880302B6823EA0A032B6023682B
:1019800023EA0A03236040F20844C5F6000454F831
:10199000293023EA0C0344F8293097E701B0BDE869
:1019A000F08F0000000000002DE9F04F82B042F2FD
:1019B00000420A23C5F602020D68904208BF0923BF
:1019C000002D009300F0C48000F1264240F2040E86
:1019D00002F1FF72C5F6000E4FEAB223009A092BFE
:1019E0004FF0000438BF1A4600260127009209E094
:1019F0000D68043635FA07F207F1010704F1020415
:101A000000F0A680A7F10109012202FA09F315EA04
:101A10000308EDD04D68122D1BD80122AA4012F008
:101A2000061F16D00322D0F808B0A240D1F80CA0AF
:101A30002BEA020B0AFA04F242EA0B028260C5F3B7
:101A40000012D0F804A02AEA030302FA09F21A43AA
:101A500042600323C26803FA04FB8B6845F010055B
:101A600022EA0B02A340122D42EA0302C26012D105
:101A70006FF0030206F01C0502EA59020F2302442C
:101A8000AB40D2F820A0D1F810C02AEA03030CFA28
:101A900005F52B431362D0F800C04B6803F0030533
:101AA0006FEA0B02A54002EA0C02DB0042EA0502E3
:101AB00002609DD544F2F4430F25C5F602031A686F
:101AC00042F002021A601A6802F00202019229F042
:101AD000030240F20849C5F60009019B06F00C0319
:101AE00052F809C09D402CEA050C009D05FA03F34D
:101AF00043EA0C0342F80930DEF87CC04B684CEA3C
:101B00000805DA0358BF2CEA08059A034FF0B049DC
:101B1000CEF87C50DEF880C04CEA080558BF2CEAAD
:101B20000805DA02CEF88050D9F800C04CEA080562
:101B300058BF2CEA08059B02C9F80050DEF80020C7
:101B400042EA080558BF22EA0805CEF800504FE7E0
:101B500002B0BDE8F08F000041F20000C5F6004081
:101B60000068000C7047000041F62410C2F200002B
:101B7000006870470000000040F22C0041F624117C
:101B8000C2F20000C2F2000100780A681044086046
:101B9000704700000000000080B5032000F0ACF8A2
:101BA00001F05EF944F2184148F23C03C5F6020127
:101BB000C0F600030A68096801F00F01C2F30322AE
:101BC000595C9A5C01F01F0102F01F02D04040F204
:101BD0000402C2F2000220FA01F1116040F2000199
:101BE000C2F2000108600F2000F00AF800281CBFB4
:101BF000012080BD00F030F8002080BD0000000012
:101C0000B0B540F22C01C2F20001097801B30446DC
:101C100040F20000C2F200004FF47A72B2FBF1F120
:101C20000068B0FBF1F001F09BFC0F2C4FF00105B8
:101C30000CD858B94FF0FF3000222146002500F0A3
:101C40002BF840F23000C2F2000004602846B0BD1C
:101C50000120B0BD0000000081B044F2F440C5F6A0
:101C60000200016841F002010160006800F002001A
:101C70000090009801B07047002848BF70474EF2AE
:101C8000001300F01F014009CEF20003012202FA06
:101C900001F143F82010704770B54EF60C5C4FF020
:101CA000FF36CEF2000C00F16045DCF80030C3F3E3
:101CB000022E8EF00703042B28BF0423BEF1030479
:101CC00006FA03F321EA030100F00F0338BF0024F2
:101CD000043BB0F1FF3F634406FA04F003F10C0348
:101CE00001FA04F1C8BF05F5644322EA0000084385
:101CF0000001187070BD00004EF60C514FF6FF0346
:101D0000CEF200010A681A4060F30A2242F08060B5
:101D100040F0FD7008607047B0B544F60C05C5F69C
:101D2000020529684907296805D401F00701081A46
:101D300018BF0120B0BD21F0070108432860FFF75C
:101D400013FF044655F8080C800407D4FFF70CFF76
:101D5000001BB0F57A7FF5D90120B0BD0020B0BDE1
:101D600044F60C00C5F60200016841F08071016084
:101D7000704700000000000080B500F0E9FF44F269
:101D8000204148F23C02C5F60201C0F60002096893
:101D9000C1F30211515C01F01F01C84080BD000079
:101DA00080B544F2384EC5F6020E5EF8103C5EF87F
:101DB000101CC1F3053C5EF80C1CBCF1000FDEF8F2
:101DC000042014D0C1F30011C2F3CC02514300EE41
:101DD000101A03F003010229B8EE400A0CD071B9C1
:101DE0005EF8381C89060DD49FED341A18E00021E6
:101DF0008160C0E9001180BD9FED2F1A10E09FEDBA
:101E00002D1A0DE05EF8381C49F20002C0F2D03203
:101E1000C1F3C10122FA01F101EE101AB8EE411A24
:101E2000DEF800109FED263A6FF35F2102EE101AE4
:101E3000DEF80010C1F34621B8EE422A00EE032A74
:101E400000EE10CAB7EE003AB8EE400A81EE000A82
:101E500032EE031A02EE101AB8EE422A20EE010A00
:101E600032EE031A80EE011ABCEEC11A80ED001AA0
:101E7000DEF80010C1F3064101EE101AB8EE411A67
:101E800031EE031A80EE011ABCEEC11A80ED011A80
:101E9000DEF80010C1F3066101EE101AB8EE411A27
:101EA00031EE031A80EE010ABCEEC00A10EE101AE1
:101EB000816080BD0024744A20BCBE4B0024744C59
:101EC000000000390000000080B544F2404EC5F625
:101ED000020E5EF8183C5EF8181CC1F3055C5EF853
:101EE000141CBCF1000FDEF8042014D0C1F3002153
:101EF000C2F3CC02514300EE101A03F00301022991
:101F0000B8EE400A0CD071B95EF8401C89060DD4B9
:101F10009FED341A18E000218160C0E9001180BDF6
:101F20009FED2F1A10E09FED2D1A0DE05EF8401C7A
:101F300049F20002C0F2D032C1F3C10122FA01F12C
:101F400001EE101AB8EE411ADEF800109FED263AA5
:101F50006FF35F2102EE101ADEF80010C1F3462184
:101F6000B8EE422A00EE032A00EE10CAB7EE003A9D
:101F7000B8EE400A81EE000A32EE031A02EE101AA1
:101F8000B8EE422A20EE010A32EE031A80EE011A60
:101F9000BCEEC11A80ED001ADEF80010C1F3064154
:101FA00001EE101AB8EE411A31EE031A80EE011A52
:101FB000BCEEC11A80ED011ADEF80010C1F3066113
:101FC00001EE101AB8EE411A31EE031A80EE010A42
:101FD000BCEEC00A10EE101A816080BD0024744A65
:101FE00020BCBE4B0024744C0000003900000000EF
:101FF0002DE9F04381B00446C07844F22C49000733
:10200000C5F6020901D400262DE0606E4FEA30507B
:1020100003280DD80026DFE800F0020E1613D9F8C9
:102020000000002640F40030C9F800004EB912E06C
:10203000012636B90FE0201D022101F0A1FC064661
:102040004EB1B04611E004F12400022101F028FD58
:102050000646002EF5D1D9F82400616E20F4401018
:102060000843C9F824004FF000086078C0072FD05B
:10207000606D042807D8DFE800F00A131B03030093
:10208000F6B1B04624E00126002EFAD118E0D9F8C6
:10209000000040F40030C9F80000002EF1D10FE03C
:1020A000201D002101F06CFC0646002EE9D107E05E
:1020B00004F12400002101F0F3FC0646002EE0D1DB
:1020C000D9F82400616D20F007000843C9F8240006
:1020D0006078800731D5A06D4FEAB010042807D88A
:1020E000DFE800F00A131B030300F6B1B04624E05A
:1020F0000126002EFAD118E0D9F8000040F4003093
:10210000C9F80000002EF1D10FE0201D002101F0E0
:1021100037FC0646002EE9D107E004F12400002137
:1021200001F0BEFC0646002EE0D1D9F82400A16DD6
:1021300020F4E0700843C9F824006078400733D5E4
:10214000D4F8A4004FEA7050042807D8DFE800F064
:102150000A131B030300F6B1B04625E00126002E4A
:10216000FAD118E0D9F8000040F40030C9F80000B6
:10217000002EF1D10FE0201D002101F001FC0646E8
:10218000002EE9D107E004F12400002101F088FCD1
:102190000646002EE0D1D9F82C00D4F8A41020F483
:1021A00060000843C9F82C006078000733D5D4F8E4
:1021B000A8004FEA3060042807D8DFE800F00A13CF
:1021C0001B030300F6B1B04625E00126002EFAD12C
:1021D00018E0D9F8000040F40030C9F80000002EE3
:1021E000F1D10FE0201D002101F0CAFB0646002EB0
:1021F000E9D107E004F12400002101F051FC06467A
:10220000002EE0D1D9F82C00D4F8A81020F0E0601E
:102210000843C9F82C00E078800727D5A06C4FEA66
:102220003010032806D8DFE800F002091202AEB130
:10223000B0461BE00126002EFAD10FE0D9F80000CD
:1022400040F40030C9F80000002EF1D106E0201D56
:10225000022101F095FB0646002EE9D1D9F82000B5
:10226000A16C20F030000843C9F820006078C00657
:1022700031D5E06D4FEA3030042807D8DFE800F0B0
:102280000A131B030300F6B1B04624E00126002E1A
:10229000FAD118E0D9F8000040F40030C9F8000085
:1022A000002EF1D10FE0201D002101F069FB064650
:1022B000002EE9D107E004F12400002101F0F0FB39
:1022C0000646002EE0D1D9F82400E16D20F4E0406C
:1022D0000843C9F824006078800625D5206E4FEAAF
:1022E0003040052807D8DFE800F0030A0F03030396
:1022F00096B1B04618E00126002EFAD10CE0201D60
:10230000012101F03DFB04E004F12400012101F072
:10231000C7FB0646002EECD1D9F82400216E20F42C
:10232000E0200843C9F824006078400627D5D4F897
:10233000AC004FEA3070052807D8DFE800F0030A48
:102340000F03030396B1B04619E00126002EFAD11F
:102350000CE0201D012101F013FB04E004F1240036
:10236000012101F09DFB0646002EECD1D9F82C008E
:10237000D4F8AC1020F0E0400843C9F82C00607895
:1023800000061FD5E06ED0B1B0F1005F12D0B0F101
:10239000805F24D1D9F8000040F40030C9F8000073
:1023A0007EB9D9F82400E16E20F040500843C9F806
:1023B000240007E0201D012101F0E2FA0646002E6C
:1023C000EFD0B046E078C00729D0606C03280AD867
:1023D000DFE800F0020D1602CEB1B0461FE0012684
:1023E000002EEED1DDE70126002EF6D10FE0D9F860
:1023F000000040F40030C9F80000002EEDD106E0E6
:10240000201D022101F0BCFA0646002EE5D1D9F8C4
:102410002000616C20F003000843C9F82000A07878
:10242000400643D5D9F8D40340F48070C9F8D403EA
:10243000FFF79AFB074600BFD9F8D403C00505D4BF
:10244000FFF792FBC01B6528F6D303266EBBD9F8B5
:102450004410D4F8B000414011F4407F11D0D9F8B5
:102460004410D9F8442042F48032C9F84420D9F805
:10247000442021F4407122F48032C9F84420C9F884
:102480004410B0F5807F0FD1FFF76EFB074641F295
:10249000893500BFD9F84400800705D4FFF764FBF5
:1024A000C01BA842F6D3032686B1B0462078C007E9
:1024B00041D0A06F4FEAF000052823D8DFE800F0F4
:1024C00003262B03030376B3B04634E04FF6CF73F5
:1024D000D4F8B00059F81C2CC0F2FF0300F440718E
:1024E00022F47C5203EA1013B1F5407F08BF1A436F
:1024F0006FF31F3049F81C2CD9F844100843C9F871
:102500004400D3E70126002EDED10CE0201D01217E
:1025100001F036FA04E004F12400012101F0C0FAD0
:102520000646002ED0D1D9F82800A16F20F038003F
:102530000843C9F828002078800723D5606F052854
:1025400007D8DFE800F0030A0F03030396B1B04693
:1025500018E00126002EFAD10CE0201D012101F027
:102560000FFA04E004F12400012101F099FA064673
:10257000002EECD1D9F82800616F20F00700084345
:10258000C9F828002078400725D5D4F89000052800
:1025900007D8DFE800F0030A0F03030396B1B04643
:1025A00019E00126002EFAD10CE0201D012101F0D6
:1025B000E7F904E004F12400012101F071FA064674
:1025C000002EECD1D9F82C00D4F8901020F00700A0
:1025D0000843C9F82C002078800627D5D4F88C0051
:1025E0004FEA3070052807D8DFE800F0030A0F0330
:1025F000030396B1B04619E00126002EFAD10CE093
:10260000201D002101F0BCF904E004F124000221A6
:1026100001F046FA0646002EECD1D9F82800D4F88D
:102620008C1020F0E0400843C9F8280020784006CC
:1026300027D5D4F898004FEAB020052807D8DFE85E
:1026400000F0030A0F03030396B1B04619E0012618
:10265000002EFAD10CE0201D002101F091F904E0D8
:1026600004F12400022101F01BFA0646002EECD1F1
:10267000D9F82C00D4F8981020F4E0500843C9F899
:102680002C002078000627D5D4F89C004FEA703043
:10269000052807D8DFE800F0030A0F03030396B10B
:1026A000B04619E00126002EFAD10CE0201D0021D1
:1026B00001F066F904E004F12400022101F0F0F9D0
:1026C0000646002EECD1D9F82C00D4F89C1020F44A
:1026D00060400843C9F82C002078000716D5D4F8CC
:1026E0008000B0F5805F08D104F12400022101F0E0
:1026F000D7F9002818BF4FF00108D9F82800D4F8FE
:10270000801020F440500843C9F828002078C00603
:1027100016D5D4F89400B0F5807F08D104F12400D8
:10272000022101F0BDF9002818BF4FF00108D9F8C7
:102730002C00D4F8941020F440700843C9F82C0001
:10274000A078000721D5D4F8A000B0F5003F19D03B
:10275000B0F5803F10D0C0BB201D002101F010F962
:1027600006468EB9D9F82C00D4F8A01020F44030D9
:102770000843C9F82C0008E004F12400022101F00C
:102780008FF90646002EEDD0B046A078400729D537
:10279000D4F88400B0F5401F21D0B0F5001F18D048
:1027A000B0F5801F40F0B480D9F8000040F400304C
:1027B000C9F80000AEB9D9F82800D4F8841020F484
:1027C00040100843C9F828000CE00126002EDBD198
:1027D000C8E704F12400012101F062F90646002E49
:1027E000E9D0B046A078C0071FD0E06CB0F5803FBC
:1027F00010D0B0B9D9F8000040F40030C9F800009A
:1028000096B9D9F82000E16C20F480300843C9F86B
:1028100020000AE0201D022101F0B2F806461EB990
:10282000EFE70126002EECD0B046E078800608D510
:1028300004F12400022101F033F9002818BF4FF001
:1028400001082068810313D4C10229D4C10031D406
:1028500081023AD4410042D4B0F1FF3F4FDDB8F1DC
:10286000000F18BF4FF00108404601B0BDE8F083EB
:10287000E16F6FF0010202EB3122022A0AD34FEA24
:1028800031223AB1012A48D1D9F8002042F400326D
:10289000C9F80020002E43D04FF00108C102D5D561
:1028A000D9F82410226F21F000411143C9F82410F7
:1028B000C100CDD559F81C1CD4F8B42021F48041B6
:1028C000114349F81C1C8102C4D5D9F82410A26E0A
:1028D00021F080711143C9F824104100BCD559F88A
:1028E0001C1C21F4004149F81C1CD4F8B81059F8FC
:1028F0001C2C114349F81C1CB0F1FF3FAFDCD9F888
:102900002000216D20F040500843C9F82000A6E7C0
:102910000126002E7FF465AF4DE70126002EBBD1C6
:10292000D9F8282022F440721143C9F82810C102B6
:102930007FF58CAFB4E700002DE9F04381B00028AB
:1029400000F0F48042F200080446C5F200288946EF
:10295000D8F8000000F00F0088420ED2D8F800002E
:1029600020F00F0040EA0900C8F80000D8F8000085
:1029700000F00F00484540F0D980206844F2184725
:102980004107C5F602070AD521693A6802F07002CC
:10299000914204D93A6822F070021143396001076C
:1029A0000AD561697A6802F07002914204D97A68A6
:1029B00022F0700211437960C1060AD5A1697A68D4
:1029C00002F4E062914204D97A6822F4E062114391
:1029D000796081060AD5E169BA6802F07002914215
:1029E00004D9BA6822F070021143B96081070AD590
:1029F000E1683A6802F00F02914204D93A6822F085
:102A00000F0211433960C0077ED1206881070AD5C3
:102A1000E1683A6802F00F02914204D23A6822F06B
:102A20000F0211433960D8F8001001F00F01494539
:102A30000DD9D8F8001021F00F0141EA0901C8F8BA
:102A40000010D8F8001001F00F0149456ED1410780
:102A50000AD521693A6802F07002914204D23A68BC
:102A600022F070021143396001070AD561697A6862
:102A700002F07002914204D27A6822F0700211438F
:102A80007960C1060AD5A1697A6802F4E0629142D0
:102A900004D27A6822F4E0621143796080060AD594
:102AA000E069B96801F07001884204D2B96821F088
:102AB00070010843B86000F0D3F9396848F23C026D
:102AC000C0F600023B68C1F3032103F00F03515C21
:102AD000D25C01F01F01C84002F01F0140F2040265
:102AE00020FA01F1C2F20002116040F2000140F24E
:102AF0003002C2F20001C2F2000208601068FFF763
:102B00007FF801B0BDE8F083386820F47061D4E943
:102B10000102012841EA020139600BD003282BD0C1
:102B200002282ED157F8181C890307D4012001B0C0
:102B3000BDE8F08357F8181CC905F7D557F8081CED
:102B400021F00701084347F8080CFFF70DF8064687
:102B500041F2883557F8080C616800F03800B0EB96
:102B6000C10F3FF452AFFEF7FFFF801BA842F1D91F
:102B7000032001B0BDE8F08357F8181C8901D5D5B2
:102B8000DCE757F8181C4907D0D5D7E7000000004C
:102B90002DE9F04142F20008C5F20028D8F8000003
:102BA00000F00F0006280CD8D8F80000072161F3C8
:102BB0000300C8F80000D8F8000000F00F00072854
:102BC00031D144F20047C5F60207FEF7CDFF0446B7
:102BD000386840F0010038603868400707D4FEF7D5
:102BE000C3FF001B0228F7D90320BDE8F0817868F5
:102BF00049F2000140F0804078600020386140F2E6
:102C00000000C0F2D031C2F2000040F23002C2F245
:102C10000002016040F20400C2F20000016010688E
:102C2000FEF7EEFF10B10120BDE8F081FEF79CFF3A
:102C3000044641F2883600BF3D69FEF795FF15F066
:102C4000380F054605D0281BB042F5D90320BDE852
:102C5000F0814EF645513868CFF6F67141F288366C
:102C6000084038603C68FEF77FFFA103044605D5A5
:102C7000601BB042F6D90320BDE8F081386820F02F
:102C8000807038603D68FEF76FFFA901054605D5E5
:102C9000281B02284FF00300F4D956E0386820F0D2
:102CA000806038603C68FEF75FFF2101044605D56F
:102CB000601B02284FF00300F4D946E0386820F08A
:102CC000805038603868800007D5FEF74DFF001B44
:102CD00002284FF00300F5D937E040F20021002030
:102CE000B861C0F20221F8613862B9620021C0F215
:102CF000FF11F96240F28021C0F20111396378635B
:102D0000B963F86339647864396821F480213960E3
:102D100038664FF0FF30B866D7F8D00040F4803006
:102D2000C7F8D000D8F8000000070DD5D8F800008B
:102D3000072161F30300C8F80000D8F8000000F094
:102D40000F0007287FF46FAF0020BDE8F08100007E
:102D500080B500F085F844F2184148F23C03C5F60E
:102D60000201C0F600030A68096801F00F01C2F30E
:102D70000322595C9A5C02F01F0220FA02F201F071
:102D80001F0040F2040122FA00F0C2F200010860C4
:102D900040F20001C2F200010A6080BD00000000A4
:102DA00080B500F05DF844F2184C48F23C01C5F6DD
:102DB000020CC0F60001DCF80020DCF8003003F063
:102DC0000F03C2F30322CB5C8A5C02F01F02D040E7
:102DD00003F01F0240F2040320FA02F2C2F20003E1
:102DE0001A6040F20003C2F200031860DCF804002D
:102DF000C0F30210085C00F01F0022FA00F080BD52
:102E000080B500F02DF844F2184C48F23C01C5F6AC
:102E1000020CC0F60001DCF80020DCF8003003F002
:102E20000F03C2F30322CB5C8A5C02F01F02D04086
:102E300003F01F0240F2040320FA02F2C2F2000380
:102E40001A6040F20003C2F200031860DCF80400CC
:102E5000C0F30220085C00F01F0022FA00F080BDE1
:102E600044F20041C5F602010869C0F3C20003281C
:102E70000FD002282AD070BB0868800649F20000F3
:102E8000C0F2D03058BF70470968C1F3C101C840D3
:102E900070478A6A886AC0F3051CC86ABCF1000FD3
:102EA0004B6B1DD0C3F3CC0300F00100584302F07C
:102EB0000302022A00EE100AB8EE400A12D0A2B9AC
:102EC0000868800614D49FED261A1EE047F64000DD
:102ED000C0F27D10704740F60010C0F23D00704710
:102EE000002070479FED1D1A0FE09FED1B1A0CE0AC
:102EF000086849F20002C0F2D032C0F3C10022FAE1
:102F000000F001EE100AB8EE411A086B9FED153A79
:102F10006FF35F2002EE100A086BC0F34620B8EE94
:102F2000422A013000EE032A00EE10CAB7EE003A42
:102F3000B8EE400A81EE000A32EE031A20EE010AD2
:102F400001EE100AB8EE411A80EE010ABCEEC00A8A
:102F500010EE100A704700BF0024744A20BCBE4B1C
:102F60000024744C000000392DE9F04381B0F8B121
:102F70008046007844F20049C007C5F602095ED0D9
:102F8000D9F8100000F03801D9F82800102905D030
:102F900018290FD100F0030002280BD1D9F8000046
:102FA000800348D5D8F80400002844D1012733E035
:102FB00001271FE2D8F804402CB1B4F5A02F0DD0A2
:102FC000B4F5803F10D0D9F8000020F48030C9F863
:102FD0000000D9F8000020F4802009E0D9F80000B2
:102FE00040F48020C9F80000D9F8000040F4803097
:102FF000C9F80000FEF7B8FD002C054641F2883400
:1030000015D000BFD9F80000800314D4FEF7ACFD42
:10301000401BA042F6D903270020002800F0EA81D7
:103020000DE000BFFEF7A0FD401BA042F3D8D9F889
:1030300000008003F6D40120002800F0DB8198F81E
:10304000000080076BD5D9F8100010F03801D9F8CE
:1030500028001CD0182908BF5FEA807017D0D8F864
:103060000C00D9F8001098B321F019010843C9F8F1
:103070000000FEF779FD0546D9F8000040070DD4A1
:10308000FEF772FD401B0228F6D9032743E0D9F86A
:103090000000400702D5D8F80C00D8B3FEF75CFD5D
:1030A00041F2030188420AD8D8F81000D9F8041078
:1030B000402821F47C3124D141F4003023E0D9F8B8
:1030C0000400D8F8101020F0FE4040EA01601AE039
:1030D00021F00100C9F80000FEF746FD0546012673
:1030E000D9F8000010F0040086EA90040ED0FEF734
:1030F0003BFD401B0228F3D90327002C00F07A8106
:103100000DE041EA00300124C9F80400002C00F071
:10311000718104E001270024002C00F06B8198F8F5
:103120000000C00675D5D9F8100000F03801D9F8B4
:103130002800082905D018291CD100F00300012817
:1031400018D1D9F80000C00503D5D8F81C00802894
:103150005AD1FEF701FD41F20301884223D8D8F885
:103160002000D9F80410202821F0F84143D141F083
:10317000804042E0D8F81C000028D9F8000021D097
:1031800040F08000C9F80000FEF7EEFC054600BFE5
:10319000D9F80000C005DCD4FEF7E6FC401B02288D
:1031A000F6D9032731E0D9F80C00D8F8201020F028
:1031B0007C50012440EA0160C9F80C00002C00F0AA
:1031C000198126E020F08000C9F80000FEF7CCFC51
:1031D00005460126D9F8000010F4807086EA102414
:1031E0000ED0FEF7C1FC401B0328F3D30327002CAD
:1031F00000F000810DE041EA8060C9F8040001247C
:10320000002C00F0F78004E001270024002C00F0DF
:10321000F18098F8000000071CD498F800008006A0
:1032200031D498F80000400745D4D8F82440002C49
:1032300000F0DF80D9F8100000F03800182840F0C6
:103240008880012CD9F82810D9F8300040F0A280ED
:103250000127CFE0D8F814000028D9F874003ED038
:1032600040F00100C9F87400FEF77EFC054600BF7F
:10327000D9F874008007D0D4FEF776FC401B0228F2
:10328000F6D90327B6E0D8F818000028D9F80000CE
:103290004BD040F48050C9F80000FEF765FC0546AD
:1032A000D9F800008004BCD4FEF75EFC401B022865
:1032B000F6D903279EE0D9F8000440F48070C9F8DD
:1032C0000004FEF751FC0546D9F80004C0051AD4E5
:1032D000FEF74AFC401B6428F6D903278AE020F059
:1032E0000100C9F87400FEF73FFC0546032700BF44
:1032F000D9F8740080077FF590AFFEF735FC401BCE
:103300000228F5D976E0D8F808401CB1052C75D014
:10331000012C79D0D9F8700020F00100C9F87000B4
:10332000D9F8700020F0040072E020F48050C9F851
:103330000000FEF719FC0546032700BFD9F800007E
:1033400080047FF56EAFFEF70FFC401B0228F5D915
:1033500050E0D9F8000020F08070C9F80000FEF7B6
:1033600003FC022C05464FF0030709D1D9F80000F1
:1033700080016FD5FEF7F8FB401B0228F6D939E033
:10338000D9F80000800134D5FEF7EEFB401B02287F
:10339000F6D92FE001F00302D8F828309A4240F025
:1033A000D380C1F30511D8F82C20914240F0CE8093
:1033B0000146D8F830206FF35F21013A914240F086
:1033C000C780C0F34622D8F8341001398A4240F051
:1033D000C180C0F30642D8F8381001398A4240F063
:1033E000BB80C0F30660D8F83C100139884240F039
:1033F000B5800027F8B201B0BDE8F083D9F87000BD
:1034000040F00400C9F87000D9F8700040F00100E5
:10341000C9F87000FEF7A8FB002C054641F288347D
:103420004FF0030711D000BFD9F8700080073FF5B7
:10343000FCAEFEF799FB401BA042F5D9DAE700BFCE
:10344000FEF792FB401BA042D4D8D9F87000800749
:10345000F6D4EAE608F12807D9F8280040F2F3315B
:1034600088438ECF0843591E40EA02104FF47E4233
:103470006FF35F21C9F8280002EB47204FF4FE02EA
:1034800080B2D8F83C300844D8F8381002EB01413B
:103490004FF0FE4201F4FE0102EB0362084402F029
:1034A000FE410844C9F83000D9F82C004FF6F871F5
:1034B00020F00100C9F82C00D9F83400D8F84820D1
:1034C000884340EAC200C9F83400D9F82C00D8F883
:1034D000401020F00C000843C9F82C00D9F82C004B
:1034E000D8F8441020F002000843C9F82C00D9F89D
:1034F0002C0040F48030C9F82C00D9F82C0040F49E
:103500000030C9F82C00D9F82C0040F48020C9F80C
:103510002C00D9F82C0040F00100C9F82C00D9F893
:10352000000040F08070C9F80000FEF71DFB044663
:103530000327D9F8000080013FF55BAFFEF714FBCD
:10354000001B0228F5D955E7012753E7012751E76A
:1035500001274FE701274DE701274BE7012749E7FF
:10356000411E0020B0EB116F01D0012070474EF2D8
:103570001002F023CEF2000251604EF62351CEF23B
:1035800000010B700721906011607047000000007F
:1035900090F87C10012901D1022070472421C0F845
:1035A000801002681368116823F0005321F00101B4
:1035B00011600021416613602022C0F8802080F84D
:1035C0007C1008467047000070B590F87C20012AF6
:1035D00001D1022070BD012380F87C302422C0F884
:1035E00080200268D0F864E0BEF1000FD2F800C07D
:1035F000146824F001041460946824F0606441EAC3
:10360000040191601BD0916848F21A1EC0F6000EAA
:1036100048F22214C1F34261C0F6000493681EF818
:1036200001505E0F615C2B01B3FBF1F31EF8061035
:10363000A65D0901B1FBF6F1A0F86A1001E0A0F85F
:103640006A30A0F868302021C2F800C0C0F88010AD
:10365000002180F87C10084670BD000000000000CA
:1036600070B590F87C20012A01D1022070BD0123A1
:1036700080F87C302422C0F880200268D0F864E012
:10368000BEF1000FD2F800C0146824F001041460E9
:10369000946824F0604441EA040191601BD0916871
:1036A00048F21A1EC0F6000E48F22214C1F342611D
:1036B000C0F6000493681EF801505E0F615C2B0198
:1036C000B3FBF1F31EF80610A65D0901B1FBF6F19C
:1036D000A0F86A1001E0A0F86A30A0F86830202154
:1036E000C2F800C0C0F88010002180F87C100846A5
:1036F00070BD000000000000B0B5C8B10446242031
:103700000025C4F880002068016821F001010160F3
:10371000056045608560204600F042F82846C4F800
:103720008850C4F88050C4F8845084F87C50B0BDF0
:103730000120B0BD0000000010B5B0B10446D0F8C3
:10374000800028B9002084F87C00204600F044F86E
:103750002420C4F880002068016821F00101016084
:10376000204600F06DFB012801D1012010BDA06AA8
:1037700010B1204600F070FA2068416821F49041B1
:103780004160816821F02A018160016841F00101F6
:103790000160204600F0D0FA10BD000000000000DB
:1037A00080B541F200010068C4F20101884218BFEF
:1037B00080BD44F2F040C5F60200016821F010011E
:1037C000016000204FF4C061C5F60200FEF760F80A
:1037D00080BD000000000000B0B5B6B0044602A8ED
:1037E000BC210025CDE93455CDE932553195FCF7A2
:1037F0003DFF41F200012068C4F20101884201D07E
:1038000036B0B0BD0120029002A82095FEF7F0FB73
:1038100018B1EFF3108072B6FEE744F2E040C5F64F
:103820000200016941F010010161016901F010011C
:1038300001910199016841F001010160006831A91D
:1038400000F00100019001984FF4C0603190022017
:1038500032900020CDE93300072035900020C5F6D6
:103860000200FEF7A1F836B0B0BD00000000000075
:103870002DE9F04381B00446D0F8800020280BD118
:103880000E4600294FF001005CD01746002A59D09F
:1038900094F87C00012803D1022001B0BDE8F08338
:1038A0001D46012084F87C004FF00009C4F8889080
:1038B0002120C4F88000FEF757F9A4F85470A4F84A
:1038C00056700746A168B1F5805F07D120690028CE
:1038D0001CBF30464E46B046064601E04FF0000899
:1038E00084F87C9009E000BF206816F8011B816213
:1038F000B4F856000138A4F85600B4F8560088B160
:103900008021002220463B46009500F0EDFC88B95E
:10391000002EE9D138F8020B216800266FF35F20F2
:103920008862E5E74021002220463B46009500F0F2
:10393000DBFC18B1032001B0BDE8F0832020C4F8FF
:103940008000002001B0BDE8F0830000000000000E
:1039500070470000000000007047000000000000F9
:1039600070470000000000007047000000000000E9
:1039700080B5002000F018FD80BD000000000000B0
:10398000F0B581B044F22C47C5F6020757F8042C75
:1039900002F00302032A02D1012001B0F0BD054666
:1039A00057F82C0C0C4620F0806047F82C0CFEF7E2
:1039B000DBF8064657F82C0C000105D5FEF7D4F8C5
:1039C000801B0228F6D964E057F8040CEE6895E8ED
:1039D0000E0020F47C30012C40EA0130A2F10101FC
:1039E0006FF35F214FF47E4202EB432247F8040C51
:1039F00092B24FF0FE4302EB01004FF4FE012A6940
:103A000001EB064101F4FE0103EB0262084402F0FF
:103A1000FE410844F8603868696920F0C00040EA57
:103A2000010038603868A96920F0200040EA0100F0
:103A3000386038684FF6F87120F010003860386947
:103A4000EA6920EA01004FF4001140EAC20038613F
:103A5000386808BF4FF4801140F01000002C386027
:103A600008BF4FF4002138680843386057F82C0C21
:103A700040F0806047F82C0CFEF776F8044600BF53
:103A800057F82C0C000107D4FEF76EF8001B032832
:103A9000F6D3032001B0F0BD002001B0F0BD00005E
:103AA000F0B581B044F22C47C5F6020757F8042C54
:103AB00002F00302032A02D1012001B0F0BD054645
:103AC00057F82C0C0C4620F0805047F82C0CFEF7D1
:103AD0004BF8064657F82C0C800005D5FEF744F845
:103AE000801B0228F6D964E057F8040CEE6895E8CC
:103AF0000E0020F07C70012C40EA0150A2F101017F
:103B00006FF35F214FF47E4202EB432247F8040C2F
:103B100092B24FF0FE4302EB01004FF4FE012A691E
:103B200001EB064101F4FE0103EB0262084402F0DE
:103B3000FE41084478613868696920F4406040EAD1
:103B4000010038603868A96920F4007040EA01007B
:103B5000386038684FF6F87120F480703860B869C2
:103B6000EA6920EA01004FF0807140EAC200B861C2
:103B7000386808BF4FF4000140F48070002C3860B2
:103B800008BF4FF4800138680843386057F82C0CA0
:103B900040F0805047F82C0CFDF7E6FF044600BFCC
:103BA00057F82C0C800007D4FDF7DEFF001B03281C
:103BB000F6D3032001B0F0BD002001B0F0BD00003D
:103BC00080B5FDF7D9FF80BD4EF6885C4EF67F507C
:103BD000CEF2000CCEF6F620DCF8001041F47001B5
:103BE000CCF8001044F20041C5F602010A6842F028
:103BF00001020A6000220A610B68184008608A61AD
:103C0000CA610A628A62CA620A634A638A63CA63D1
:103C10000A644A64086820F48020086041F20000C9
:103C20000A66C5F600400068B2EB507F05D148F245
:103C300008100121C5F20010016044F2000043F2B7
:103C4000D201C5F2002001604FF000604CF8800CFA
:103C50007047000000000000816ACA070CD18A0783
:103C600015D44A071ED40A0727D4CA0630D48A06B8
:103C700039D44A0655D541E00268D0F82CC05368C3
:103C800023F4003343EA0C0353608A07E9D5026842
:103C9000D0F830C0536823F4803343EA0C035360F8
:103CA0004A07E0D50268D0F834C0536823F4802373
:103CB00043EA0C0353600A07D7D50268D0F838C02E
:103CC000536823F4004343EA0C035360CA06CED57D
:103CD0000268D0F83CC0936823F4805343EA0C0395
:103CE00093608A06C5D50268D0F840C0936823F473
:103CF000005343EA0C0393604A0612D50268D0F8D9
:103D000044C0BCF5801F536823F4801343EA0C03BE
:103D1000536006D1536823F4C00C836C43EA0C0350
:103D20005360090658BF70470168C06C4A6822F4A6
:103D3000002210434860704770B5044600202646B4
:103D400046F8880FFDF710FF216805460A6812073C
:103D500033D42068016849070CD42020C4F88000BF
:103D600004F18406002020213160002184F87C10B9
:103D700070BD00BFC0694002EFD4FDF7F5FE411BE6
:103D80002068B1F1007F01683AD2490744BFC16998
:103D90005FEA0151EED54FF400610162016821F440
:103DA000D0710160816821F0010181602020C4F898
:103DB0008000C4F884000320D5E7C8698002C8D415
:103DC000FDF7D2FE411B2068B1F1007F016809D2E6
:103DD000490744BFC1695FEA01511FD4C06980022D
:103DE000EED5B6E721F4D0710160816804F1840654
:103DF00021F0010181602020C4F880000320B2E797
:103E000021F4D0710160816804F1840621F0010180
:103E100081602020C4F880000320A4E74FF40061F3
:103E20000162016821F4D0710160816821F0010113
:103E300081602020C4F88000C4F88400032092E749
:103E4000F0B583B004460368806846F6F315D4E9FC
:103E50000312104362691043E2691043626E1E68E8
:103E6000CCF6FF75104306EA050210431860586847
:103E70004FF2FF4620F4405240F600401143596093
:103E8000C5F60000A1698342C1F2FF161CBF226A79
:103E900011439A6847F2FF753240C4F2000511439E
:103EA0009960DA6A44F2544122F00F02666AC5F65C
:103EB00002013243AB42DA624FF080021DDD40F670
:103EC000FF76C4F20106B34226DD834245D041F2BB
:103ED0000046C4F20106B34205D041F20006C4F226
:103EE0000106B34242D10A68C2F3C202062A3CD29A
:103EF00048F23003C0F600032CE044F6FF36C4F26B
:103F00000006B34211DC44F20046C4F20006B3429C
:103F100017D044F6000610E047F60006C4F200068B
:103F2000B3420ED047F6004607E044F60046C4F21E
:103F30000006B34205D045F20006C4F20006B342C3
:103F400014D10A6802F00702062A0ED248F236039C
:103F5000C0F600031A44127808E04A6802F007022B
:103F6000062A02D20FF27433F4E7802223688342D8
:103F700040F60010C0F23D0000F05380E369B3F555
:103F8000004F40F06C80402A00F209810027DFE8F2
:103F900012F041000F01060106011401060106019D
:103FA00006011801060106010601060106010601C7
:103FB00006012001060106010601060106010601AF
:103FC00006010601060106010601060106010601B9
:103FD00006012E0106010601060106010601060181
:103FE0000601060106010601060106010601060199
:103FF0000601060106010601060106010601060189
:104000000601060106010601060106010601060178
:1040100006012B010027FEF7C3FE002840F0E980CF
:10402000D5E0931E1E2B00F268800027DFE803F026
:10403000106C706C6C6C746C6C6C6C6C6C6C7C6C00
:104040006C6C6C6C6C6C6C6C6C6C6C6C6C6C860002
:104050000027FDF791FE002840F0728062E0402AC0
:1040600000F2A1800027DFE812F04100DD009E0091
:104070009E00E2009E009E009E00E6009E009E00C4
:104080009E009E009E009E009E00EE009E009E00F0
:104090009E009E009E009E009E009E009E009E0030
:1040A0009E009E009E009E009E00FC009E009E00C2
:1040B0009E009E009E009E009E009E009E009E0010
:1040C0009E009E009E009E009E009E009E009E0000
:1040D0009E009E009E009E009E009E009E009E00F0
:1040E0009E009E009E009E009E00F9000027FEF7A5
:1040F00057FE002840F0B780A3E0402A04D14FF4D7
:1041000000400027E0B90DE000200127C0B909E018
:104110006846FDF745FE02E06846FDF7D5FE00273C
:10412000019868B93946B4E051F8540C800649F258
:104130000000C0F2D03000F1B58000270028F1D097
:10414000616A48F24C02C0F60002656832F811203C
:1041500005EB4501B0FBF2F38B424FF00101C0F0DB
:1041600098802E03B34200F2948000210023FCF7D4
:104170007BF90902002341EA10612A46000210EB94
:10418000550041F10001FCF76FF94FF60052A0F520
:104190004071C0F20F02914276D3012179E00020F4
:1041A000012730BB13E00020012700285BD148E045
:1041B0000027FEF725FEE0B909E06846FDF7F0FDAF
:1041C00002E06846FDF780FE0027019888B939466D
:1041D0005FE051F8540C800649F20000C0F2D03084
:1041E0006AD4002728B9F2E74FF4004000270028DE
:1041F000EDD0616A48F24C02C0F6000232F81110AC
:104200006268B0FBF1F0510801EB40004FF6F0712D
:10421000B0FBF2F0014003D0C0F34200084333E0AA
:10422000012136E00027FEF7EBFDE0B909E0684622
:10423000FDF7B6FD02E06846FDF746FE002701984F
:1042400088B9394625E051F8540C800649F200003F
:10425000C0F2D03039D4002728B9F2E74FF400403B
:1042600000270028EDD0616A48F24C02C0F6000237
:1042700032F811106268B0FBF1F000EB5200B0FBB5
:10428000F2F080B2102803D32168C860394600E0FC
:1042900001214FF00110A0660020C4E91B00084670
:1042A00003B0F0BD51F8541C0027C1F3C101C84050
:1042B00000287FF445AF35E751F8541C0027C1F3BF
:1042C000C101C840002894D181E751F8541C00274F
:1042D000C1F3C101C8400028C5D1B2E702040810EB
:1042E00020400000000000002DE9F04381B00446AA
:1042F0000068C0690840401AB0FA80F04009904256
:1043000037D1DDF820800D461646994608F10107A1
:1043100009E000BF2068C0692840401BB0FA80F067
:104320004009B04225D1002FF4D0FDF71DFC2168D3
:10433000B8F1000F0A6820D0A0EB090040451CD856
:10434000500744BFC8695FEA0050E3D54FF40060EE
:104350000862086820F4D0700860886820F00100C6
:1043600088602020C4F88000C4F8840004F188002C
:104370000FE0002001B0BDE8F08322F4D0700860A7
:10438000886820F0010088602020C4F8800004F1D3
:10439000840020210160002084F87C00032001B00B
:1043A000BDE8F083000000002DE9F04F85B041F634
:1043B0005009C2F20009D9F80400416982694369D1
:1043C000DB0740F0C78112EA010C00F0C3815FEA0D
:1043D000CC6142D5816921F010018161026AC2F38A
:1043E0004341062920D0022933D1C2F30A1181B3F7
:1043F00002F00F0240F20023C2F20003CF1C03EBD5
:1044000002120126BB084FF48055012B52F84C3F95
:1044100088BFBE081F1FB600043E445947F8044F2A
:10442000FAD11944116014E0C2F30A1189B1CA1C0F
:1044300001219308012B4FF4805388BF910840F26B
:104440000022C2F20002043A0139C75842F8047F40
:10445000FAD1816941F0100181615FEA0C31CDF838
:1044600000C06BD5D0F81818D0F81C080840070C0D
:1044700064D040F2002A0025C2F2000A4FF43064F2
:104480000AF150064FF0000B08E000BF7F080BF167
:10449000010B04F1200406F110064FD0F807F5D007
:1044A000D9F8040021188A68D0F8143803EA020801
:1044B0005FEAC8728A688A6020D0BBF1000F0DD015
:1044C0004FF6FF7230680969C0F207021140421AC4
:1044D00000205FFA8BF1C6E900520DE0DAF85020B7
:1044E000A2B108694FF6FF71C0F207010840002130
:1044F000121A0020CAE9145202F032F95FEA087079
:10450000C4D50020514602F08BF8BFE7C0F8105B1D
:10451000D0F8101B41F40021C0F8101BD0F8101B7C
:1045200041F01801C0F8101BD0F8101B41F0C04139
:10453000C0F8101B5FEA0870E3D4A7E700984003B7
:1045400040F1E280D9F80400D0F81818D0F81C081F
:10455000084084B2002C00F0D78040F200274FF4CE
:104560001065C2F200074FF0000B04E064080BF185
:10457000010B00F0C980E007F8D0D9F804000BF077
:104580000703D0F81018D0F83428DA4005EB4B13A5
:104590000293D2011844D2B21143826801EA0206A2
:1045A000F1078168816043D0BBF1000F13D007EBA6
:1045B0000B114FF6FF73C0F207030A690069184038
:1045C000121A0020C1E904024BF08000C1B20020A1
:1045D00002F0AEF82CE04FF6FF7239690069C0F2C4
:1045E000070210400A1A0020C7E9040200208021B7
:1045F00002F09EF8F88818B197F90010002900D54C
:10460000B0B9D9F804000021C0F8101BD0F8101B75
:1046100041F40021C0F8101BD0F8101B41F0180124
:10462000C0F8101BD0F8101B41F0C041C0F8101B9F
:1046300030069BD507EB0B1050F8141F864630F858
:104640000C2C5EF8043D591AD9F80430914288BF09
:104650001146029FDE19CF1CB16989B2B1EB970FE9
:104660003AD30568DEF80010A94235D9BB0801939A
:104670004FF48053A0F1080803EB0B374D1B954214
:1046800088BF1546D8F8003095B1E91CA3F1040A9B
:104690008E08012E4FF0010688BF8E08B10000BFC2
:1046A000D9F8046004395AF804CF47F806C0F7D1A6
:1046B0005919D9F80430029EC8F8001001681E4448
:1046C00029440160B169019E89B2B14204D30568F1
:1046D000DEF80010A942D1D8DEF80010006840F2E0
:1046E000002781424FF41065C2F200073FF63EAF4B
:1046F0000BF00F00012101FA00F0D3F8341821EA81
:104700000000C3F8340831E7DDF800805FEAC840F4
:1047100023D45FEA884000F1A9805FEA882000F195
:1047200045815FEAC82000F17B815FEA087000F1F3
:10473000B1815FEA085000F1B781B8F1FF3F40F363
:10474000BD815FEA487005D5D9F804004168426828
:104750001143416005B0BDE8F08FD9F8040041690C
:1047600041F48051416140F64051D0F80428C0F234
:10477000030122F00102C0F80428002203924FF442
:1047800084620261039A013203928A4202D802696A
:104790009206F7D40022049210220261049A013298
:1047A00004928A4202D80269D206F7D400214FF05F
:1047B00000624FF6FF334FF09047002610E000BF35
:1047C000C0F80029C0F8002B85192036802EC5F8C6
:1047D0001019C5F80839C5F8101BC5F8083B14D0E6
:1047E000002EEDD08519D5F8004907EAE474C5F824
:1047F0000049D5F8004BB4F1FF3F03DDC5F8001BBD
:10480000E2E700BFC5F8007BDEE7D0F81C1841F0F6
:104810000111C0F81C180921C0F814180121C0F8B2
:10482000101840F20020A021C2F20000FBF71EFF8A
:104830000020002401F0C4FFD9F80400C0F8104B98
:10484000D0F8101B41F40021C0F8101BD0F8101B49
:1048500041F01801C0F8101BD0F8101B41F0C04106
:10486000C0F8101B5FEA88407FF557AFD9F8040005
:10487000416941F40051416140F20001C2F200017E
:104880000968D0F80828920702D44FF4105178E054
:1048900045F2403243F20053CFF62772C0F20C03C8
:1048A0000A449A4202D24FF470516AE041F64062E3
:1048B00044F24023CFF61B72C0F20F030A449A421F
:1048C00002D24FF460515CE0A1F5740244F68073AB
:1048D000A2F51052C0F212039A4202D24FF4505184
:1048E0004FE0A1F183724DF22063A2F5E742C0F2DE
:1048F00013039A4202D24FF4405142E04BF26062FD
:104900004EF26033CFF6E562C0F216030A449A42D3
:1049100002D24FF4305134E04DF2003247F240738E
:10492000CFF6CE62C0F21B030A449A4202D24FF481
:10493000205126E045F6C03249F2C013CFF6B362EB
:10494000C0F221030A449A429FD3A1F1B77247F201
:104950002053A2F55852C0F238039A4202D24FF4C3
:1049600000510EE045F2E04249F6E043CFF65962CD
:10497000C0F241030A444FF4C0519A4238BF4FF489
:10498000E051C26842F00702C260C26822F470526D
:10499000C260C2681143C160D0F8041841F480714C
:1049A000C0F804185FEA88207FF5BBAED9F8040090
:1049B00040F20022C2F2000200F53263D0F81C1867
:1049C0005A32090C01270DE026F080561E601E6841
:1049D00046F000561E6000BF01372033042F02F15D
:1049E000100215D021FA07F6F607F5D01678012E39
:1049F000F2D11E683604EFD5D0F80868F6051E68B7
:104A0000E2D546F080561E601E6826F00056E1E7AB
:104A1000416941F4001141615FEAC8207FF585AE2C
:104A2000D9F8040040F20022C2F2000200F512633D
:104A3000D0F81C181A32090C01270DE026F0805618
:104A40001E601E6846F000561E6000BF013720330E
:104A5000042F02F1100215D021FA07F6F607F5D05F
:104A60001678012EF2D11E683604EFD5D0F808680A
:104A7000F6051E68E2D546F080561E601E6826F0D8
:104A80000056E1E7416941F4801141615FEA087035
:104A90007FF54FAED9F80400416941F0080141614A
:104AA0005FEA08507FF549AED9F80400416941F446
:104AB00000614161B8F1FF3F3FF743AED9F8040010
:104AC000416941F0004141615FEA48707FF542AEC3
:104AD0003AE60000000000007047000000000000FF
:104AE00042F20C00C5F20020016841F001010160B2
:104AF0000168C90708BF7047D0F8001141F00101F3
:104B0000C0F80011D0F8000170470000000000005C
:104B100041F24030C2F2000000687047000000001F
:104B200080B541F65800C2F20000FEF7E5FD80BDF9
:104B300080B541F6580041F20001C2F20000C4F213
:104B400001010C2201604FF4E13141600021C0E914
:104B500002110161C0E90521C0E90711C0E909118D
:104B6000FEF7EAFD18B1EFF3108072B6FEE741F6EA
:104B700058000021C2F20000FEF772FD18B1EFF3F9
:104B8000108072B6FEE741F658000021C2F2000024
:104B9000FEF71AFD18B1EFF3108072B6FEE741F68A
:104BA0005800C2F20000FEF7F3FC002808BF80BDE9
:104BB000EFF3108072B600BFFEE7000000000000B7
:104BC0002DE9F04F85B0142000F0C2FE002800F15E
:104BD0004D83014621380F2800F29080DFE810F065
:104BE000100026004E008E008E008E0095008E0074
:104BF000AC008E008E008E008E008E008E00F600BF
:104C000048F20A40C0F6000000F066FE4FF47A70E9
:104C100000F09EFE202840F0148341F24030C2F2A2
:104C20000000016841F00101016027E248F21C40E8
:104C3000C0F6000000F050FE4FF47A7000F088FEDD
:104C4000002800F1FE820446022000F081FE2028A8
:104C500040F0F782601E042800F2F38248F26401FB
:104C6000C0F60001DFE810F0F2010500E601EC01FA
:104C7000F70140F20C01C2F20001E7E148F23040D6
:104C8000C0F6000000F028FEC82000F061FE2028D9
:104C900040F0D78241F24035C2F20005286800F0AA
:104CA0000300032840F0CD820024C0F60204204611
:104CB00000F0BAFC00F044FC04F5003000F0B4FC55
:104CC00000F03EFC40F2080604F58027C2F2000620
:104CD0002046346000F030FE013040F0B28230688F
:104CE00001303060B842F5D34FF47A703460FCF78D
:104CF000A7FD286840F004002860BFE148F2EA40C0
:104D0000C0F6000000F0E8FDB8E10FF2186000F016
:104D1000E3FD322000F01CFEB0F1FF3F40F3808045
:104D20000546800700F0818048F243502946C0F6CE
:104D3000000000F0D1FD84E20FF27C5000F0CCFDC9
:104D4000022000F005FE202840F07B8241F6281664
:104D5000C2F200063078002800F0A8800FF26850F8
:104D600000F0BAFD40F20808012080F31088C2F27A
:104D7000000841F2A0243278C2F20004D8F8000002
:104D8000214602F059FB002080F3108841F2C02533
:104D90003278C2F20005D8F80000294600F0C0FDC4
:104DA000307888B141F2A02141F2C022C2F2000164
:104DB000C2F2000213680F68BB4251D1013801F101
:104DC000040102F10402F5D117204AE00FF2D840A5
:104DD00000F082FD4FF47A7000F0BAFD202840F018
:104DE000308241F24030C2F20000006800F01B0047
:104DF0001B2840F0268241F21200ADF8100048F264
:104E00001440C0F6000000F067FD04A90020022253
:104E100000F0D2FD6420FCF713FD05B0BDE8F08F73
:104E200048F25150C0F6000009E240F208000021AB
:104E3000C2F20000C0F6020101F58021006828449A
:104E4000884204D948F25950C0F60000F7E1B5F5A0
:104E5000807F40F29F8048F26750C0F60000EEE18C
:104E60000320032800F0ED81172840F0FF81D8F8D7
:104E700000100FF2684000F02FFD3078D8F80010D5
:104E800001EB8000C8F8000000203070C5E9000088
:104E9000C5E90200C5E90400C5E90600C4E900004F
:104EA000C4E90200C4E90400C4E9060041F64C0567
:104EB00041F24440C2F20005C2F2000029680268D3
:104EC0000FF2304000F008FD40F20C094FF6FE7181
:104ED000C2F20009CFF2FD71D9F80800013888420A
:104EE00044D840F2000848F2203604A8C0F6020870
:104EF00041F24847CEF6B856A0F1010B0024C2F2A9
:104F00000007C246504600F017FD2968AC464144F0
:104F10008A45796828BF4FF0FF30049081B900209E
:104F20000821024686EA5203D50708BF5308013913
:104F30001A46F7D147F820200130B0F5807FEFD135
:104F400004205946E3B211F8012F013882EA030226
:104F500057F8222082EA1424F4D1D9F808000AF183
:104F6000040A404465468245CCD300E00024E8A012
:104F7000214600F0B1FC04A900200422049400F0B2
:104F80001BFD41F24030C2F20000016841F0100107
:104F9000016073E0002D2E4618BF01261DD04FF48E
:104FA0007A7000F0D5FC002814D441F244376E1E0C
:104FB0000024C2F20007A64238550ED04FF47A7092
:104FC00000F0C6FC002804F10104F4D50026AC4230
:104FD000B8BF0126002E40F03481C82000F0B8FC94
:104FE000202840F02B81E81741F64C01C2F2000165
:104FF000042D05EB90704FEAA00820F003000A682A
:1050000010440860C0F2358141F2443C48F2203A35
:10501000C2F2000C41F6281E41F2484BACF10109E6
:10502000CEF6B85AC2F2000EC2F2000B0027CDF83D
:105030000C8071E040F20C00C2F20000011D05E09E
:1050400040F20C00C2F2000000F10801002004222E
:1050500000F0B2FC0AE00425002604AC0020042283
:105060002146049600F0A8FC013DF7D141F2403002
:10507000C2F20000016841F00201016041F2120039
:10508000ADF8100048F21440C0F6000000F024FC17
:1050900004A90020022200F08FFC05B0BDE8F08FCB
:1050A0004FF000084FF0110038BF4FF00108B8F181
:1050B000000FDDF80C8040F0DD8048F2325031689E
:1050C000C0F6000000F008FC41F6281E41F2A021C5
:1050D000C2F2000EC2F2000141F2443C3068C2F25A
:1050E000000C2030306000208EF80000C5E9000080
:1050F000C5E90200C5E90400C5E90600C1E90000F0
:10510000C1E90200C1E90400C1E90600013709F163
:105110000409474500F0AD809EF8000041F2A0224E
:10512000C2F200025CF8271042F82010411C41F244
:105130004440DBF80420C2F200008EF80010006842
:1051400082B90024082322468AEA5206D50708BFFE
:105150005608013B3246F7D14BF824200134B4F510
:10516000807FEFD104224B46C5B213F8016F013A9C
:1051700086EA05065BF8266086EA1020F4D1C9B2FB
:1051800040F20805082941F24441C2F20001C2F28E
:1051900000050860BAD341F2A0264FF0010888F359
:1051A0001088C2F2000628680822314602F044F94D
:1051B000002484F31088286841F2C025C2F200055B
:1051C0000822294600F0ACFB28683268904220D1C2
:1051D00041F2A02341F2C02540F208060024C2F2A9
:1051E0000003C2F20005C2F20006072C3FF458AFDC
:1051F00005EB840003EB8401013440684A68904267
:10520000F3D0611E4FF00008072938BF4FF00108A6
:1052100007E041F2C02540F20806C2F20005C2F2E2
:105220000006CDE9000248F2FF403168C0F60000F8
:105230003A46234600F050FB032038E73EA000F03A
:105240004BFB41F21230ADF8100048F21150C0F69D
:10525000000000F041FB04A900200222002400F01D
:10526000ABFB41F24030C2F20000046005B0BDE883
:10527000F08F0E200328E4D00E28F7D141F6281035
:105280004146C2F20000027848F22150C0F6000008
:1052900000F022FB41F24030C2F20000016841F010
:1052A00008010160EAE600BF50524F544F5F424F81
:1052B0004F54200D0A00000050524F544F5F474595
:1052C000545F4352432000004C6173742070726F2E
:1052D0006772616D3A207C20000000004C6173749D
:1052E0002070726F67207375636365737320257810
:1052F0002000000066696C652073697A653A202594
:1053000064206279746573206372632025782000BD
:10531000726561642063616C20637263202578206C
:105320000000000050524F544F5F50524F475F4DA6
:10533000554C5449200000007761697420656F6303
:1053400000000000000000004EF6800040F20C0259
:10535000C1F6F1700021C2F20002CFF6FE710068C2
:1053600001EB8020906070472DE9F04182B00E463D
:1053700049782039032912D80446B5881746DFE852
:1053800001F0021D2E3EF2886E4639683046FBF76A
:1053900020F9E9B22046324600F016FE33E01CA0A8
:1053A00000F09AFA71781EA000F096FA26A000F09C
:1053B00093FA4FF0FF3002B0BDE8F081E9B26A46DF
:1053C0002046984600F0DCFD38680099DDF803209F
:1053D000C0F8032001600720C8F8000013E07088BF
:1053E000EEB200F001023146C0F34007204600F063
:1053F000E3FD204631463A4600F0EAFD03E0E9B21B
:10540000204600F0D5FD002002B0BDE8F08100BFCD
:105410001B5B33336D5B572F5553425D20000000FB
:10542000556E68616E646C65642043444320436C30
:1054300061737320625265717565737420307825CD
:105440003032780D0A0000001B5B306D0000000058
:10545000B0B540F6A02243F23903C2F200020C4676
:10546000054602F10A00138143F23123C3F23343AC
:10547000136043F2356340F2F671C3F637035360AD
:105480006122FBF7EBF848F268012846C0F60001FC
:1054900000F0A2FD41F6E4012846C2F2000100F04E
:1054A0007BFD0146284600F02BFD41F60011284601
:1054B000C2F2000100F070FD0146284600F020FD18
:1054C00040F224012846C2F2000100F0F9FC40F24B
:1054D0001C012846C2F2000100F0F2FC46F2917273
:1054E0002846C0F60002214601F0C2F9B0BD000016
:1054F00080B54EF2180140F20002CEF20001C2F275
:1055000000024DF6836351F804CC1268C4F21B33D9
:10551000A2FB03239A0C002302FB00FE086800BFD5
:105520000A689042FCD003449042A3EB0203104669
:1055300098BF63447345F3D380BD000000000000B2
:10554000B0B542F20C04C5F200242168C9070ED0A0
:1055500040F22311C4F2675144F8081C48F6AB111D
:10556000CCF6EF5144F8081C2168C90711D1D4F8D2
:105570000011C9070DD040F22311C4F26751C4F8DD
:10558000F81048F6AB11CCF6EF51C4F8F810D4F887
:10559000001107280AD82168254621F4E06121601E
:1055A000216821F030012160010213E0D4F80011DC
:1055B00004F5807521F4E061C4F80011D4F80011FD
:1055C00021F03001C4F800114FF60001CFF6FF7151
:1055D00001EB00212A68C00811432960296841F0C5
:1055E00020012960296841F004012960296841F0FF
:1055F000800129604FF4FA6101F0AEFE296821F0C4
:1056000004012960216841F0010121602168C90776
:1056100008BFB0BDD4F8001141F00101C4F8001179
:10562000D4F80011B0BD00000022C0F60202904282
:1056300001D200207047014602F50030814201D2BC
:105640000120704702F58020814201D2022070477C
:1056500002F5C020814201D20320704702F50020EC
:10566000814201D20420704702F52020814201D2FC
:105670000520704702F54020814201D20620704784
:10568000B1F1016F01D20720704702F5801081420D
:1056900001D20820704702F59010814201D2092002
:1056A000704702F5A010814201D20A20704702F52E
:1056B000B010814201D20B20704702F5C010814228
:1056C00001D20C20704702F5D010814201D20D208A
:1056D000704702F5E0120F20914238BF0E2070474C
:1056E00080B5FCF741FA80BDB0B50024C0F60204D5
:1056F0002068013009D06068A0420AD248F24440D4
:10570000C0F6000000F0E8F8B0BD1DA000F0E4F81D
:10571000B0BD40F20C01C2F2000189682144884208
:1057200027D2012080F310884EF21005CEF200053A
:10573000FFF7D6F9FDF72CFA00204FF0FF31286073
:105740006860A86005EB800201300828C2F870117B
:10575000C2F87012F6D1FFF7E3F9002080F3108849
:10576000D4E9001281F3088880F31488904700BFC1
:10577000FEE748F29740C0F6000000F0ADF8B0BD7B
:105780006A756D7020657272636F64652030783061
:10579000313A2074686520666972737420776F727D
:1057A00064206F66207468652061707028737029AA
:1057B00020657272200D0A00B0B59CB044F6180442
:1057C00009A84C21C5F60204FAF750FF0220002573
:1057D000CDE90755CDE90555CDE90355CDE901558D
:1057E000FCF79AFA40F22C400095C5F600000168DB
:1057F00021F001010160006800F0010000902068C4
:1058000040F440402060206800F440400090009840
:1058100020688004FCD5212009904FF480300A9044
:1058200001200F9002200521CDE912001491A02142
:10583000CDE91510CDE9170009A808241994002511
:10584000CDE91A55FDF790FB3F20019003204FF45E
:105850008061CDE9020540200494CDE90500CDE941
:10586000071001A80221FDF767F81CB0B0BD0000C9
:1058700040F200000021C2F20040018000F060F818
:105880004FF47A70FBF7DCFFFFF752F9FFF75CFD8E
:1058900000210020C4F20801FFF7DAFDFFF720FF26
:1058A000044640F6B93500BFFFF78AF9FFF718FF45
:1058B000001BA84207D3FFF72BF900F003000328D1
:1058C00001D0FFF711FFFFF723F900F01B001B28A1
:1058D000EAD1FFF709FFE7E783B010B5C1B001AC2B
:1058E000CDE943120246459343AB4FF48071204605
:1058F0000093FAF731FE2046FAF74CFE82B241F6E9
:105900005800C2F200004FF47A732146FDF7B0FF51
:1059100041B0BDE8104003B0704700000000000037
:10592000002A08BF70470439013A50F8043B41F897
:10593000043FF9D170470000006870470000000084
:1059400080B5FCF729F9FFF737FF80BD00000000A4
:1059500080B541F61C1241F6201E40F2A02C411EDB
:10596000C2F20002C2F2000EC2F2000C106888B14E
:10597000DEF800001368984212D2DEF800001CF82E
:105980000000DEF800300133CEF80030B0F1FF3F08
:105990000BDD0EE04FF0FF30B0F1FF3F05DD08E01A
:1059A0006FF00100B0F1FF3F03DC0029A1F101011C
:1059B000DCD180BD0000000010B541F6490413465B
:1059C000C2F200040A4601212170812100F020FD6D
:1059D00020780028FCD110BD2DE9F04F83B040F2B3
:1059E0000020A021C2F20000FAF740FE00F020FAE9
:1059F00041F6500648F2CE24C2F20006C0F600047A
:105A00007068816CD0F848B0C1F3012A826C806C58
:105A1000C2F3C109C0F38327204607F10108FFF74D
:105A20005BFF48F2EF20C0F60000FFF755FF48F299
:105A3000EA25C0F600052846FFF74EFF2046FFF78F
:105A40004BFF7068C16BD5A0FFF746FF2846FFF7F4
:105A500043FF2046FFF740FF7068016C48F2E130D9
:105A6000C0F60000FFF738FF2846FFF735FF204655
:105A7000FFF732FF7068416C48F2D230C0F6000088
:105A8000FFF72AFF2846FFF727FF2046FFF724FFEE
:105A90007068816CC4A0FFF71FFF2846FFF71CFF4A
:105AA0002046FFF719FF7068C16CC3A0FFF714FF11
:105AB0002846FFF711FF2046FFF70EFF7068016DC3
:105AC000C1A0FFF709FF2846FFF706FF2046FFF7B2
:105AD00003FFCBF3811BC0A051465A464B46FFF74C
