:020000040800F2
:10000000D028002029040008E1760008516D00087E
:10001000D97600082919000869840008000000004A
:10002000000000000000000000000000F176000861
:10003000411F000800000000E9760008F97600087A
:100040004304000843040008430400084304000874
:100050004304000843040008491F0008C91F0008A2
:10006000D91F0008E91F0008F91F0008311900080E
:10007000511900087119000891190008B1190008F8
:10008000D1190008F1190008430400086120000894
:100090009120000879200008A92000080920000804
:1000A00043040008B177000843040008997700086A
:1000B000C9770008E1770008F9770008716D00083A
:1000C000596D0008A16D0008896D000843040008FF
:1000D00043040008098400082184000839840008CA
:1000E000591F0008430400080000000043040008F2
:1000F000717800084304000859780008111A0008B4
:100100004304000843040008117800084304000871
:1001100089780008A178000829780008417800084B
:10012000311A0008511A0008711A0008911A0008C3
:10013000B11A0008430400084304000843040008FF
:1001400000000000000000000000000000000000AF
:10015000D11A0008F11A0008111B00085184000888
:10016000D16D0008B96D000843040008430400087D
:100170004304000843040008430400080000000092
:100180004304000843040008B9780008D178000847
:100190004304000843040008430400084304000823
:1001A0004304000843040008430400084304000813
:1001B000430400084304000843040008016E0008DB
:1001C000E96D0008430400084304000843040008E4
:1001D00043040008430400084304000843040008E3
:1001E00043040008430400084304000843040008D3
:1001F00043040008430400084304000843040008C3
:1002000043040008430400084304000843040008B2
:1002100043040008430400084304000843040008A2
:1002200043040008430400084304000800000000E1
:1002300043040008430400080000000043040008D1
:100240004304000843040008430400084304000872
:100250004304000843040008430400084304000862
:100260004304000843040008430400084304000852
:100270004304000843040008430400080000000091
:100280004304000843040008430400080000000081
:10029000000000004304000800F002F800F0B4F889
:1002A0000AA090E8000C82448344AAF10107DA45D1
:1002B00001D100F0A9F8AFF2090EBAE80F0013F06F
:1002C000010F18BFFB1A43F00103184768A1000093
:1002D00098A100000A4410F8014B14F00F0508BF64
:1002E00010F8015B240908BF10F8014B6D1E05D002
:1002F00010F8013B6D1E01F8013BF9D1641E03D0DB
:10030000641E01F8015BFBD19142E4D37047000009
:10031000103A24BF78C878C1FAD8520724BF30C831
:1003200030C144BF04680C60704700000023002403
:1003300000250026103A28BF78C1FBD8520728BFF5
:1003400030C148BF0B6070476E2900F0B58270293C
:1003500000F0F983662909F05B86652909F0588663
:10036000672909F05586612909F0548603681B0A3C
:1003700028BF41F08001692900F06282642900F001
:100380005F82752900F05C826F2900F087837829ED
:1003900000F0C583E92900F02183E42900F01E83E1
:1003A000F52900F01B83EF2900F08483F82900F081
:1003B000C4830368DB0928BF41F08001632901F091
:1003C000E380732901F0E880E32901F0F380F32949
:1003D00001F0F880002070471FB509F00CFE9DE881
:1003E000030000F06DF901F04BF90400002000213A
:1003F00009F0A6FD401C60600020002109F08AFD84
:10040000E0601FBD10B510BD01F00CF91146FFF7FB
:10041000E3FF09F0B1F801F0E9F903B4FFF7F2FFE7
:1004200003BC01F019FA0000094880470948004759
:10043000FEE7FEE7FEE7FEE7FEE7FEE7FEE7FEE794
:10044000FEE7FEE704480549054A064B70470000F1
:100450000977000899020008D0080020D028002061
:10046000D0180020D018002070B5064600F00CF916
:10047000056806F10B0020F00704B4429CBF002081
:1004800070BD2B466A68BAB11068A04210D304F15F
:10049000080188423CBF5068586007D35168101962
:1004A00041601168091B016058601460101D70BD27
:1004B00013465268002AE7D12146284600F0ECF89E
:1004C0000028DED170BD53EA020C00F069802DE9EE
:1004D000F04B4FF00006002B1FBFB3FA83F503FA71
:1004E00005F424FA05F65E4012BF1643B2FA82F50F
:1004F00002FA05F4C5F120051EBF22FA05FC44EA04
:100500000C04203556EA044C4FEA144418BF641C0E
:100510004FF000084FF00009904271EB030C39D303
:10052000002919BFB1FA81F701FA07F6B0FA80F78E
:1005300000FA07F6C7F120071EBF20FA07FC46EABB
:100540000C062037B6FBF4FCA7EB0507103F07F0BD
:100550001F0BCBF120062CFA06F60CFA0BFB44BF5E
:10056000B3460026202FA4BF5E464FF0000B5BEA87
:10057000060C08BF4FF0010B19EB0B0948EB0608FE
:10058000ABFB027C06FB02CC0BFB03CCC01B71EB6C
:100590000C01C1E70B46024641464846BDE8F08BD8
:1005A00013B5084318BF4FF0FF300146AFF300808A
:1005B000BDE81C40704700007CB51D4616460C0087
:1005C000009007D04142A14202D32044401E01E0E6
:1005D0004FF0FF30064B7B442A4669460190304677
:1005E00000F083F9002C02D0009A002111707CBD2C
:1005F0003703000010B5431C02E010F8011B71B175
:100600008107FAD14FF0013202C88C1A8C4314EAE8
:10061000C211F9D0C01A0A0603D0C01E10BDC01AFC
:1006200010BD0A0401D0801E10BD0902FCD0401E7E
:1006300010BD4FF0000200B513469446964620398F
:1006400022BFA0E80C50A0E80C50B1F12001BFF48B
:10065000F7AF090728BFA0E80C5048BF0CC05DF8F1
:1006600004EB890028BF40F8042B08BF704748BF3F
:1006700020F8022B11F0804F18BF00F8012B7047B3
:100680007047704770470000004870472000002006
:10069000704770477047704738B504460A460020D7
:1006A0006946AFF30080002808BF38BD02460099B4
:1006B000204600F01BFB012038BD012000F0AABF3E
:1006C000F8B5AFF30080054600200C46102000BFAF
:1006D0000646A819A0420DD9324669460020AFF35C
:1006E0000080070008BF00F095FF0098A04218BFE7
:1006F0000546C419FFF7C8FF05600746F01D20F046
:1007000007004619284600F00AF8B44208BFF8BDB1
:10071000A21B31463868BDE8F84000F0E7BA002176
:100720000160C0E9011070471020704770B50446A1
:10073000051FFFF7A9FF0068002C14BF446870BDB7
:10074000002C18BFAC423CBF20466468F8D3016857
:100750000A18AA4218BF456003D12A680546114409
:10076000016028684119A1421CBF6C6070BD6168BE
:10077000696021680844286070BD70B504468569C9
:100780000068C10601D5302600E02026C00707D04A
:1007900070BDD4E9012130469047206A401C206298
:1007A0006D1EF6D570BD70B5044685690078C0072A
:1007B00007D170BDD4E9012120209047206A401C58
:1007C00020626D1EF6D570BD09684A0501D540B29C
:1007D0007047C905FCD500B2704709684A0501D5C4
:1007E000C0B27047C905FCD580B2704770B50C46E1
:1007F0000546012A05D02878800600D5EA6900233D
:1008000002E0012305E05B1C934202D2E05C002879
:10081000F9D1A869E618C01AA861286A18442862A4
:100820002846FFF7AAFF04E0D5E9012114F8010BDF
:100830009047B442F8D32846FFF7B5FF70BD0000DB
:100840002DE9F0410646002410687529314616A5A9
:1008500010D0FFF7B9FF002802DA404213A507E0E5
:1008600031688A0701D512A502E0490704D511A510
:10087000012401E0FFF7B1FF00210A2206F124075D
:1008800009E0B0FBF2FCB0FBF2F302FB1C003030DD
:1008900078541846491C0028F3D123462A4630468E
:1008A000BDE8F04100F081BA000000002D0000001A
:1008B0002B0000002000000011680268006A530548
:1008C00001D508700AE0D30501D5088006E01306BB
:1008D00003D5C217C1E9000200E00860012070479B
:1008E00001694A1C02610878704700B58FB0CDE9F4
:1008F00001310021059105497944CDE903101146E4
:10090000684600F02BF90FB000BD0000E5FFFFFFC7
:10091000D1E900239A4202D2531C0B601070704739
:100920002DE9FF5F15468A460446DFF8AC80F8449F
:100930000027D8E900103E46CDE9001010E03AF853
:1009400016106A4602A800F041FE411C07D021782B
:10095000890603D5E269391891420DD80744761CFF
:100960002078800602D5E069B84205DDAE42E6DBBC
:100970003AF816000028E2D1A069C01BA061204609
:10098000FFF7FBFED8E90010CDE90010002017E0CA
:100990003AF818106A4602A800F018FEB0F1FF3FBE
:1009A00081460BD000250DF1080B05E0D4E90121AB
:1009B0001BF8050090476D1C4D45F7D308F1010069
:1009C000B0428046E4DB206A384420622046FFF7CC
:1009D000EAFEBDE8FF9F0000E69600002DE9F04129
:1009E0008046D21D22F007020025D2E90002F52937
:1009F00015A614D0011E72F1000106DA0023D0EB17
:100A0000030063EB020211A608E0D8F800108B0780
:100A100001D50FA602E0490701D50EA60125114612
:100A2000002408F1240704E000F07AF930323A5546
:100A3000641C50EA0102F7D12B463246214640465B
:100A4000BDE8F04100F0B1B9000000002D00000049
:100A50002B0000002000000030B4002100F124042D
:100A600008E002F00705D208303542EA4372DB089D
:100A70006554491C52EA0305F3D10468002310A20F
:100A8000250708D504F020040C4304D0C4690123D1
:100A90000CA2641EC46130BC00F087B910B50446D6
:100AA00021461068FFF799FE02462046BDE8104037
:100AB0000023D1E7D21D22F00701D1E90023CBE7C3
:100AC0000000000030000000F0B40D460188090568
:100AD00002D5214C7C4402E01F4C7C440E340021A2
:100AE00000F1240608E002F00F071209E75D42EA70
:100AF00003721B097754491C52EA0307F3D10278A9
:100B00000023120704D5702D06D009B10223113439
:100B10002246F0BC00F049B901231034F8E770B563
:100B200004460D4621461068FFF757FE0246294647
:100B30002046BDE870400023C6E7D21D22F007031F
:100B4000D3E90023C0E70368126843F02003036081
:100B50000823C3610023B7E7489500002DE9F05F43
:100B6000894604464FF0000ADFF874B1FB44C0F830
:100B700020A02046E1688847002874D0252806D0A8
:100B8000D4E901219047206A401C2062F1E7002649
:100B90005F462046E16888472028054607DB312D5F
:100BA00005D2781910F8200C08B10643F1E7B00718
:100BB00001D526F00406C4F81CA00027C4F818A02C
:100BC0002A2D09D0284609F09DF938B304EB87088F
:100BD000303DC8F8185019E059F8041B204604EBC2
:100BE00087029161E1688847012F054618D1E069C5
:100BF000002820DA26F020061DE0D8F8180000EBC7
:100C0000800005EB40003038C8F818002046E16845
:100C10008847054609F076F90028EED1012F0AD061
:100C20002E2D08D12046E16888477F1C0546022FFB
:100C300046F02006C4DBA069002803DA404246F0F3
:100C40000106A061F00701D026F010066C2D0BD034
:100C5000682D09D04C2D39D06A2D35D0742D35D062
:100C60007A2D33D016E038E0E1682F4620468847D9
:100C7000B842054609D16C2F26D04FF48060E16858
:100C8000064320468847054604E06C2F1AD04FF4EF
:100C9000807006430DB3A5F14100192802D8203514
:100CA00046F400664A462946204626604E46FFF72F
:100CB0004BFB80B101280BD0F61D26F0070000F198
:100CC000080956E74020E4E78020D8E70020D6E76F
:100CD00006F104094DE7284652E7206ABDE8F09F77
:100CE000D894000000487047180000200346406870
:100CF0008C46002818BF88423CBF03464068F8D3A2
:100D000018681844884207D00CF1030020F007004F
:100D1000001D411A521A0146081D0A60FFF706BD60
:100D200030B5B0F10A0271F100034FEA900E4EEABD
:100D3000817EB0EB0E0061EB91014FEA101E4EEA8E
:100D4000017E10EB0E0041EB11114FEA102E4EEA1E
:100D5000016E10EB0E0041EB11214FEA104E4EEAEE
:100D6000014E10EB0E0041EB1141401841F1000122
:100D70004FEAD00040EA41704FEAD1014FEA8104C6
:100D800044EA907410EB800544EB01046D1944EBC8
:100D90000404521BA3414FF0000348BF0A3200D5A0
:100DA00030BD401C41F1000130BD2DE9F0470D463A
:100DB00099469246044600F124080168880604D545
:100DC000E06921F01001216000E00120A84201DD6E
:100DD000471B00E00027A1697A1902EB0900081AF5
:100DE000A0612078C00602D42046FFF7C6FC00268A
:100DF00008E0D4E901211AF806009047206A401C57
:100E0000761C20624E45F4DB2078C0060AD52046C9
:100E1000FFF7B3FC06E0D4E9012130209047206AB7
:100E2000401C2062381EA7F10107F4DC07E0D4E97A
:100E3000012118F805009047206A401C2062281EF6
:100E4000A5F10105F3DC2046FFF7ADFC2078000694
:100E500002D50220BDE8F0870120FBE72DE9FF4F16
:100E60000C461E464FF0FF378BB0D2E90001DDF88B
:100E700060800A908A46C1F30A5505B93D460021B3
:100E800008464FF00000BAF1000F00F4400005DA08
:100E900000EB80004FF4400101EA50004FEA905906
:100EA000B9F1010F00DDB9460A9850EA4A000ED0A8
:100EB00044F61050A5F2FF3545432F14B8F1000F4A
:100EC0001ED07542291E1EDDC9F100021CE0B8F1DA
:100ED000010F4FF0000001D0302103E0F24305E0A4
:100EE0002154401CB042FBDB30460022002121543B
:100EF0000B99C1F80880C1E900200FB0BDE8F08F60
:100F0000BD1B6D1CDEE74A4600DA694206A800F008
:100F1000FBFB06AB93E8070003AB83E807005046F2
:100F20000A9908F00EFC8DE80700A0F500501F3864
:100F300000900398002D0ADD42F21F014A46084442
:100F4000002303A90390684608F078FE09E0A0F5A5
:100F500000504A461F38002303A90390684608F052
:100F600082FE8DE807000004000C03D04FF0FF3034
:100F7000410800E01046B8F1000F03D000220092B3
:100F800015461EE0751E05D4FFF7CAFE30326255C5
:100F90006D1EF9D5B3460122084302D000227F1C02
:100FA00004E02078302801D100227F1E002A099712
:100FB00084D01DE0112D07DAFFF7B2FE3032625502
:100FC0006D1C50EA0102F5D1084302D00098C8B167
:100FD0000EE00021681E05E0235C625C635422542D
:100FE000401E491C8142F7DBAB46A81B401E0990FE
:100FF000002004F80B000B98099AC0F80880C0E99B
:10100000002B7AE711264FF0000857E72DE9F04F43
:1010100088460446D21D22F0070191B0D1E90001B3
:10102000CDE90A0108F056FF02460B98C00F01D027
:101030002D2007E02068810701D52B2002E0202128
:1010400001EAC000032A099001D0072A05DB034604
:101050004146204600F018FB0BE12078800601D5C0
:10106000E06900E00620B8F1650F814606D0B8F1CE
:10107000660F18D0B8F1670F70D131E00020B9F1D8
:10108000110F009001DB112301E009F101030AAA0D
:1010900001A90CA8FFF7E2FEDDE90C70002609F1BA
:1010A0000105834647E001204B4600904FF0004782
:1010B0000AAA01A90CA8FFF7D1FEDDE90DB00C9931
:1010C0005D46002610B909F101000D18B9EB0500C5
:1010D00003D4C0F1FF3609F10105A5EB09002BE0AF
:1010E000B9F1010F01DA4FF001090020B9F1110F38
:1010F0000090484601DD112300E003460AAA01A939
:101100000CA8FFF7ABFEDDE90C704D4600268346C8
:10111000207800070AD4AB4500DA5D4601A8012D0E
:1011200004DD411911F8011C302907D04F4502DABE
:1011300017F1040F04DA012082460FE06D1EEEE77E
:10114000002F02DCED1B3E4403E0781CA84200DDCA
:101150007D1CB81B00F1010A4FF000472078000702
:1011600003D4AA4501DB4FF0FF3A0021B7F1004F4D
:101170000DF143088DF8431024D002202B23002FBB
:1011800001DA7F422D230A21021EA0F1010000DCBA
:101190005FB197FBF1FC97FBF1F201FB1C7C17465A
:1011A0000CF1300C08F801CDEEE7A8F10100037056
:1011B0002188090501D5452100E06521A0F101083C
:1011C00000F8011C09980FA9A1EB0807FF1D00B149
:1011D0000120411901EBEA70A1693844081A401E48
:1011E000A0612078C00602D42046FFF7C6FA09980D
:1011F00028B1D4E901219047206A401C2062207860
:10120000C00622D52046FFF7B8FA1EE0002E04DB08
:10121000B34502DD01A8805D00E03020D4E9012162
:101220009047206A401C2062761CAAF101005FEA08
:10123000000A0AD100F024FAC0680168405CD4E9D1
:1012400001219047206A401C2062281EA5F101055B
:10125000DCDC07E0D4E9012118F8010B9047206A93
:10126000401C2062381EA7F10107F3DC2046FFF77F
:101270009AFA032011B041E62DE9F04F04460D46DD
:10128000D21D22F0070089B0D0E9009748463946C0
:1012900008F020FE0246F80F01D02D2307E0206859
:1012A000810701D52B2302E0202101EAC0038DF83C
:1012B00020300BB1012000E00020032A824601D03B
:1012C000072A04DB2946204600F0DEF93FE12078BA
:1012D000800601D40D2500E0E569C7F30A560D2DFF
:1012E00049DA00214FEA175B08464FF00000002F53
:1012F00000F4400007DA00EB80004FF4400100EBFF
:10130000D07001EA60008115012901DD4FF0FF3145
:1013100000224FEA850CBCF1180F06D31346ACF13E
:1013200018004FF08052C24003E04FF4801323FABC
:101330000CF30CF10C0CBCF1200F04D3ACF1200C1D
:1013400009FA0CF001E007FA0CF000294FF0004810
:1013500001DD18B90FE00ED140450CD319EB02099D
:101360005F4121B9404502D19F4329EA0209BBEB05
:10137000175F00D0761C2088000502D57B48784492
:1013800002E07A487844193808AA302302F80A3073
:10139000037C0AF10101002E0AF1020A53546A4645
:1013A00002DC4FF0300101E04FF031014FF0010855
:1013B0008DF8001002D0A6F2FF3603E059EA47018B
:1013C00000D06B4E002D02DC2178090704D54FF0C8
:1013D00002082E218DF80110C44600210BE0C7F34E
:1013E00003433F01C35C491C6D1E02F80830052908
:1013F00008F1010801DA002DF1DC00210CE000EB1E
:101400001973491C1B786D1E082902F808304FEA31
:10141000091908F1010801DA002DF0DC21688B06BA
:1014200002D516E0A8F10108E04505DD02EB08034E
:1014300013F8013C302BF5D0B8F1000F09DD02EBB9
:10144000080313F8013C2E2B03D1090701D4A8F19E
:101450000108002D05DD3E2102F808106D1E08F17F
:101460000108407C002E02F8080008F1010804DAA7
:101470002D20764202F8080002E02B2002F8080036
:101480000A214FF47A70864208F101080BDB96FBC3
:10149000F0F3303302F8083096FBF0F308F101085E
:1014A00000FB136601E0642E0CDB642096FBF0F376
:1014B000303302F8083096FBF0F308F1010800FB26
:1014C000136601E00A2E06DB96FBF1F0303002F8DD
:1014D000080008F1010896FBF1F001FB10603030C4
:1014E00002F80800A16908F1010808EB050202EB07
:1014F0000A00081AA0612078C00602D42046FFF72F
:101500003CF9216A08AE01EB0A00206204E0D4E94C
:10151000012116F8010B9047BAF1010AF7D22078A1
:10152000C00602D52046FFF728F96E4609E016F8F6
:10153000010B3E280FD0D4E901219047206A401CBE
:101540002062B8F10108F2D22046FFF72CF909B069
:101550000320BDE8F08F206A2844206203E0D4E92C
:101560000121302090476D1EEBD3F8E7EA8C000094
:1015700002FCFFFF10B5436913B1AFF3008001E037
:10158000FFF734F9012010BD127800F124010A7030
:1015900000224A700122EDE711684FF0FF32E9E7BF
:1015A00010B5436913B1AFF3008001E0FFF7B8F95C
:1015B000012010BD128800F1240182840022C2841F
:1015C0000122EDE711684FF0FF32E9E72DE9F04124
:1015D00016460C46054600F04BF8036893F80101E7
:1015E000012807D0FF2C12D8185D80B101202C7083
:1015F000BDE8F081D3F807013246214603F2071314
:10160000C7182846BC46BDE8F041002360474FF0AC
:10161000FF30EDE710B500F0F7F8BDE8104000F03E
:10162000EEB870477546FFF75DFBAE4605006946AC
:10163000534620F00700854618B020B5FEF702FF9C
:10164000BDE820404FF000064FF000074FF00008C3
:101650004FF0000BAC46ACE8C009ACE8C009ACE800
:10166000C009ACE8C00921F007018D4670470000B1
:1016700010B500F005F8001D10BD00BFC5880000C2
:1016800000487047380000202DE9F0411F4604460D
:1016900003260168072A01F4006004DB08B116A5DF
:1016A00005E016A503E008B115A500E015A521F099
:1016B00010002060A069C01EA0610FB1401EA06193
:1016C0002046FFF75AF84FB1D4E901213846904738
:1016D000206A401C2062C01C206206E0206AFAE7F3
:1016E000D4E9012115F8010B9047761EF8D2204667
:1016F000FFF759F8BDE8F0814E414E006E616E0073
:10170000494E4600696E66002DE9F047814616464F
:101710008AB0354878440DC88DE80D0032487844C9
:10172000801C03AC0DC884E80D0041F69B300844D2
:10173000372190FBF1F290FBF1F5A5F1800501FB5B
:1017400012041B3C02D56442012000E00020DFF8B7
:1017500098A080460027FA44AAF1BE0A0EE0E007EE
:101760000AD03246684607EB470101230AEB8101A4
:1017700008F079FA8DE8070064107F1C002CEED188
:10178000194F7F44AE3F19E0E80715D007EB04106E
:101790000DF1180A90E80E008AE80E00C068F042C9
:1017A00001D1981908903246012306A903A808F030
:1017B0005AFA03AB83E807006D10641C002DE3D1D7
:1017C0004FF0010332466946B8F1000F03A802D07A
:1017D00008F034FA01E008F046FAC9E90001C9F856
:1017E00008200AB0BDE8F087E489000010B504467F
:1017F000AFF300802046BDE81040FEF70EBE002883
:1018000001D000F029B8704710B5012805D000219B
:1018100003A000F027F8012010BD09A1F8E700009F
:1018200053494752544D454D3A204F7574206F66C9
:101830002068656170206D656D6F72790000000031
:101840003A2048656170206D656D6F727920636F15
:10185000727275707465640001491820ABBEFEE7B2
:101860002600020070B505460C460A2000E06D1CFB
:1018700000F050F835B128780028F8D102E0641C57
:1018800000F048F814B120780028F8D1BDE8704085
:101890000A2000F03FB8000030B44FF0013C50F88F
:1018A000042BCCFA52F451F8043BD51A20D1FCB9E0
:1018B00050F8042BCCFA52F451F8043BD51A17D146
:1018C000B4B950F8042BCCFA52F451F8043BD51AB1
:1018D0000ED16CB950F8042BCCFA52F451F8043BF9
:1018E000D51A05D1002CDAD030BC4FF0000070477B
:1018F00029BAB1FA81F111F01801D1F12000844028
:10190000F2D1CA40CB4012F0FF0213F0FF0330BC0B
:10191000D01A704708B569468DF800000320ABBEA9
:1019200008BD000000000000FEE70000000000000D
:1019300080B540F6A800C2F200000068002808BF89
:1019400080BDC06F01F0FCFA80BD00000000000007
:1019500080B540F6A800C2F200004068002808BF29
:1019600080BDC06F01F0ECFA80BD000000000000F7
:1019700080B540F6A800C2F200008068002808BFC9
:1019800080BDC06F01F0DCFA80BD000000000000E7
:1019900080B540F6A800C2F20000C068002808BF69
:1019A00080BDC06F01F0CCFA80BD000000000000D7
:1019B00080B540F6A800C2F200000069002808BF08
:1019C00080BDC06F01F0BCFA80BD000000000000C7
:1019D00080B540F6A800C2F200004069002808BFA8
:1019E00080BDC06F01F0ACFA80BD000000000000B7
:1019F00080B540F6A800C2F200008069002808BF48
:101A000080BDC06F01F09CFA80BD000000000000A6
:101A100080B540F6A800C2F20000C069002808BFE7
:101A200080BDC06F01F08CFA80BD00000000000096
:101A300080B540F6A800C2F200000068002808BF88
:101A400080BDD0F8800001F07BFA80BD000000006E
:101A500080B540F6A800C2F200004068002808BF28
:101A600080BDD0F8800001F06BFA80BD000000005E
:101A700080B540F6A800C2F200008068002808BFC8
:101A800080BDD0F8800001F05BFA80BD000000004E
:101A900080B540F6A800C2F20000C068002808BF68
:101AA00080BDD0F8800001F04BFA80BD000000003E
:101AB00080B540F6A800C2F200000069002808BF07
:101AC00080BDD0F8800001F03BFA80BD000000002E
:101AD00080B540F6A800C2F200004069002808BFA7
:101AE00080BDD0F8800001F02BFA80BD000000001E
:101AF00080B540F6A800C2F200008069002808BF47
:101B000080BDD0F8800001F01BFA80BD000000000D
:101B100080B540F6A800C2F20000C069002808BFE6
:101B200080BDD0F8800001F00BFA80BD00000000FD
:101B300040F20F420168C4F20202914210DC6F22AF
:101B4000C4F20202914220DC3F22C4F2020291421E
:101B500036DC1022C4F20202914254D028224EE018
:101B600040F26F42C4F2020291421ADC40F23F425C
:101B7000C4F2020291422ADC40F21042C4F2020294
:101B8000914240D040F2284239E09F22C4F2020242
:101B9000914225DC7022C4F20202914233D08822A5
:101BA0002DE040F29F42C4F2020291421FDC40F25B
:101BB0007042C4F20202914225D040F288421EE0F7
:101BC0004022C4F2020291421DD0582217E040F296
:101BD0004042C4F20202914215D040F258420EE057
:101BE000A022C4F2020291420DD0B82207E040F2D6
:101BF000B842C4F20202914205D040F2A042C4F2BF
:101C0000020291421AD1D0F800C06FF00F024AF6DA
:101C1000AB2352FA8CF2CAF6AA23A2FB033109A322
:101C20005F2AC1F302115B5C40F2FF312CEA010133
:101C3000C36588BF0431816508467047016821F09B
:101C4000FF01F8E70006101600061016000000005D
:101C500070B540F26F44D0F800E0C4F20204D0F84E
:101C600058C0A64519DC9F25C4F20205AE4531DCFB
:101C70005725C4F20205AE4556DC1025C4F2020514
:101C8000AE4500F092802825C4F20205AE4500F072
:101C90008C804025C4F2020584E045F22F45C5F64C
:101CA0000205AE452BDC40F2B745C4F20205AE4555
:101CB00048DC40F27045C4F20205AE4575D040F2F2
:101CC0008845C4F20205AE456FD040F2A045C4F28B
:101CD000020567E040F22745C4F20205AE4540DC4C
:101CE000A025C4F20205AE455FD0B825C4F20205B6
:101CF000AE455AD040F21045C4F2020552E045F21A
:101D00006B45C5F60205AE453CDC45F23045C5F6EF
:101D10000205AE4549D045F24445C5F60205AE453B
:101D200043D045F258453BE05825C4F20205AE4584
:101D30003BD07025C4F20205AE4536D08825C4F2EA
:101D400002052FE040F2B845C4F20205AE452CD0A2
:101D500045F20845C5F60205AE4526D045F21C45BC
:101D60001EE040F22845C4F20205AE451DD040F207
:101D70004045C4F20205AE4517D040F25845C4F2C2
:101D800002050FE045F26C45C5F60205AE450CD0E4
:101D900045F29445C5F60205AE4506D045F28045AC
:101DA000C5F60205AE4540F0C980456EC66E002EF0
:101DB000866E6E601CBFD0E91C566E60A64515DCB1
:101DC0009F24C4F20204A6452BDC5724C4F202046B
:101DD000A6454EDC1024C4F20204A64576D0282481
:101DE000C4F20204A64571D040246BE045F22F44B2
:101DF000C5F60204A64527DC40F2B744C4F202044B
:101E0000A64542DC40F27044C4F20204A6455DD00F
:101E100040F28844C4F20204A64557D040F2A044E0
:101E200050E040F22744C4F20204A6453CDCA02462
:101E3000C4F20204A64549D0B824C4F20204A6455F
:101E400044D040F210443DE045F26B44C5F6020434
:101E5000A6454FDC45F23044C5F60204A6455BD0EA
:101E600045F24444C5F60204A64555D045F258440F
:101E70004EE05824C4F20204A64527D07024C4F2D0
:101E80000204A64522D088241CE040F2B844C4F2E3
:101E90000204A6451AD045F20844C5F60204A64538
:101EA0003AD045F21C4433E040F22844C4F2020424
:101EB000A6450BD040F24044C4F20204A64505D02A
:101EC00040F25844C4F20204A64537D104683F25C5
:101ED0008668C06D00F01F00402E05FA00F0CCF8B7
:101EE0000800206820F480202060636021D0A16079
:101EF000E26070BD45F26C44C5F60204A6450BD005
:101F000045F28044C5F60204A64505D045F2944446
:101F1000C5F60204A64511D10468C66D806806F0B6
:101F20001F060125402805FA06F6CCF80460636018
:101F300002D1A260E16070BDA160E26070BD0000EE
:101F4000704700000000000080B5012002F0FCFE98
:101F500080BD00000000000080B58820C5F60000AC
:101F60000168490514D40168090516D40168C9043B
:101F700018D4016889041AD4016849041CD4006883
:101F8000000458BF80BD4FF4004002F0DDFE80BD6C
:101F90004FF4806002F0D8FE80BD4FF4006002F084
:101FA000D3FE80BD4FF4805002F0CEFE80BD4FF4D2
:101FB000005002F0C9FE80BD4FF4804002F0C4FE24
:101FC00080BD00000000000080B5022002F0BCFED1
:101FD00080BD00000000000080B5042002F0B4FEC7
:101FE00080BD00000000000080B5082002F0ACFEBB
:101FF00080BD00000000000080B5102002F0A4FEAB
:1020000080BD00000000000080B58820C5F60000FB
:102010000168890611D40168490612D401680906CD
:1020200013D40168C90514D40068800558BF80BD69
:102030004FF4007002F088FE80BD202002F084FE84
:1020400080BD402002F080FE80BD802002F07CFE3A
:1020500080BD4FF4807002F077FE80BD000000006C
:1020600080B540F63000C2F200000068002808BFCA
:1020700080BD02F0F9FB80BD80B540F63000C2F2B1
:1020800000000068002808BF80BD02F0EDFB80BDA5
:1020900080B540F63000C2F200004068002808BF5A
:1020A00080BD02F0E1FB80BD80B540F63000C2F299
:1020B00000004068002808BF80BD02F0D5FB80BD4D
:1020C0002DE9F041044602F02FFF04B3054694F8D1
:1020D000350002281ED140F20F472068C4F20207E3
:1020E00040F26F48B842C4F2020817DC6F21C4F214
:1020F0000201884223DC3F21C4F20201884239DC1C
:102100001021C4F20201884258D0282151E0012058
:10211000BDE8F081802060650120ABE240451ADC1B
:1021200040F23F41C4F2020188422ADC40F21041F1
:10213000C4F20201884241D040F2284139E09F2197
:10214000C4F20201884225DC7021C4F202018842F7
:1021500034D088212DE040F29F41C4F20201884230
:102160001FDC40F27041C4F20201884226D040F2E6
:1021700088411EE04021C4F2020188421ED058214D
:1021800017E040F24041C4F20201884216D040F20A
:1021900058410EE0A021C4F2020188420ED0B821BD
:1021A00007E040F2B841C4F20201884206D040F292
:1021B000A041C4F20201884240F0EA8126683168F9
:1021C00021F01E02314641F8142B6FF080020B689B
:1021D000404502EA03020A6019DC9F21C4F20201B1
:1021E000884231DC5721C4F20201884256DC1021BA
:1021F000C4F20201884200F091802821C4F2020159
:10220000884200F08B804021C4F2020184E045F254
:102210002F41C5F6020188422BDC40F2B741C4F2DF
:102220000201884248DC40F27041C4F20201884257
:1022300074D040F28841C4F2020188426ED040F26C
:10224000A041C4F2020167E040F22741C4F202015A
:10225000884240DCA021C4F2020188425ED0B8214D
:10226000C4F20201884259D040F21041C4F2020186
:1022700052E045F26B41C5F6020188423CDC45F272
:102280003041C5F60201884248D045F24441C5F6C6
:102290000201884242D045F258413BE05821C4F245
:1022A000020188423AD07021C4F20201884235D03E
:1022B0008821C4F202012FE040F2B841C4F20201C9
:1022C00088422BD045F20841C5F60201884225D04C
:1022D00045F21C411EE040F22841C4F2020188424E
:1022E0001CD040F24041C4F20201884216D040F2B4
:1022F0005841C4F202010FE045F26C41C5F60201FB
:1023000088420BD045F29441C5F60201884205D0BF
:1023100045F28041C5F60201884269D1216EB8427A
:102320000A6822F480720A6010DC6F21C4F2020194
:1023300088421CDC3F21C4F20201884232DC1021B9
:10234000C4F20201884252D028214AE040451ADCFA
:1023500040F23F41C4F2020188422ADC40F21041BF
:10236000C4F20201884242D040F2284139E09F2164
:10237000C4F20201884225DC7021C4F202018842C5
:1023800035D088212DE040F29F41C4F202018842FD
:102390001FDC40F27041C4F20201884227D040F2B3
:1023A00088411EE04021C4F2020188421FD058211A
:1023B00017E040F24041C4F20201884217D040F2D7
:1023C00058410EE0A021C4F2020188420FD0B8218A
:1023D00007E040F2B841C4F20201884207D040F25F
:1023E000A041C4F20201884208BF206800E02068D2
:1023F000016821F0010101603068C0070BD002F0D4
:1024000093FD401B0628F7D320206065032084F845
:10241000350001202EE12068B84210DC6F21C4F2A3
:10242000020188421CDC3F21C4F20201884232DCF6
:102430001021C4F20201884250D028214AE04045D0
:102440001ADC40F23F41C4F2020188422ADC40F229
:102450001041C4F20201884240D040F2284139E0E4
:102460009F21C4F20201884225DC7021C4F20201DE
:10247000884233D088212DE040F29F41C4F202010E
:1024800088421FDC40F27041C4F20201884225D02C
:1024900040F288411EE04021C4F2020188421DD072
:1024A000582117E040F24041C4F20201884215D0A1
:1024B00040F258410EE0A021C4F2020188420DD042
:1024C000B82107E040F2B841C4F20201884205D0C9
:1024D00040F2A041C4F2020188425ED1D4E9161252
:1024E00002F01F023F2303FA02F28A6040455EDCDD
:1024F0009F21C4F20201884214DC5721C4F2020178
:10250000884226DC1021C4F20201884200F0A28039
:102510002821C4F20201884200F09C804021C4F2CC
:10252000020195E040F22741C4F2020188421EDC1C
:10253000A021C4F20201884200F08C80B821C4F2CC
:102540000201884200F0868040F21041C4F202018C
:102550007EE05821C4F2020188427BD07021C4F28F
:102560000201884276D08821C4F2020170E040F274
:102570002841C4F2020188426CD040F24041C4F2CA
:102580000201884266D040F25841C4F202015FE085
:1025900021686FF00E020E4619E6D4E9161202F019
:1025A0001F02012303FA02F24A604045A0DD45F212
:1025B0002F41C5F60201884216DC40F2B741C4F251
:1025C0000201884225DC40F27041C4F202018842D7
:1025D00040D040F28841C4F2020188423AD040F231
:1025E000A041C4F2020133E045F26B41C5F602019D
:1025F00088421DDC45F23041C5F60201884229D0EF
:1026000045F24441C5F60201884223D045F25841C3
:102610001CE040F2B841C4F2020188421AD045F2EF
:102620000841C5F60201884214D045F21C410DE074
:1026300045F26C41C5F6020188420BD045F2944147
:10264000C5F60201884205D045F28041C5F6020177
:1026500088420BD1616EA26EE06E4A6030B10168B3
:1026600021F480710160D4E91C014160012084F8EB
:1026700035000020002184F83410BDE8F08100000E
:1026800080B5D8B190F83510022919D140F20F4326
:102690000168C4F20203994216DC6F22C4F20202FE
:1026A000914226DC3F22C4F2020291423CDC10221D
:1026B000C4F2020291425AD0282254E0012080BD87
:1026C00080214165012080BD40F26F42C4F20202C8
:1026D00091421ADC40F23F42C4F2020291422ADCEB
:1026E00040F21042C4F20202914240D040F228422D
:1026F00039E09F22C4F20202914225DC7022C4F22A
:102700000202914233D088222DE040F29F42C4F26F
:10271000020291421FDC40F27042C4F20202914276
:1027200025D040F288421EE04022C4F202029142CB
:102730001DD0582217E040F24042C4F202029142FA
:1027400015D040F258420EE0A022C4F2020291429B
:102750000DD0B82207E040F2B842C4F20202914222
:1027600005D040F2A042C4F20202914270D19942D7
:102770004FF0040280F8352010DC6F22C4F2020210
:10278000914220DC3F22C4F20202914236DC102248
:10279000C4F20202914254D028224EE040F26F422D
:1027A000C4F2020291421ADC40F23F42C4F2020239
:1027B00091422ADC40F21042C4F20202914240D01F
:1027C00040F2284239E09F22C4F20202914225DC05
:1027D0007022C4F20202914233D088222DE040F2EE
:1027E0009F42C4F2020291421FDC40F27042C4F2E6
:1027F0000202914225D040F288421EE04022C4F2FB
:10280000020291421DD0582217E040F24042C4F229
:102810000202914215D040F258420EE0A022C4F2CA
:10282000020291420DD0B82207E040F2B842C4F251
:102830000202914205D040F2A042C4F2020291424B
:1028400021D10068016821F001010160002080BDF4
:10285000D0F800C09C45DCF8002022F00E02CCF835
:10286000002016DC6F22C4F20202944526DC3F22CF
:10287000C4F2020294453CDC1022C4F202029445E8
:102880005DD0282254E0086820F001000860002094
:1028900080BD40F26F42C4F2020294451ADC40F25D
:1028A0003F42C4F2020294452ADC40F21042C4F2D4
:1028B0000202944543D040F2284239E09F22C4F2FC
:1028C0000202944525DC7022C4F20202944536D0FF
:1028D00088222DE040F29F42C4F2020294451FDCA0
:1028E00040F27042C4F20202944528D040F288427D
:1028F0001EE04022C4F20202944520D0582217E084
:1029000040F24042C4F20202944518D040F25842CC
:102910000EE0A022C4F20202944510D0B82207E0D3
:1029200040F2B842C4F20202944508D040F2A042FC
:10293000C4F20202944508BFD0F800C001E0D0F80C
:1029400000C040F26F42DCF80030C4F20202914253
:1029500023F00102CCF8002019DC9F22C4F202020D
:10296000914231DC5722C4F20202914256DC10221D
:10297000C4F20202914200F091802822C4F20202C5
:10298000914200F08B804022C4F2020284E045F2C2
:102990002F42C5F6020291422BDC40F2B742C4F24C
:1029A0000202914248DC40F27042C4F202029142BB
:1029B00074D040F28842C4F2020291426ED040F2DA
:1029C000A042C4F2020267E040F22742C4F20202CF
:1029D000914240DCA022C4F2020291425ED0B822B1
:1029E000C4F20202914259D040F21042C4F20202F3
:1029F00052E045F26B42C5F6020291423CDC45F2E0
:102A00003042C5F60202914248D045F24442C5F632
:102A10000202914242D045F258423BE05822C4F2B1
:102A2000020291423AD07022C4F20202914235D0A1
:102A30008822C4F202022FE040F2B842C4F202023D
:102A400091422BD045F20842C5F60202914225D0B0
:102A500045F21C421EE040F22842C4F202029142BA
:102A60001CD040F24042C4F20202914216D040F221
:102A70005842C4F202020FE045F26C42C5F602026F
:102A800091420BD045F29442C5F60202914205D024
:102A900045F28042C5F6020291421AD1D0E9181CD3
:102AA000D0E916E30A6822F480720A6003F01F017D
:102AB000012202FA01F1CEF80410816ECCF8041064
:102AC000C16E31B10A6822F480720A60D0E91C122A
:102AD0004A60012180F83510026D002180F8341021
:102AE0000AB190470021084680BD000000000000A8
:102AF000F0B581B0E0B140F20F4704460168C4F27E
:102B0000020740F26F40B942C4F2020013DC6F22A8
:102B1000C4F2020291421FDC3F22C4F2020291423F
:102B200035DC1022C4F20202914254D028224DE03A
:102B3000012001B0F0BD81421ADC40F23F42C4F2F4
:102B4000020291422ADC40F21042C4F20202914297
:102B500041D040F2284239E09F22C4F20202914261
:102B600025DC7022C4F20202914234D088222DE08A
:102B700040F29F42C4F2020291421FDC40F27042D6
:102B8000C4F20202914226D040F288421EE0402266
:102B9000C4F2020291421ED0582217E040F2404295
:102BA000C4F20202914216D040F258420EE0A02236
:102BB000C4F2020291420ED0B82207E040F2B842BD
:102BC000C4F20202914206D040F2A042C4F20202D4
:102BD000914240F09F812268136881424FF00100CA
:102BE00023F00103136015DC9F22C4F2020291421C
:102BF0002BDC5722C4F2020291424EDC1022C4F2B6
:102C00000202914277D02822C4F20202914272D08D
:102C100040226BE045F22F42C5F60202914227DCCA
:102C200040F2B742C4F20202914242DC40F27042EA
:102C3000C4F2020291425ED040F28842C4F2020223
:102C4000914258D040F2A04250E040F22742C4F2F4
:102C5000020291423CDCA022C4F2020291424AD01C
:102C6000B822C4F20202914245D040F210423DE047
:102C700045F26B42C5F60202914250DC45F2304209
:102C8000C5F6020291425DD045F24442C5F6020209
:102C9000914257D045F258424FE05822C4F2020206
:102CA000914228D07022C4F20202914223D088229D
:102CB0001CE040F2B842C4F2020291421BD045F23D
:102CC0000842C5F6020291423CD045F21C4234E073
:102CD00040F22842C4F2020291420CD040F240423B
:102CE000C4F20202914206D040F25842C4F20202FB
:102CF000914240F00D8120680021016041608160B7
:102D0000C1600161212141612046FEF711FFE16DA3
:102D10003F2201F01F0102FA01F1816023E045F238
:102D20006C42C5F6020291420CD045F28042C5F6D3
:102D30000202914206D045F29442C5F60202914247
:102D400040F0E68020680021016041608160C16040
:102D500001612046FEF7ECFEE16D012201F01F014A
:102D600002FA01F1416045F2574C2168C5F6020CA8
:102D700045F6FC006145C5F602000EDC45F22F4227
:102D8000C5F60202914217DC45F20842C5F602027E
:102D9000914226D045F21C421FE045F27F42C5F623
:102DA0000202914211DC45F25842C5F602029142FC
:102DB00017D045F26C4210E045F23042C5F60202EF
:102DC00091420ED045F2444207E045F29442C5F6E6
:102DD0000202914205D045F28042C5F602029142BC
:102DE00049D122784CF6CD43CCF6CC43A0F1FC057A
:102DF000083AA2FB0323A0F17C021B0905EB830523
:102E000003F01F030127C4E9185207FA03F2A26670
:102E100025B100222A60D4E9192353606268531E49
:102E2000072B66D84FF0FF3353FA82F3072B5AD89B
:102E3000D2B2614500F144050EDC45F22F47C5F6DC
:102E40000207B94233DC45F20847C5F60207B9422A
:102E500042D045F21C473BE045F27F47C5F60207EA
:102E6000B9422DDC45F25847C5F60207B94233D0C6
:102E700045F26C472CE022784AF6AB23CAF6AA2327
:102E80000826103AB942A2FB032507F1AA074FEA28
:102E90001512134688BF06EB151340F60005B9421C
:102EA000C4F2020528BF134605F18002A6E745F2E9
:102EB0003047C5F60207B9420ED045F2444707E055
:102EC00045F28047C5F60207B94205D045F294475E
:102ED000C5F60207B9421FD100EB8200E06601206F
:102EE00025679840606704F16C02002307CA0360FD
:102EF0004A6000206067C4E91B00C4E90F00C4E910
:102F00001100C4E91300606584F8350084F83400CA
:102F100001B0F0BD0A465FE640F60001C4F20201CE
:102F200001F1FC0001F5A075D6E7000000000000EB
:102F3000406D70470000000090F8350070470000B9
:102F40002DE9F04381B00021009140F200010446D8
:102F5000C2F2000140F26F49A56DC4F2020908688F
:102F600048F2B511C1F64E312768A0FB01084F4564
:102F70002E682A6815DC9F20C4F2020087422BDCF1
:102F80005720C4F2020087424FDC1020C4F2020036
:102F9000874278D02820C4F20200874273D04020B4
:102FA0006CE045F22F40C5F60200874227DC40F274
:102FB000B740C4F20200874243DC40F27040C4F2E2
:102FC000020087425FD040F28840C4F2020087428C
:102FD00059D040F2A04051E040F22740C4F2020034
:102FE00087423DDCA020C4F2020087424BD0B820CB
:102FF000C4F20200874246D040F210403EE045F263
:103000006B40C5F60200874274DC45F23040C5F6DD
:103010000200874200F0818045F24440C5F602007C
:1030200087427AD045F2584072E05820C4F202003C
:10303000874228D07020C4F20200874223D0882023
:103040001CE040F2B840C4F2020087421BD045F2B7
:103050000840C5F6020087425FD045F21C4057E0A9
:1030600040F22840C4F2020087420CD040F24040B7
:10307000C4F20200874206D040F25840C4F2020077
:10308000874240F00A85E06D00F01F01082000FA39
:1030900001F2324200F0138140F20F40C4F202000C
:1030A000874213DC6F20C4F20200874200F3908055
:1030B0003F20C4F20200874200F3CE801020C4F209
:1030C0000200874200F0EC802820E4E04F4500F346
:1030D0008B8040F23F40C4F20200874200F3C3807D
:1030E00040F21040C4F20200874200F0D98040F262
:1030F0002840D0E045F26C40C5F6020087420CD073
:1031000045F28040C5F60200874206D045F2944061
:10311000C5F60200874240F0C084E06D236800F0ED
:103120001F01042000FA01F61B68164218BF13F0B5
:1031300004002BD1022000FA01F6164218BF13F04A
:10314000020066D122FA01F0000740F1A68413F0D4
:10315000080000F0A28440F20F40C4F2020087424F
:1031600000F321836F20C4F20200874200F39883AA
:103170003F20C4F20200874200F3DD831020C4F236
:103180000200874200F0FB832820F3E318046E60FE
:1031900039D4980600F1318440F20F40C4F20200A5
:1031A000874200F36A836F20C4F20200874200F373
:1031B00092833F20C4F20200874200F3F58310207F
:1031C000C4F20200874200F01284282000F00BBCF9
:1031D0009F20C4F2020087424EDC7020C4F202003D
:1031E00087425DD0882056E040F29F40C4F2020042
:1031F000874248DC40F27040C4F2020087424FD060
:1032000040F2884047E0D80300F1F783A16C00F05A
:1032100041BC18046E6000F1C182980600F1398447
:1032200040F20F40C4F20200874200F370836F2027
:10323000C4F20200874200F3E2833F20C4F202009E
:10324000874200F3F7831020C4F20200874200F0A7
:103250001484282000F00DBC4020C4F202008742F4
:103260001ED0582017E040F24040C4F202008742CE
:1032700016D040F258400EE0A020C4F2020087426F
:103280000ED0B82007E040F2B840C4F202008742F6
:1032900006D040F2A040C4F20200874240F097827C
:1032A000206804230068184209D02068036823F0CE
:1032B00004030360AA60606D40F0010060650120B6
:1032C00000FA01F2324270D040F20F40C4F2020024
:1032D000874210DC6F20C4F2020087421CDC3F20D2
:1032E000C4F20200874232DC1020C4F2020087429E
:1032F00051D028204AE04F451ADC40F23F40C4F24A
:10330000020087422ADC40F21040C4F202008742E9
:1033100041D040F2284039E09F20C4F202008742A9
:1033200025DC7020C4F20200874234D088202DE0D2
:1033300040F29F40C4F2020087421FDC40F270401E
:10334000C4F20200874226D040F288401EE04020AE
:10335000C4F2020087421ED0582017E040F24040DD
:10336000C4F20200874216D040F258400EE0A0207E
:10337000C4F2020087420ED0B82007E040F2B84005
:10338000C4F20200874206D040F2A040C4F202001C
:10339000874240F01F822068406900F0800020B121
:1033A000AA60606D40F002006065042000FA01F23E
:1033B000324270D040F20F40C4F20200874210DC6B
:1033C0006F20C4F2020087421CDC3F20C4F20200DE
:1033D000874232DC1020C4F20200874251D02820FC
:1033E0004AE04F451ADC40F23F40C4F202008742F7
:1033F0002ADC40F21040C4F20200874241D040F281
:10340000284039E09F20C4F20200874225DC70206A
:10341000C4F20200874234D088202DE040F29F4061
:10342000C4F2020087421FDC40F27040C4F2020086
:10343000874226D040F288401EE04020C4F20200BD
:1034400087421ED0582017E040F24040C4F20200EC
:10345000874216D040F258400EE0A020C4F202008D
:1034600087420ED0B82007E040F2B840C4F2020014
:10347000874206D040F2A040C4F20200874240F0EA
:10348000AF812068006800F0020020B1AA60606D82
:1034900040F004006065102000FA01F131427ED056
:1034A00040F20F40C4F20200874210DC6F20C4F2E9
:1034B000020087421CDC3F20C4F20200874232DC5B
:1034C0001020C4F20200874251D028204AE04F4524
:1034D0001ADC40F23F40C4F2020087422ADC40F28C
:1034E0001040C4F20200874241D040F2284039E047
:1034F0009F20C4F20200874225DC7020C4F2020043
:10350000874234D088202DE040F29F40C4F2020070
:1035100087421FDC40F27040C4F20200874226D08E
:1035200040F288401EE04020C4F2020087421ED0D4
:10353000582017E040F24040C4F20200874216D003
:1035400040F258400EE0A020C4F2020087420ED0A4
:10355000B82007E040F2B840C4F20200874206D02B
:1035600040F2A040C4F20200874240F03F81276849
:1035700008223868104212D0A96020680168490307
:10358000016806D4C90506D4016821F0080101606C
:1035900001E008034FD4216C09B120468847E06D53
:1035A000202100F01F008140314200F0A88040F24D
:1035B0000F432268C4F202039A4210DC6F23C4F264
:1035C00002039A421CDC3F23C4F202039A4236DC17
:1035D0001023C4F202039A4255D028234EE04A45F4
:1035E0001ADC40F23F43C4F202039A422EDC40F25E
:1035F0001043C4F202039A4245D040F228433DE012
:103600009F23C4F202039A4229DC7023C4F202030E
:103610009A4238D0882331E040F29F43C4F202033B
:103620009A4223DC40F27043C4F202039A422AD049
:1036300040F2884322E0A16C0029AED1AFE74023DD
:10364000C4F202039A421ED0582317E040F24043CE
:10365000C4F202039A4216D040F258430EE0A0236F
:10366000C4F202039A420ED0B82307E040F2B843F6
:10367000C4F202039A4206D040F2A043C4F202030D
:103680009A4240F0B5802268102312681A4236D060
:10369000A96094F835202168042A0A6817D122F01D
:1036A00016020A604A6922F080024A61226C0AB955
:1036B000A26C1AB10A6822F008020A603F2101FADE
:1036C00000F0A860012084F83500216D65E1500309
:1036D00008680CD4C0050ED4086820F010000860FB
:1036E000012084F83500002084F8340003E0000352
:1036F00001D4616C00E0E16B09B120468847606D40
:10370000002800F0CA81606DC00700F0B48004207A
:1037100084F8350040F20F412068C4F2020188426B
:1037200010DC6F21C4F2020188421CDC3F21C4F28C
:10373000020188425EDC1021C4F2020188427ED080
:10374000282176E048451ADC40F23F41C4F20201EC
:10375000884256DC40F21041C4F2020188426ED029
:1037600040F2284165E09F21C4F20201884251DC09
:103770007021C4F20201884261D0882159E040F2F0
:103780009F41C4F2020188424BDC40F27041C4F216
:103790000201884253D040F288414AE0D80300F148
:1037A0007881616C76E14F4500F3868040F23F40BE
:1037B000C4F20200874200F3C58040F21040C4F218
:1037C0000200874200F0DB8040F22840D2E008236C
:1037D000384667E53868002000287FF4E1ADE4E56D
:1037E0003868002000287FF451AE54E60422C0E679
:1037F00002234AE74021C4F2020188421FD0582127
:1038000017E040F24041C4F20201884217D040F272
:1038100058410EE0A021C4F2020188420FD0B82125
:1038200007E040F2B841C4F20201884207D040F2FA
:10383000A041C4F20201884208BF206800E020686D
:103840004FEA9821026822F00102026000980130DC
:103850000090884203D820680068C007F6D120682D
:103860000068C0074FF0030008BF012084F835004E
:10387000002084F83400E16C0CE14F4538DC40F264
:103880003F40C4F20200874200F3958040F21040AE
:10389000C4F20200874200F0AA8040F22840A2E071
:1038A0009F20C4F20200874255DC7020C4F202005F
:1038B000874264D088205DE040F29F40C4F202005D
:1038C00087424FDC40F27040C4F20200874256D07B
:1038D00040F288404EE09F20C4F20200874273DC31
:1038E0007020C4F20200874200F0818088207AE0D4
:1038F00040F29F40C4F2020087426CDC40F270400C
:10390000C4F20200874272D040F288406BE04F451B
:1039100000F3818040F23F40C4F20200874200F38E
:10392000908040F21040C4F20200874200F0A5806F
:1039300040F228409DE04020C4F2020087421ED0A1
:10394000582017E040F24040C4F20200874216D0EF
:1039500040F258400EE0A020C4F2020087420ED090
:10396000B82007E040F2B840C4F20200874206D017
:1039700040F2A040C4F20200874240F091802768E4
:103980006FF01C02386810403860012000FA01F125
:103990006960606584F83500E16C00294FF0000033
:1039A00084F8340077D178E04020C4F202008742E6
:1039B0001DD0582017E040F24040C4F20200874278
:1039C00015D040F258400EE0A020C4F20200874219
:1039D0000DD0B82007E040F2B840C4F202008742A0
:1039E00005D040F2A040C4F2020087425BD12768B4
:1039F0006FF00801386808403860216C4AE09F2069
:103A0000C4F20200874225DC7020C4F20200874223
:103A100033D088202DE040F29F40C4F2020087425C
:103A20001FDC40F27040C4F20200874225D040F211
:103A300088401EE04020C4F2020087421DD058207A
:103A400017E040F24040C4F20200874215D040F235
:103A500058400EE0A020C4F2020087420DD0B820EA
:103A600007E040F2B840C4F20200874205D040F2BD
:103A7000A040C4F20200874218D127686FF01401F9
:103A8000386808403860012084F83500002084F848
:103A90003400E16B09B12046884701B0BDE8F083EE
:103AA0006FF00E026EE76FF00401A3E76FF00A01FA
:103AB000E6E70000000000002DE9F04381B0044675
:103AC00001F032FA002C00F0738140F26F48054695
:103AD0002068C4F20208404515DC9F21C4F20201AF
:103AE00088422BDC5721C4F20201884251DC1021AC
:103AF000C4F2020188427AD02821C4F2020188422D
:103B000075D040216EE045F22F41C5F60201884292
:103B100027DC40F2B741C4F20201884245DC40F2A2
:103B20007041C4F20201884261D040F28841C4F27F
:103B3000020188425BD040F2A04153E040F22741AD
:103B4000C4F2020188423FDCA021C4F20201884293
:103B50004DD0B821C4F20201884248D040F2104151
:103B600040E045F26B41C5F60201884200F39080C7
:103B700045F23041C5F60201884200F09C8045F2D2
:103B80004441C5F60201884200F0958045F2584153
:103B90008CE05821C4F20201884228D07021C4F27E
:103BA0000201884223D088211CE040F2B841C4F2CF
:103BB000020188421BD045F20841C5F60201884245
:103BC00079D045F21C4171E040F22841C4F2020173
:103BD00088420CD040F24041C4F20201884206D033
:103BE00040F25841C4F20201884240F0388140F26C
:103BF0000F420221C4F2020284F8351090424FF0C5
:103C0000000184F8341012DC6F21C4F202018842F2
:103C100020DC3F21C4F20201884200F39180102190
:103C2000C4F20201884200F0B0802821A7E040459C
:103C30001EDC40F23F41C4F20201884200F387805B
:103C400040F21041C4F20201884200F09E8040F22E
:103C5000284194E09F21C4F20201884200F3808051
:103C60007021C4F20201884200F08F80882186E032
:103C700040F29F41C4F20201884278DC40F2704178
:103C8000C4F20201884200F0808040F2884176E070
:103C900045F26C41C5F6020188420CD045F28041E4
:103CA000C5F60201884206D045F29441C5F60201EC
:103CB000884240F0D48004F1080E022084F83500D8
:103CC00000209EE80640A1F1800384F83400B3FA96
:103CD00083F320685B094029D4E90576D4E9079C81
:103CE00005684FEA83336FF3101508BF102345EAC8
:103CF000D2014AF6F8321943CAF2FD7241EADE01F6
:103D00004CF6CD4341EAD701024441EAD601CCF654
:103D1000CC4341EAD901A2FB032341EA1C11016013
:103D20006FF0030000EA9300E0652046FDF700FF16
:103D3000E16D012201F01F0102FA01F14160B9E0D9
:103D40004021C4F2020188421FD0582117E040F2FE
:103D50004041C4F20201884217D040F258410EE0BF
:103D6000A021C4F2020188420FD0B82107E040F23E
:103D7000B841C4F20201884207D040F2A041C4F227
:103D80000201884208BF206800E02068016821F035
:103D90000101016020680168C9070DD001F0C4F875
:103DA000401B0628F6D320206065032084F83500E8
:103DB000012001B0BDE8F08348F23F0204F108069B
:103DC0000168CFF61062114065694CCE1143A269BB
:103DD0001943E3693143266A0D43616A1543042997
:103DE00043EA050343EA060303D1D4E90B653343F1
:103DF0002B4341F20006C5F600463668B6F1005F77
:103E000016D36568A5F12906202E05D23F27CCF2EE
:103E1000C037F740FF0706D1A5F14F060025042E55
:103E200038BF012500E00125002D18BF43F48013A1
:103E300003600429436923F0070341EA03012ED1FB
:103E4000D4E90A5341EA05014BB3B2F5005F08D04B
:103E50009AB9022D16D0012D09D09DB115E0402050
:103E6000A2E7032D11D8DFE805F00A0D0A02A3F13D
:103E7000C072B2FA82F2520908E0032D01D2012287
:103E800004E002D1C3F3006200E000223AB1402016
:103E90006065012084F8350001B0BDE8F083416120
:103EA0002046FDF745FEE16D3F2201F01F0102FAB9
:103EB00001F181602068404519DC9F21C4F20201B4
:103EC000884231DC5721C4F20201884256DC1021BD
:103ED000C4F20201884200F092802821C4F202015B
:103EE000884200F08C804021C4F2020184E045F257
:103EF0002F41C5F6020188422BDC40F2B741C4F2E3
:103F00000201884248DC40F27041C4F2020188425A
:103F100075D040F28841C4F2020188426FD040F26D
:103F2000A041C4F2020167E040F22741C4F202015D
:103F3000884240DCA021C4F2020188425FD0B8214F
:103F4000C4F2020188425AD040F21041C4F2020188
:103F500052E045F26B41C5F6020188423CDC45F275
:103F60003041C5F60201884249D045F24441C5F6C8
:103F70000201884243D045F258413BE05821C4F247
:103F8000020188423BD07021C4F20201884236D03F
:103F90008821C4F202012FE040F2B841C4F20201CC
:103FA00088422CD045F20841C5F60201884226D04D
:103FB00045F21C411EE040F22841C4F20201884251
:103FC0001DD040F24041C4F20201884217D040F2B5
:103FD0005841C4F202010FE045F26C41C5F60201FE
:103FE00088420CD045F29441C5F60201884206D0C1
:103FF00045F28041C5F60201884240F0CF8045F28B
:10400000574C45F6FC01C5F6020CC5F602016045A9
:104010000EDC45F22F43C5F60203984217DC45F249
:104020000843C5F60203984226D045F21C431FE020
:1040300045F27F43C5F60203984211DC45F258432E
:10404000C5F60203984217D045F26C4310E045F2E2
:104050003043C5F6020398420ED045F2444307E0D0
:1040600045F29443C5F60203984205D045F28043D9
:10407000C5F60203984250D123784CF6CD47CCF6D2
:10408000CC47A1F1FC05083BA1F17C06A3FB073757
:104090003B0905EB83022266A26803F01F03012798
:1040A000802A666607FA03F2A26601D100226260E6
:1040B0006268A66ED4E91837D5B2013A072A1D60A6
:1040C0007E6016D82679731E072B61D8604501F1F2
:1040D000440213DC45F22F47C5F60207B8423BDC29
:1040E00045F20847C5F60207B8424AD045F21C47D8
:1040F00043E000206067C4E91B004FE045F27F47C2
:10410000C5F60207B84230DC45F25847C5F602074B
:10411000B84236D045F26C472FE023784AF6AB27F9
:10412000CAF6AA270825103BA3FB073740F20F4326
:10413000C4F202033E09984203F1AA02334688BF43
:1041400005EB171340F600059042C4F2020528BFA4
:10415000334605F180069CE745F23047C5F6020775
:10416000B8420ED045F2444707E045F28047C5F615
:104170000207B84205D045F29447C5F60207B84297
:1041800014D101EB8600E066012022679840606749
:1041900004F16C02002307CA03604A6000206065D6
:1041A000012184F8351001B0BDE8F08340F600002D
:1041B000C4F2020000F1FC0100F5A072E1E700008A
:1041C000F0B581B0A8B3044690F83400012802D1BC
:1041D000022001B0F0BD012084F8340094F83500CD
:1041E000012820D1022084F835000020606540F2CB
:1041F0000F462068C4F2020640F26F47B042C4F294
:10420000020719DC6F25C4F20205A84225DC3F2510
:10421000C4F20205A8423BDC1025C4F20205A84204
:104220005BD0282553E04FF400606065002084F8DF
:104230003400012001B0F0BDB8421ADC40F23F4525
:10424000C4F20205A8422ADC40F21045C4F202057D
:10425000A84242D040F2284539E09F25C4F2020529
:10426000A84225DC7025C4F20205A84235D0882575
:104270002DE040F29F45C4F20205A8421FDC40F247
:104280007045C4F20205A84227D040F288451EE0DE
:104290004025C4F20205A8421FD0582517E040F27D
:1042A0004045C4F20205A84217D040F258450EE03E
:1042B000A025C4F20205A8420FD0B82507E040F2BD
:1042C000B845C4F20205A84207D040F2A045C4F2A6
:1042D0000205A84208BF206800E02068056825F0B4
:1042E000010505602046FDF7B3FC2068B04210DCF4
:1042F0006F21C4F2020188421CDC3F21C4F202019A
:10430000884232DC1021C4F20201884251D02821B7
:104310004AE0B8421ADC40F23F41C4F2020188424E
:104320002ADC40F21041C4F20201884241D040F23E
:10433000284139E09F21C4F20201884225DC702126
:10434000C4F20201884234D088212DE040F29F411E
:10435000C4F2020188421FDC40F27041C4F2020143
:10436000884226D040F288411EE04021C4F202017A
:1043700088421ED0582117E040F24041C4F20201A9
:10438000884216D040F258410EE0A021C4F202014A
:1043900088420ED0B82107E040F2B841C4F20201D1
:1043A000884206D040F2A041C4F20201884240F0A7
:1043B000298121680B25226C0B6865F344030B608F
:1043C0001AB108220B681A430A60B84219DC9F210F
:1043D000C4F20201884231DC5721C4F20201884252
:1043E00056DC1021C4F20201884200F0918028219D
:1043F000C4F20201884200F08B804021C4F2020125
:1044000084E045F22F41C5F6020188422BDC40F2E0
:10441000B741C4F20201884248DC40F27041C4F264
:104420000201884274D040F28841C4F202018842FD
:104430006ED040F2A041C4F2020167E040F2274191
:10444000C4F20201884240DCA021C4F20201884289
:104450005ED0B821C4F20201884259D040F2104126
:10446000C4F2020152E045F26B41C5F602018842F6
:104470003CDC45F23041C5F60201884248D045F2A5
:104480004441C5F60201884242D045F258413BE022
:104490005821C4F2020188423AD07021C4F20201CC
:1044A000884235D08821C4F202012FE040F2B841A1
:1044B000C4F2020188422BD045F20841C5F6020140
:1044C000884225D045F21C411EE040F22841C4F24A
:1044D000020188421CD040F24041C4F202018842ED
:1044E00016D040F25841C4F202010FE045F26C418F
:1044F000C5F6020188420BD045F29441C5F602018F
:10450000884205D045F28041C5F60201884272D149
:10451000216E0A68D20303D50A6842F480720A60E9
:10452000E16E19B10A6842F480720A60B04210DC90
:104530006F21C4F2020188421CDC3F21C4F2020157
:10454000884232DC1021C4F20201884252D0282174
:104550004AE0B8421ADC40F23F41C4F2020188420C
:104560002ADC40F21041C4F20201884242D040F2FB
:10457000284139E09F21C4F20201884225DC7021E4
:10458000C4F20201884235D088212DE040F29F41DB
:10459000C4F2020188421FDC40F27041C4F2020101
:1045A000884227D040F288411EE04021C4F2020137
:1045B00088421FD0582117E040F24041C4F2020166
:1045C000884217D040F258410EE0A021C4F2020107
:1045D00088420FD0B82107E040F2B841C4F202018E
:1045E000884207D040F2A041C4F20201884208BFCD
:1045F000206800E02068016841F0010101600020AE
:1046000001B0F0BD21680525226C0B68002A65F316
:1046100043030B603FF4D9AE0422D3E60000000050
:1046200040F22040C5F60000016841F00101016040
:10463000704700000000000090F89830013B012B0B
:104640000BD80068836D0B420CD0836D0B408B42FE
:104650000CD1C36D43F0020309E000F19C0101207D
:10466000022221E0C36D43F0010300E00323C36590
:104670008B0504D5D0F8E0301343C0F8E0304B058B
:1046800004D5D0F8E4301A43C0F8E4204FF6FF72A6
:10469000436DC3F6CF720A401A4342658A0F4AF649
:1046A00014010020C4F200010B681A430A6070472D
:1046B000704700000000000070470000000000008C
:1046C000704700000000000070B590F89850022D6F
:1046D00011D1402914D10468D4F8A05015F4FE0F6C
:1046E0002BD0D4F8A4506D062CD0D4F8A450ED01F2
:1046F00030D4002531E0D0F89C1041F0080125E0CD
:1047000041290FD10468D4F8B05015F4FE0F14D02D
:10471000D4F8B4506D0615D0D4F8B450ED0126D4B9
:10472000002527E0056D8D4207D900F17C04D0F803
:1047300054E04FF0000C0D4626E0D0F89C1041F0FC
:10474000200103E0D0F89C1041F48071C0F89C1067
:10475000012070BDD4F8A050ED0FD4F8A440C4F3EC
:10476000052404EB050E00F17404456C0BE0D4F84D
:10477000B050ED0FD4F8B440C4F3052404EB050E9B
:1047800000F17804C56CF44605FB0EF6246854F875
:10479000265015F08045556054F826E02EF060450F
:1047A00008BFCEF38A4504EB860E156054F82650F8
:1047B00005F00055956054F8264004F0004414615B
:1047C000BEF80440D461BEF8064014F00F04D46073
:1047D000DEF8044004F480145461DEF8044004F46C
:1047E000001494619EF8074004F07F041462DEF820
:1047F00004404FEAD47454620ED00EF108054AF218
:10480000541E0024C0F6000E2E5D1E550134D668DD
:104810001EF80660B442F7D3402904D10068C0F8FE
:10482000A8C0002070BD412904D10068C0F8B8C0FC
:10483000002070BD1F2907D80068012202FA01F18B
:10484000C0F89810002070BD006801F01F0101221F
:1048500002FA01F1C0F89C10002070BD00000000B9
:1048600070470000000000002DE9F04F89B00446B9
:104870004AF61000C4F2000001684AF61400C4F2BF
:1048800000000268206802EA0108056DD0F8549023
:10489000036D0293436D0193036D0493436D039382
:1048A000036D0893436D0793036D0693436D059362
:1048B000D0F854A0D0F850B05FEACA530ED51BF41C
:1048C00080710BD04FF4807101654AF61001002011
:1048D000C4F2000108602046FFF7C2FF05EA09069E
:1048E0004AF610095FEA4A50C4F200094FEA887795
:1048F00011D51BF480600ED02068D0F8DC10D0F801
:10490000E42011404FF4806202650020C9F80000E5
:10491000204600F095F9DDE9011000EA010506F4F2
:10492000704657B120680021016508F00300C9F8FE
:10493000000020463946FFF7BBFEDDE9031000EA20
:10494000010705F00F0546B12068314606650020D5
:10495000C9F80000204600F07BF907F0F00645B1E9
:104960002068294605650020C9F80000204600F0AF
:1049700007F946B12068314606650020C9F80000F5
:10498000204600F021F95FEA0A500CD51BF40060C4
:1049900009D020684FF4006101650020C9F80000CB
:1049A000204600F059F95FEA8A5011D51BF40070D7
:1049B0000ED02068D0F8D810D0F8E02011404FF485
:1049C000007202650020C9F80000204600F03CF9A2
:1049D0005FEA0A300CD51BF4002009D020684FF4A0
:1049E000002101650020C9F80000204600F0C4F84D
:1049F0005FEACA300CD51BF4803009D020684FF430
:104A0000803101650020C9F80000204600F014F94B
:104A10005FEA4A30DDE9051000EA01050CD51BF418
:104A2000802009D020684FF4802101650020C9F85A
:104A30000000204600F0FCF85FEA8A30DDE907104C
:104A400000EA010005F060710FD51BF400320CD0B4
:104A500022684FF4003313650022C9F80020D4F80F
:104A60009C2042F08002C4F89C2000F0715539B1BE
:104A7000206801650020C9F800002046FFF720FEED
:104A80004DB1206805650020C9F80000D4F89C00ED
:104A90002843C4F89C002068A9F50161884208D029
:104AA000D4F89C0010B12046FFF706FE09B0BDE81F
:104AB000F08F606881688907F2D0016A426A036AF0
:104AC000476A114003EA070202F03005D0F820805F
:104AD000D0F82490D0F820B0D0F824A0026A089230
:104AE00011F00F01426A0792466A026A069203D0E9
:104AF0000162204600F090F808EA09072DB16068CD
:104B000029460562204600F08FF870060BEA0A0677
:104B100007F4C0750ED5069810F040000AD0606802
:104B20004023C16BC26B090C02F03F0203622046B6
:104B300000F076F8DDE9071000EA010706F4FC460C
:104B40002DB1606829460562204600F061F807F43F
:104B5000F02036B161680E62D4F89C103143C4F87D
:104B60009C1000289CD061680862D4F89C1008430F
:104B7000C4F89C0094E700007047000000000000AB
:104B8000C90708BF704710B5044601684AF2000023
:104B9000C4F20000814240F63000C2F2000006D0AC
:104BA0004AF20042C4F20002914204D1043000688B
:104BB000402103F001FD012100222046FFF73CFDCA
:104BC000BDE8104070470000C90658BF704710B5D7
:104BD000044601684AF20000C4F20000814240F637
:104BE0003000C2F2000006D04AF20042C4F20002D5
:104BF000914204D104300068412103F0DDFC102112
:104C000000222046FFF718FDBDE810407047000065
:104C10007047000000000000704700000000000026
:104C20007047000000000000704700000000000016
:104C30007047000000000000704700000000000006
:104C400070470000000000007047000000000000F6
:104C500070470000000000007047000000000000E6
:104C600040F63801FF28C2F2000100F32A80421EFC
:104C70003F2A00F24B800FF20600DFE802F05D20D1
:104C8000634C6363634E6363636363636350636333
:104C900063636363636363636363636363526363F5
:104CA00063636363636363636363636363636363D4
:104CB0006363636363636363636363636354043164
:104CC0003AE0B0F5805F0ADAB0F5806F12DAB0F53D
:104CD000807F2AD0B0F5007F34D124312CE0B0F5AC
:104CE000804F0DDAB0F5805F21D0B0F5005F29D19B
:104CF000343121E01DD0B0F5006F23D12C311BE001
:104D000019D0B0F5004F1DD13C3115E0802818BFF7
:104D100070471C3110E008310EE00C310CE010310E
:104D20000AE0143108E0183106E0203104E03031A7
:104D300002E0283100E0383180B5086803F080FCDB
:104D4000BDE880407047000080B58821C5F60001AD
:104D50000A68024208BF80BD0860FFF781FF80BD7E
:104D60002DE9F04F82B042F200420A27C5F6020256
:104D70000B68904208BF0927002B009700F0C08005
:104D800000F1264240F2040A02F1FF72C5F6000A61
:104D90004FEAB227009A092F4FF0000438BF3A4675
:104DA00000260127009209E00B68043633FA07F267
:104DB00007F1010704F1020400F0A280A7F1010845
:104DC000012202FA08FB13EA0B09EDD0D1F804E046
:104DD0000EF00303A3F1010CBCF1010F12D8032262
:104DE000D0F808C0A240CD682CEA0202A5402A43B0
:104DF0008260CEF30015426822EA0B0205FA08F53C
:104E00002A434260032B1FD00325C268A540022B12
:104E100022EA05028D6805FA04F542EA0502C2603D
:104E200012D16FF0030206F01C0502EA58020F23AC
:104E3000024403FA05FED2F820C00B692CEA0E0CDE
:104E4000AB4043EA0C03136203230268A3404D689E
:104E50009A4305F00303A34015F4403F42EA0302DE
:104E60000260A1D044F2F44340F2084EC5F60203BA
:104E7000C5F6000E0F251A6842F002021A601A6881
:104E800002F00202019228F00302019B06F00C03DB
:104E900052F80EC09D402CEA050C009D05FA03F364
:104EA00043EA0C0342F80E304FF0B04EDEF800C07B
:104EB0004B684CEA0905DA0258BF2CEA09059A0248
:104EC000CEF80050DAF800C04CEA090558BF2CEAC9
:104ED00009059A03CAF80050DAF880C04CEA0905BF
:104EE00058BF2CEA0905DB03CAF88050DAF87C20A9
:104EF00042EA090558BF22EA0905CAF87C5053E77F
:104F000002B0BDE8F08F00000069084018BF012022
:104F1000704700000000000041F20000C5F60040AC
:104F20000068000C7047000040F6C800C2F20000A4
:104F3000006870470000000070470000000000009B
:104F4000704700000000000080B5D0F800C0DCF819
:104F50001830DCF80020D90502F0800208D53AB1FB
:104F6000416C41F0010141644FF48071CCF81C1098
:104F7000590508D53AB1416C41F0080141644FF43C
:104F80008061CCF81C10990508D53AB1416C41F00C
:104F9000020141644FF40071CCF81C10416C11F017
:104FA0000B0F08BF80BD01F0A7FF80BD000000000F
:104FB00080B50268436B002B9169126808BF80BD01
:104FC000984780BD0000000080B500F001F880BD6A
:104FD000406C7047000000007047000000000000B7
:104FE0007047000000000000704700000000000053
:104FF00040F20C0040F6C801C2F20000C2F200010B
:1050000000780A6810440860704700000000000043
:1050100080B5032000F0F0F800F0EEFB44F21841F8
:105020004AF22C13C5F60201C0F600030A680968AB
:1050300001F00F01C2F30322595C9A5C01F01F01D9
:1050400002F01F02D04040F20402C2F2000220FA35
:1050500001F1116040F20001C2F2000108600F206E
:1050600000F00AF800281CBF012080BD00F080F885
:10507000002080BD00000000B0B540F20C01C2F27B
:105080000001097801B3044640F20000C2F20000BA
:105090004FF47A72B2FBF1F10068B0FBF1F000F06E
:1050A00073FF0F2C4FF001050CD858B94FF0FF30AB
:1050B00000222146002500F06FF840F21000C2F2F5
:1050C000000004602846B0BD0120B0BD0000000013
:1050D00010B54EF6A05E4178CEF2000E90F800C0FA
:1050E0004EF8081CDEF8001021F00101CEF8001087
:1050F00041684EF8041C017BC37A827A447B1B060C
:1051000043EA0171837B41EAC241C27B41EA8441A7
:10511000447A41EA4341007A41EA024141EA0421EA
:1051200041EA400040EA0C00CEF8000010BD00004B
:105130004EF62450CEF20000BFF35F8F016821F4D9
:10514000803101600021016770470000000000000D
:105150004EF6245140F00100CEF2000108670868C5
:1051600040F480300860BFF34F8FBFF36F8F7047FC
:105170007047000000000000002848BF704700F0A2
:105180001F01012202FA01F14EF200124009CEF293
:10519000000242F82010704770B54EF60C5C4FF0DC
:1051A000FF36CEF2000C00F16045DCF80030C3F3AE
:1051B000022E8EF00703042B28BF0423BEF1030444
:1051C00006FA03F321EA030100F00F0338BF0024BD
:1051D000043BB0F1FF3F634406FA04F003F10C0313
:1051E00001FA04F1C8BF05F5644322EA0000084350
:1051F0000001187070BD00004EF60C514FF6FF0311
:10520000CEF200010A681A4060F30A2242F0806080
:1052100040F0FD700860704780B500F065FA44F218
:1052200020414AF22C12C5F60201C0F600020968BC
:10523000C1F30211515C01F01F01C84080BD0000A4
:1052400080B544F2384EC5F6020E5EF8103C5EF8AA
:10525000101CC1F3053C5EF80C1CBCF1000FDEF81D
:10526000042014D0C1F30011C2F3CC02514300EE6C
:10527000101A03F003010229B8EE400A0CD071B9EC
:105280005EF8381C89060DD49FED341A18E0002111
:105290008160C0E9001180BD9FED2F1A10E09FEDE5
:1052A0002D1A0DE05EF8381C49F20002C0F2D0322F
:1052B000C1F3C10122FA01F101EE101AB8EE411A50
:1052C000DEF800109FED263A6FF35F2102EE101A10
:1052D000DEF80010C1F34621B8EE422A00EE032AA0
:1052E00000EE10CAB7EE003AB8EE400A81EE000AAE
:1052F00032EE031A02EE101AB8EE422A20EE010A2C
:1053000032EE031A80EE011ABCEEC11A80ED001ACB
:10531000DEF80010C1F3064101EE101AB8EE411A92
:1053200031EE031A80EE011ABCEEC11A80ED011AAB
:10533000DEF80010C1F3066101EE101AB8EE411A52
:1053400031EE031A80EE010ABCEEC00A10EE101A0C
:10535000816080BD0024744A20BCBE4B0024744C84
:10536000000000390000000080B544F2404EC5F650
:10537000020E5EF8183C5EF8181CC1F3055C5EF87E
:10538000141CBCF1000FDEF8042014D0C1F300217E
:10539000C2F3CC02514300EE101A03F003010229BC
:1053A000B8EE400A0CD071B95EF8401C89060DD4E5
:1053B0009FED341A18E000218160C0E9001180BD22
:1053C0009FED2F1A10E09FED2D1A0DE05EF8401CA6
:1053D00049F20002C0F2D032C1F3C10122FA01F158
:1053E00001EE101AB8EE411ADEF800109FED263AD1
:1053F0006FF35F2102EE101ADEF80010C1F34621B0
:10540000B8EE422A00EE032A00EE10CAB7EE003AC8
:10541000B8EE400A81EE000A32EE031A02EE101ACC
:10542000B8EE422A20EE010A32EE031A80EE011A8B
:10543000BCEEC11A80ED001ADEF80010C1F306417F
:1054400001EE101AB8EE411A31EE031A80EE011A7D
:10545000BCEEC11A80ED011ADEF80010C1F306613E
:1054600001EE101AB8EE411A31EE031A80EE010A6D
:10547000BCEEC00A10EE101A816080BD0024744A90
:1054800020BCBE4B0024744C00000039000000001A
:105490002DE9F04381B0002800F0F48042F20008CA
:1054A0000446C5F200288946D8F8000000F00F0035
:1054B00088420ED2D8F8000020F00F0040EA090020
:1054C000C8F80000D8F8000000F00F00484540F090
:1054D000D980206844F218474107C5F602070AD56B
:1054E00021693A6802F07002914204D93A6822F0C8
:1054F00070021143396001070AD561697A6802F0C8
:105500007002914204D97A6822F0700211437960E6
:10551000C1060AD5A1697A6802F4E062914204D911
:105520007A6822F4E0621143796081060AD5E16964
:10553000BA6802F07002914204D9BA6822F070028F
:105540001143B96081070AD5E1683A6802F00F0299
:10555000914204D93A6822F00F0211433960C00722
:105560007ED1206881070AD5E1683A6802F00F020F
:10557000914204D23A6822F00F0211433960D8F800
:10558000001001F00F0149450DD9D8F8001021F0A5
:105590000F0141EA0901C8F80010D8F8001001F025
:1055A0000F0149456ED141070AD521693A6802F0D9
:1055B0007002914204D23A6822F0700211433960BD
:1055C00001070AD561697A6802F07002914204D23B
:1055D0007A6822F0700211437960C1060AD5A16988
:1055E0007A6802F4E062914204D27A6822F4E062BE
:1055F0001143796080060AD5E069B96801F070014D
:10560000884204D2B96821F070010843B86000F004
:10561000F3F839684AF22C12C0F600023B68C1F375
:10562000032103F00F03515CD25C01F01F01C8405D
:1056300002F01F0140F2040220FA01F1C2F200025E
:10564000116040F2000140F21002C2F20001C2F209
:10565000000208601068FFF70FFD01B0BDE8F0839D
:10566000386820F47061D4E90102012841EA02019E
:1056700039600BD003282BD002282ED157F8181CE4
:10568000890307D4012001B0BDE8F08357F8181C46
:10569000C905F7D557F8081C21F00701084347F85A
:1056A000080CFFF741FC064641F2883557F8080C14
:1056B000616800F03800B0EBC10F3FF452AFFFF764
:1056C00033FC801BA842F1D9032001B0BDE8F08370
:1056D00057F8181C8901D5D5DCE757F8181C49077D
:1056E000D0D5D7E70000000080B500F085F844F27F
:1056F00018414AF22C13C5F60201C0F600030A68ED
:10570000096801F00F01C2F30322595C9A5C02F0B0
:105710001F0220FA02F201F01F0040F2040122FAF7
:1057200000F0C2F20001086040F20001C2F2000184
:105730000A6080BD0000000080B500F05DF844F212
:10574000184C4AF22C11C5F6020CC0F60001DCF828
:105750000020DCF8003003F00F03C2F30322CB5C1F
:105760008A5C02F01F02D04003F01F0240F20403E3
:1057700020FA02F2C2F200031A6040F20003C2F201
:1057800000031860DCF80400C0F30210085C00F0AD
:105790001F0022FA00F080BD80B500F02DF844F221
:1057A000184C4AF22C11C5F6020CC0F60001DCF8C8
:1057B0000020DCF8003003F00F03C2F30322CB5CBF
:1057C0008A5C02F01F02D04003F01F0240F2040383
:1057D00020FA02F2C2F200031A6040F20003C2F2A1
:1057E00000031860DCF80400C0F30220085C00F03D
:1057F0001F0022FA00F080BD44F20041C5F602010C
:105800000869C0F3C20003280FD002282AD070BB59
:105810000868800649F20000C0F2D03058BF7047D7
:105820000968C1F3C101C84070478A6A886AC0F339
:10583000051CC86ABCF1000F4B6B1DD0C3F3CC0331
:1058400000F00100584302F00302022A00EE100AA1
:10585000B8EE400A12D0A2B90868800614D49FEDB1
:10586000261A1EE047F64000C0F27D10704740F651
:105870000010C0F23D007047002070479FED1D1AD8
:105880000FE09FED1B1A0CE0086849F20002C0F21D
:10589000D032C0F3C10022FA00F001EE100AB8EED7
:1058A000411A086B9FED153A6FF35F2002EE100A64
:1058B000086BC0F34620B8EE422A013000EE032AFE
:1058C00000EE10CAB7EE003AB8EE400A81EE000AC8
:1058D00032EE031A20EE010A01EE100AB8EE411A68
:1058E00080EE010ABCEEC00A10EE100A704700BF3D
:1058F0000024744A20BCBE4B0024744C00000039C4
:105900002DE9F04381B0F8B18046007844F20049B7
:10591000C007C5F602095AD0D9F8100000F03801C6
:10592000D9F82800102905D018290FD100F003005C
:1059300002280BD1D9F80000800344D5D8F8040020
:10594000002840D101272FE0012718E3D8F80440B0
:105950002CB1B4F5A02F0DD0B4F5803F10D0D9F8FC
:10596000000020F48030C9F80000D9F8000020F4CD
:10597000802009E0D9F8000040F48020C9F8000038
:10598000D9F8000040F48030C9F80000FFF7CCFAE5
:105990000546A4B1D9F80000800314D4FFF7C4FA77
:1059A000401B6428F6D903270020002800F0E78276
:1059B0000DE000BFFFF7B8FA401B6428F3D8D9F810
:1059C00000008003F6D40120002800F0D88298F867
:1059D0000000800740F18480D9F8100010F03801F1
:1059E000D9F828001CD0182908BF5FEA807017D0AA
:1059F000D8F80C00D9F80010002847D021F0190180
:105A00000843C9F80000FFF78FFA0546D9F80000EF
:105A100040072AD4FFF788FA401B0228F6D91EE077
:105A2000D9F80000400704D5D8F80C00002800F091
:105A30009681D9F80000D8F80C1020F0190008431E
:105A4000C9F80000FFF770FA054600BFD9F800005A
:105A500040070AD4FFF768FA401B0228F6D903274B
:105A60000024002C00F08B823AE0FFF755FA41F257
:105A70000301884223D8D8F81000D9F80410402830
:105A800021F47C3124D141F4003023E021F00100E5
:105A9000C9F80000FFF748FA05460126D9F80000CA
:105AA00010F0040086EA900417D0FFF73DFA401B7F
:105AB0000228F3D90327002C00F0618210E0D9F806
:105AC0000400D8F8101020F0FE4040EA016001E028
:105AD00041EA00300124C9F80400002C00F04F8294
